:100000000C9446040C9463040C9463040C949413B1
:100010000C9463040C9463040C9463040C946304C4
:100020000C9463040C9470070C9463040C94D8042F
:100030000C9463040C9465040C9477040C9463048E
:100040000C9463040C9463040C9463040C94630494
:100050000C9463040C94EC120C9463040C946304ED
:100060000C9446220C94630405A84CCDB2D44EB92E
:100070003836A9020C50B9918688083CA6AAAA2A4B
:10008000BE000000803F00000000000000000000F3
:1000900040000000000000004000000000000000E0
:1000A000C00100000000000040030000000000004C
:1000B0008002000000000000800600000000000038
:1000C00080040000000000E0810800000000003C07
:1000D0008208000000000016FC0800000000000874
:1000E000080800000000000F000800000000800069
:1000F000000400000000C0000004000000004007F1
:10010000000400000000C00C000400000000C01843
:100110000008000000002011000800000000B011DD
:1001200000040000000078100004000000001B1014
:100130000004000000E01E1C00040000003010233A
:1001400000040000000C2021C0040000000420C1B5
:10015000400500000006300131050000FF031000DB
:10016000310A00C001001000430E00300000D8002A
:10017000C2040010000008008C0400F80300040012
:10018000DC10000802000400501E00080E000700EA
:10019000500D000008000100300F00007000010049
:1001A0000006000080800000002000008080000029
:1001B00000200000808700000077000000D80000C9
:1001C000805C000000700000804100000000000022
:1001D000004300000000000000420000000000009A
:1001E0000042000000000000004400000000000089
:1001F00000840000000060030084000000009006FE
:10020000009C000000000808005B000000000430B3
:1002100000730000000004A033420000000004A0AE
:1002200002400000000004A076000000000004A0CE
:1002300035000000000008400B00000000000440F2
:10024000B201000000000740E201000000800160F0
:10025000C302000000C60040050400008039009081
:10026000050400007000001002080000180000A043
:10027000010800000800001001080000010000D083
:10028000000C0000080000500604000010000050A0
:10029000060400007000007407020000C003C007DD
:1002A00003040000000220030004000000FCD10051
:1002B00000040000808133000604000040073698E7
:1002C00007040000C00D5C9C01040000000EC00C7F
:1002D000000C00000000800C0008000000008007F7
:1002E00000080000000000060010000000000004EC
:1002F00000100000000000040010000000000002D8
:100300000010000000000001002000000000C401F7
:100310000020000000007000002000000000180015
:10032000003000000000E000001000000000880025
:100330000010000000000003001000000000000298
:100340000010000000000003001000000000800109
:1003500000080000000046000008000000007900CE
:100360000008000000003D0000080000008025009B
:100370000018000000C090010018000000E07001AB
:10038000000800000020038201080000F8A006C257
:100390000108000008A10426E108000008814F9828
:1003A000A00C00000821E0C0A3040000082230C017
:1003B0009E04000010041820800D0000100400604E
:1003C000000D0000080C00E0E30500000E0801002D
:1003D000A004008002880000F004008002CE00002B
:1003E0008005000002E200000003000006AE0000ED
:1003F000000200000CAE0000000000009863000046
:1004000000000000F0300000000000C000100000FC
:10041000000000C00040000000000080012000003B
:10042000000000800110000000000000000000003B
:1004300000000000060000000000000002000000B4
:1004400000000000000000000000000000000000AC
:10045000000000000000000000000000000000009C
:10046000000000000000000000000000000100008B
:100470000000000000020000000000000008000072
:100480000000000000004D6F6E64617900547565D6
:1004900073646179005765646E65736461790054B3
:1004A000687572736461790046726964617900539A
:1004B000617475726461790053756E646179008648
:1004C000048D0495049F04A804AF04B8044A616E27
:1004D00075617279004665627275617279004D616D
:1004E00072636800417072696C004D6179004A75F1
:1004F0006E65004A756C79004175677573740053B9
:10050000657074656D626572004F63746F626572C9
:10051000004E6F76656D62657200446563656D625D
:10052000657200CD04D504DE04E404EA04EE04F3AD
:1005300004F804FF04090511051A050B3E41414169
:1005400041424242423C0006FFFFFFFFFFFF000026
:1005500000000000005F00000007000700147F1487
:100560007F14242A7F2A12231308646236495522F5
:10057000500005030000001C2241000041221C0025
:10058000082A1C2A0808083E080800503000000805
:1005900008080808006060000020100804023E51AE
:1005A00049453E00427F4000426151494621414554
:1005B0004B311814127F1027454545393C4A4949AB
:1005C0003001710905033649494936064949291E52
:1005D0000036360000005636000000081422411490
:1005E000141414144122140800020151090632495E
:1005F00079413E7E1111117E7F494949363E414184
:1006000041227F4141221C7F494949417F0909011B
:10061000013E414151327F0808087F00417F41007F
:100620002040413F017F081422417F404040407FED
:100630000204027F7F0408107F3E4141413E7F0952
:100640000909063E4151215E7F091929464649495B
:10065000493101017F01013F4040403F1F204020C0
:100660001F7F2018207F6314081463030478040399
:10067000615149454300007F414102040810204177
:10068000417F00000402010204404040404000015C
:1006900002040020545454787F4844443838444479
:1006A0004420384444487F3854545418087E090183
:1006B00002081454543C7F0804047800447D400030
:1006C0002040443D00007F10284400417F40007CD2
:1006D000041804787C0804047838444444387C14B2
:1006E000141408081414187C7C0804040848545492
:1006F0005420043F4440203C4040207C1C204020AB
:100700001C3C4030403C44281028440C5050503C85
:100710004464544C44000836410000007F0000004F
:100720004136080008082A1C08081C2A0808493213
:10073000433A204255535F4552524F520D0A0049E9
:1007400032433A204E4F5F494E464F0D0A00493220
:10075000433A2053542D3E444154415F4E41434B54
:10076000206F72204C4153545F444154410D0A00A4
:100770004932433A2053542D3E444154415F414352
:100780004B0D0A004932433A2053542D3E534C41FD
:100790005F41434B0D0A004932433A2053522D3EEC
:1007A00053525F53544F500D0A004932433A20537D
:1007B000522D3E444154415F4E41434B0D0A004986
:1007C00032433A2053522D3E444154415F41434B02
:1007D0000D0A004932433A2053522D3E534C415F9B
:1007E00041434B0D0A004932433A204D522D3E53AE
:1007F0004C415F41434B0D0A004932433A204D5270
:100800002D3E444154415F41434B0D0A0049324360
:100810003A204D542D3E4152425F4C4F53540D0AE5
:10082000004932433A204D54522D3E534C415F4EC5
:1008300041434B206F72204D542D3E444154415F43
:100840004E41434B0D0A004932433A204D522D3E52
:10085000444154415F4E41434B0D0A004932433AF3
:10086000204D542D3E534C415F41434B206F72202D
:10087000444154415F41434B0D0A004932433A2001
:100880004D2D3E53544152540D0A000011241FBEF9
:10089000CFEFD8E0DEBFCDBF14E0A0E0B1E0E2E9E9
:1008A000FBE502C005900D92A238B107D9F715E01B
:1008B000A2E8B4E001C01D92A533B107E1F70E94A0
:1008C000E2080C94C72D0C9400001F920F920FB6F3
:1008D0000F9211248F939F9388B198E0892788B94C
:1008E0009F918F910F900FBE0F901F9018951F92A0
:1008F0000F920FB60F9211248F939F9380918A04C9
:1009000090918B04892B49F080918A0490918B04FB
:10091000019790938B0480938A048091F9049091BD
:10092000FA04892B49F08091F9049091FA04019717
:100930009093FA048093F9048091F704882389F155
:100940008091880490918904892B59F58091EE0457
:100950009091EF04892BE1F48CE291E09093EF0405
:100960008093EE0480918100882379F410928000B6
:1009700089E08093810083E080936F0088EE93E0AC
:10098000909389008093880003C01092810043985F
:100990008091EE049091EF0401979093EF0480937F
:1009A000EE049F918F910F900FBE0F901F9018959E
:1009B0001F920F920FB60F9211248F939F9388B1BD
:1009C00098E0892788B99F918F910F900FBE0F9063
:1009D0001F901895AF92BF92CF92DF92EF92FF9245
:1009E0000F931F93E62E1092800029E02093810040
:1009F00023E020936F009C0140E050E060E079E04C
:100A00008DE390E00E94B72A3093890020938800FC
:100A1000FF2400E010E0C801B7010E9462285B01DA
:100A20006C0120E030E04AEF54E40E946B297B0126
:100A30008C0120E030E040E85FE30E943228882308
:100A40001CF461E070E024C0C801B70120E03FEF72
:100A50004FE757E40E9467291816B4F4C601B501A0
:100A600020E030E040E251E40E946B290E943628E9
:100A700088EC90E005C0FC013197F1F761507040BF
:100A800061157105C1F707C0C801B7010E9436287A
:100A9000CB010197F1F71092810043981F910F91BC
:100AA000FF90EF90DF90CF90BF90AF900895FC0142
:100AB00083709070892B39F4CF0164E670E00E9456
:100AC0006E2A892B49F420E030E0CF0160E971E023
:100AD0000E946E2A892B11F421E030E0822F0895C4
:100AE0000895482F6AE00E94622A282F30E084E0AF
:100AF000220F331F8A95E1F7842F0E94622A892FE3
:100B0000822B089588E592E090938904809388046D
:100B10001092810043981092F80408951E9B16C00D
:100B20008091F404882329F11092F4041092FD04BA
:100B300010928904109288048091F7048823C9F0E8
:100B40001092F70410928100439808958091F40464
:100B5000882379F481E08093F40410928904109240
:100B6000880483E08093860486E0809385040E9455
:100B70007D1608950F931F93182F062F6AE00E9489
:100B8000622A805D602F0E941C1D812F6AE00E94F6
:100B9000622A892F805D602F0E941C1D1F910F917A
:100BA0000895CF92DF92EF92FF920F931F93DF93FE
:100BB000CF93CDB7DEB728970FB6F894DEBF0FBE40
:100BC000CDBF162FF42ED22EFE01319698E0DF0114
:100BD0001D929A95E9F719820E9471058A83812FE7
:100BE0000E9471058B838F2D0E9471058C838D2D42
:100BF0000E9471058D83802F0E9471058E838E2D3A
:100C00000E9471058F838C2D0E9471058887F8944E
:100C100080ED68E0AE014F5F5F4F0E94AC21789499
:100C20008823D9F008EC10E080EA9FE064E60E9497
:100C3000EA0488EE93E0F8013197F1F70197D9F7CC
:100C400080EA9FE064E60E94EA0480E197E2F8010E
:100C50003197F1F70197D9F7E7CF28960FB6F894B7
:100C6000DEBF0FBECDBFCF91DF911F910F91FF90DF
:100C7000EF90DF90CF9008950F931F93DF93CF9362
:100C8000CDB7DEB729970FB6F894DEBF0FBECDBF44
:100C90001982F89480ED61E0AE014F5F5F4F0E94D2
:100CA000AC218823E1F008EC10E0789480EA9FE022
:100CB00064E60E94EA0488EE93E0F8013197F1F7C8
:100CC0000197D9F780EA9FE064E60E94EA0480E198
:100CD00097E2F8013197F1F70197D9F7E6CF80ED68
:100CE00067E0AE014E5F5F4F0E94F3217894882346
:100CF000D9F008EC10E080EA9FE064E60E94EA0484
:100D000088EE93E0F8013197F1F70197D9F780EA7F
:100D10009FE064E60E94EA0480E197E2F8013197DF
:100D2000F1F70197D9F7E7CF7A81872F82958F70F6
:100D300090E0877090709C01A3E0220F331FAA956A
:100D4000E1F7880F991F280F391F872F8F70820FA7
:100D50008093FC044B81842F82958F7090E0877084
:100D600090709C01E3E0220F331FEA95E1F7880FB2
:100D7000991F280F391F4F70420F4093F2048C8146
:100D8000482F42954F70682F6F7086FF22C0829562
:100D90008695877090E0817090709C01220F331FC0
:100DA000280F391F220F331F220F331F842F90E08B
:100DB00081709070AC0103E0440F551F0A95E1F774
:100DC000880F991F480F591F240F260F2093E804FE
:100DD00011C0842F90E0837090709C01B3E0220FCB
:100DE000331FBA95E1F7880F991F280F391F620F3B
:100DF0006093E8044E81842F82958F7090E0837019
:100E000090709C01F3E0220F331FFA95E1F7880FF1
:100E1000991F280F391F4F70420F4093F1044F81E3
:100E2000842F82958F7090E0817090709C0163E0B8
:100E3000220F331F6A95E1F7880F991F280F391F7A
:100E40004F70420F4093FB042885822F82958F704C
:100E50003AE0839FC00111242F70280F2093EC04E7
:100E6000872F807829960FB6F894DEBF0FBECDBFCE
:100E7000CF91DF911F910F910895CF92EF920F9331
:100E80000E9406210E943C06882359F080E060E021
:100E90004CE020E001E0EE24E394B9E0CB2E0E9488
:100EA000D1050E943C0682E090E00E94DA2C6CE3BF
:100EB0000E94622A9093ED0481E090E00E94DA2C77
:100EC00068E10E94622A9093F60487E08093B10063
:100ED00081E08093700078940F91EF90CF90089507
:100EE0001F920F920FB60F921124FF920F931F9330
:100EF0002F933F934F935F936F937F938F939F9322
:100F0000AF93BF93EF93FF93A89580918C048035A6
:100F100079F410928C04F090FC041091F20400918A
:100F2000E8040E943C068091E804801729F40AC076
:100F30008F5F80938C04DBC081E0809384040093F6
:100F4000F30407C08091F204811729F081E08093B7
:100F500083041093EA048091FC048F1509F441C0C6
:100F60008091F704882359F0809188049091890436
:100F7000009729F0019790938904809388048091C9
:100F80008504882371F180918504815080938504C4
:100F900080918504882329F5809186048093E90453
:100FA0001092860480918404882329F08091F304B0
:100FB0008093E80404C080918304882321F0809109
:100FC000EA048093F2040E947D16809184048823B1
:100FD00021F480918304882321F00093E804109386
:100FE000F2048091F804843061F08091F804853037
:100FF00041F08091F804883021F08091F804863027
:1010000089F580918F04882369F584E462E00E9469
:10101000BF208091E80460E00E94A60A8AE360E0B5
:101020000E941C1D8091F20460E00E94BA058AE3D0
:1010300060E00E941C1D8091FC0460E00E94BA05E3
:101040008091EB04882371F480E260E00E941C1D13
:101050008091E8048C3010F080E501C081E460E00C
:101060000E941C1D8091F404882399F08091FC0457
:10107000882379F49091F2048091ED04981749F453
:101080009091E8048091F604981719F481E0809318
:10109000FD0480918304882369F48091840488236B
:1010A00049F48091FD04882329F081E08093F704BE
:1010B0001092FD0480918D04863039F410928D04D5
:1010C00080919304882329F409C08F5F80938D0455
:1010D0000EC08091930481508093930480918E047C
:1010E000882329F080918E04815080938E04FF9193
:1010F000EF91BF91AF919F918F917F916F915F9190
:101100004F913F912F911F910F91FF900F900FBE24
:101110000F901F901895EF92FF920F931F93F82E48
:10112000162FE42E21E001E00E94651DFE0C0F2D1C
:1011300002501150802F612F0E94A81E1E5F802F29
:10114000612F0E94A81E01501350802F612F0E9412
:10115000A81E1C5F802F612F0E94A81E1F910F9157
:10116000FF90EF90089580E090E00E94DA2C833C9D
:1011700041F181E090E068E00E94E22C82E090E0A2
:1011800060E00E94E22C83E090E060E10E94E22CAB
:1011900084E090E061E00E94E22C85E090E060E075
:1011A0000E94E22C86E090E060E00E94E22C87E062
:1011B00090E06AE00E94E22C80E090E063EC0E9404
:1011C000E22C08957F928F929F92AF92BF92CF921E
:1011D000DF92EF92FF920F931F93CF93DF930091D3
:1011E000870484B714BE88E10FB6F894809360003A
:1011F000109260000FBE8AE190E00E945B1B3B9A58
:101200000E943D070E947E140E94B30885E090E092
:101210000E94DA2C8093F50486E090E00E94DA2C9C
:101220008093EB040E94C1120E948E0582E084BD6F
:1012300083E085BD8DE787BD80916E0082608093DD
:101240006E00539A80E28093B0008091B00083607A
:101250008093B0008091B10088608093B10080E1FC
:101260008093B30083E090E00E94DA2C8093B40076
:10127000259A80EA9FE064E60E94EA042FE088E174
:1012800090E00FB6F894A895809360000FBE20936D
:1012900060000E94ED200E94C9200E94FD1A802F4C
:1012A0000E94F91910E0CBE4D0E068E5A62E62E0D8
:1012B000B62E52E0752E9924939443E0D42E35E057
:1012C000E32E26E0C22E94E0F92E88E0882ED093FB
:1012D000FA04C093F90480919104882379F08091F5
:1012E000F704882359F010929104B0928904A092D7
:1012F00088041092810043981092F804113039F458
:10130000809185048823F1F4E092860408C01230AD
:1013100061F4809185048823A9F490928604D09288
:1013200085040E947D1613E00DC0133059F480919E
:101330008504882339F470928604109385040E94F2
:101340007D1610E080919104867041F11092910415
:101350008091F504882321F08091F504813019F4FF
:101360009092860412C08091F504823021F0809121
:10137000F504833021F4F092860412E00BC08091D2
:10138000F504843021F4E092860413E003C0F09267
:10139000860411E0C09285040E947D16809191041C
:1013A00080FF3FC010929104109286041092850431
:1013B0000E947D168091F804843089F0853028F4ED
:1013C000882341F0833009F511C08530A1F08830C1
:1013D000E1F416C0F092F8040E94D50E18C0D09225
:1013E000F8040E94340D1092000111C0E092F8043C
:1013F0000E9402110CC08092F8040E94D50F07C011
:10140000C092F8040E949C1002C01092F8048091CF
:10141000F804882329F40E94C920802F0E94F9191A
:1014200010E00E942B1A8091F804882309F042C032
:1014300080918704081779F48091F704882359F084
:101440008091FC0480FF07C08091870400E088231E
:1014500041F501E026C0402F50E08091870420E054
:1014600030E0882311F421E030E04217530721F4E3
:101470008091F704882399F08091F7048823A9F0DC
:101480008091870420E030E0882311F421E030E0EF
:101490004217530751F48091FC0480FD06C000916F
:1014A0008704802F0E94F91905C02D9A802F0E9471
:1014B00007182D988091F9049091FA04892BD1F79F
:1014C00006CF0F931F93CF93DF93182F062F809192
:1014D000EB04882371F584E761E00E94BF201C3093
:1014E00010F080E501C081E460E00E941C1D8DE4E5
:1014F00060E00E941C1D80E561E00E94BF20812FFA
:1015000090E047966CE070E00E94822AEC018930FE
:10151000910524F09C012F5F822F10C080E260E0D3
:101520000E941C1D9E012F5C822F602F0E941C1D9B
:1015300008C080E561E00E94BF20812F602F0E94DB
:10154000BA05DF91CF911F910F9108950F931F93CB
:10155000CF93DF93082F162F8091EB048823D1F4CB
:10156000802F90E047966CE070E00E94822AEC01A8
:101570008930910524F09C012F5F822F14C080E2F6
:1015800060E00E941C1D9E012F5C822F612F0E9433
:101590001C1D0CC080E260E00E941C1D80E260E027
:1015A0000E941C1D802F612F0E94BA05DF91CF91F0
:1015B0001F910F9108951F93182F88E064E00E94F7
:1015C000BF2081E091E060E00E94541D8091F5040D
:1015D000882339F48091EB04882319F48AE091E0A0
:1015E00078C08091F504882339F48091EB04813030
:1015F00019F487E191E06DC08091F504813039F4F0
:101600008091EB04882319F484E291E062C0809118
:10161000F504813039F48091EB04813019F481E3D1
:1016200091E057C08091F504823039F48091EB0449
:10163000882319F48EE391E04CC08091F504823048
:1016400039F48091EB04813019F48BE491E041C0CE
:101650008091F504833039F48091EB04882319F4E8
:1016600088E591E036C08091F504833039F48091AB
:10167000EB04813019F485E691E02BC08091F504EC
:10168000843039F48091EB04882319F482E791E0E7
:1016900020C08091F504843039F48091EB048130CE
:1016A00019F48FE791E015C08091F504853039F485
:1016B0008091EB04882319F48CE891E00AC08091B2
:1016C000F504853049F48091EB04813029F489E9EF
:1016D00091E0612F0E94541D1F910895282F6630BC
:1016E00081F1673078F4633019F1643030F461309F
:1016F000C9F0623009F03FC018C06430E1F06530D5
:10170000D1F51CC0693031F16A3028F46730E1F05E
:10171000683089F51CC06B3019F16B30F0F06C301B
:1017200051F524C086EA91E01DC08AEA91E01AC012
:101730008EEA91E017C082EB91E014C086EB91E055
:1017400011C08AEB91E00EC08EEB91E00BC082ECF1
:1017500091E008C086EC91E005C08AEC91E002C0FF
:101760008EEC91E0622F0E94541D089582ED91E06D
:10177000622F0E94541D08951F93182F862F642FE7
:10178000422F0E94A0168330B9F0843028F48130B3
:1017900069F0823070F407C08530A1F0853078F0B0
:1017A0008630C1F412C086ED91E011C08BED91E05E
:1017B0000EC080EE91E00BC085EE91E008C08AEE8D
:1017C00091E005C08FEE91E002C084EF91E0612FBF
:1017D0000E94541D1F910895EF92FF920F931F9343
:1017E000182F062FE42EF22E88E063E00E94BF201F
:1017F00089EF91E060E00E94541D8091F5048823F8
:1018000031F48FEF91E060E00E94541D18C0809188
:10181000F504813031F48FEF91E060E00E94541DB7
:101820002FC08091F5048230E9F480E260E00E94EC
:101830001C1D80E0612F402F2E2D0E94BC0B60E00C
:101840008BE0F81609F461E0812F0E94BA058FE25F
:1018500060E00E941C1D60E09CE0F91609F461E064
:10186000802F20C08091F504833001F580E260E094
:101870000E941C1D80E0612F402F2E2D0E94BC0B6A
:1018800060E08CE0F81609F461E0802F0E94BA0550
:101890008FE260E00E941C1D60E09BE0F91609F4F5
:1018A00061E0812F0E94BA058FE23EC08091F5046D
:1018B0008430F9F485E092E060E00E94541D80E0FD
:1018C0009BE0F91609F481E0612F0E946E0B80E223
:1018D00060E00E941C1D60E08CE0F81609F461E0F5
:1018E000802F0E94BA058CE260E00E941C1D80E2FD
:1018F0001BC080E0612F402F2E2D0E94BC0B80E08A
:101900009BE0F91609F481E0612F0E946E0B80E2E2
:1019100060E00E941C1D60E08CE0F81609F461E0B4
:10192000802F0E94BA058CE260E00E941C1D10E02E
:101930009DE0F91609F411E084E1612F0E94BA05D7
:101940008E2D612F0E94BA051F910F91FF90EF908D
:10195000089580918F048F5F80938F040E94C92027
:1019600080E060E00E94BF2089E092E060E00E9499
:10197000541D88E061E00E94BF208CE192E060E0AD
:101980000E94541D8091F60460E00E94610A8AE37F
:1019900060E00E941C1D8091ED0460E00E94BA0589
:1019A00088E062E00E94BF2089E292E060E00E944D
:1019B000541D8091E80460E00E94A60A8AE360E07A
:1019C0000E941C1D8091F20460E00E94BA058AE327
:1019D00060E00E941C1D8091FC0460E00E94BA053A
:1019E0008091EB04882371F480E260E00E941C1D6A
:1019F0008091E8048C3010F080E501C081E460E063
:101A00000E941C1D8091FB046091F1044091EC0444
:101A100090E070E050E025E030E00E94EC0B80E0C8
:101A200090E00E94DB0A88E065E00E94BF2084E32A
:101A300092E060E00E94541D80E066E00E94BF20BA
:101A400080E492E060E00E94541D80E067E00E9424
:101A5000BF2086E592E060E00E94541D80918F04D3
:101A6000815080938F040895BF92CF92DF92EF92BE
:101A7000FF920F931F93CF93DF931091E804D090C0
:101A8000F204F090FC040E94A90C80918F048F5FF7
:101A900080938F0480E063E147E00E948B0880918F
:101AA0008F04815080938F048AE080938E0403E03A
:101AB0008AE0B82EC8ECD0E08091910480FD6BC123
:101AC00080919104882321F480919204882319F055
:101AD000B0928E0407C080918E04882319F410926E
:101AE000F80459C18091910481FFDCC010929104E7
:101AF00080918F048F5F80938F04033081F584E49D
:101B000062E00E94BF20812F61E00E94A60A84E764
:101B100062E00E94BF208091EB04882361F480E2A0
:101B200060E00E941C1D1C3010F080E501C081E4C3
:101B300061E00E941C1D80E066E00E94BF2087E6F5
:101B400092E060E00E94541D80E067E00E94BF20A8
:101B50008DE792E060E00E94541D05E69EC00536C8
:101B6000C1F584E462E00E94BF20812F60E00E9402
:101B7000A60A8AE360E00E941C1D8D2D61E00E9490
:101B8000BA0580E066E00E94BF2083E992E060E051
:101B90000E94541D80E067E00E94BF2089EA92E025
:101BA00060E00E94541D84E762E00E94BF208091A3
:101BB000EB04882361F480E260E00E941C1D1C306D
:101BC00010F080E501C081E460E00E941C1D06E683
:101BD00064C0063651F58091EB04882311F486E544
:101BE00001C082E662E00E94BF208D2D60E00E946D
:101BF000BA058AE360E00E941C1D8F2D61E00E94FF
:101C0000BA0580E066E00E94BF208FEB92E060E0C2
:101C10000E94541D80E067E00E94BF2085ED92E0A5
:101C200060E00E94541D07E638C08091EB048823D1
:101C300011F488E601C084E762E00E94BF208F2D86
:101C400060E00E94BA0580E066E00E94BF2080E468
:101C500092E060E00E94541D80E067E00E94BF2097
:101C600086E592E060E00E94541D1093E804D09253
:101C7000F204F092FC048091FC046091F204409123
:101C8000E8040091F104E090FB04C090EC0420E033
:101C90000E94D1050E947E1403E080918F04815040
:101CA00080938F048091910482FD04C080919204FE
:101CB00082FF02CF1092910480918F048F5F8093F6
:101CC0008F04053649F5812F90E0019668E170E0B8
:101CD0000E94822A182F8093E80484E462E00E9424
:101CE000BF20812F61E00E94A60A84E762E00E9483
:101CF000BF208091EB048823E9F580E260E00E9438
:101D00001C1D8091E8048C3010F080E501C081E456
:101D100061E00E941C1D2EC00636A1F48D2D90E0BE
:101D200001966CE370E00E94822AD82E8091EB0429
:101D3000882311F486E501C082E662E00E94BF209C
:101D40008D2D15C00736B1F48F2D90E001966CE310
:101D500070E00E94822AF82E8091EB04882311F40F
:101D600088E601C084E762E00E94BF208F2D61E019
:101D70000E94BA0580918F04815080938F048091D6
:101D8000920482FF99CE80ED97E0FE013197F1F742
:101D90000197D9F791CEDF91CF911F910F91FF90CD
:101DA000EF90DF90CF90BF9008950F931F93CF9344
:101DB000DF930E94A90C80918F048F5F80938F0422
:101DC00080E06BE047E00E948B0880918F04815097
:101DD00080938F048AE080938E0414E00AE0C8ECBC
:101DE000D0E08091910480FDDBC080919104882334
:101DF00021F480919204882319F000938E0407C087
:101E000080918E04882319F41092F804C9C080913F
:101E1000910481FF74C01092910480918F048F5FB0
:101E200080938F041430C9F48091F60461E00E941D
:101E3000610A80E066E00E94BF2087E692E060E0F1
:101E40000E94541D80E067E00E94BF208DE792E071
:101E500060E00E94541D15E64DC0153631F580E551
:101E600061E00E94BF208091F60460E00E94610A58
:101E700082E661E00E94BF208091ED0461E00E9453
:101E8000BA0580E066E00E94BF2083E992E060E04E
:101E90000E94541D80E067E00E94BF2089EA92E022
:101EA00060E00E94541D16E625C080E561E00E94B6
:101EB000BF208091F60460E00E94610A82E661E042
:101EC0000E94BF208091ED0460E00E94BA0580E08E
:101ED00066E00E94BF2080E492E060E00E94541D12
:101EE00080E067E00E94BF2086E592E060E00E940B
:101EF000541D14E080918F04815080938F04809151
:101F0000910482FD04C08091920482FF6ACF1092F6
:101F1000910480918F048F5F80938F041536A1F414
:101F20008091F60490E0019668E170E00E94822AB8
:101F30008093F6048091F60461E00E94610A60914A
:101F4000F60481E090E019C01636C9F48091ED04E2
:101F500090E001966CE370E00E94822A8093ED0489
:101F600082E661E00E94BF208091ED0461E00E9462
:101F7000BA056091ED0482E090E00E94E22C80912D
:101F80008F04815080938F048091920482FF29CF27
:101F900080ED97E0FE013197F1F70197D9F721CF56
:101FA000DF91CF911F910F9108950F931F930E947E
:101FB000A90C80918F048F5F80938F0480E063E28F
:101FC00047E00E948B0880918F04815080938F049A
:101FD0008AE080938E0418E00AE08091910480FDED
:101FE000A8C080919104882321F4809192048823D1
:101FF00019F000938E0407C080918E04882319F491
:102000001092F80496C08091910481FF3BC0109219
:10201000910480918F048F5F80938F041830B9F4FE
:1020200081E00E94DB0A80E066E00E94BF208BEE28
:1020300092E060E00E94541D80E067E00E94BF20B3
:1020400081E093E060E00E94541D18E616C080E035
:102050000E94DB0A80E066E00E94BF2080E492E0FC
:1020600060E00E94541D80E067E00E94BF2087E18D
:1020700093E060E00E94541D18E080918F0481502D
:1020800080938F048091910482FD04C0809192041A
:1020900082FFA3CF10929104183609F09ECF809151
:1020A000EB04882359F08091F5048F5F8093F50449
:1020B0008091F504863010F01092F5048091EB04C5
:1020C00090E0882309F491E09093EB0480918F04D1
:1020D0008F5F80938F040E94A90C80E066E00E94CD
:1020E000BF208BEE92E060E00E94541D80E067E02C
:1020F0000E94BF2081E093E060E00E94541D80E0D8
:1021000063E247E00E948B0881E00E94DB0A809135
:102110008F04815080938F046091F50485E090E0F6
:102120000E94E22C6091EB0486E090E00E94E22C99
:1021300054CF1F910F9108951F930E94A90C809175
:102140008F048F5F80938F0480E066E00E94BF2041
:102150008DE293E060E00E94541D80E06BE247E076
:102160000E948B0880918F04815080938F048AE0B5
:1021700080938E041AE08091910480FD41C080918B
:102180009104882321F480919204882319F01093FC
:102190008E0407C080918E04882319F41092F804ED
:1021A0002FC08091910481FF20C0109291040E9461
:1021B00006240E94A90C80918F048F5F80938F0466
:1021C00080E066E00E94BF208DE293E060E00E9424
:1021D000541D80E06BE247E00E948B0880918F04E1
:1021E000815080938F0410938E048091910482FD1E
:1021F00004C08091920482FFBECF10929104BBCFA5
:102200001F910895BF92CF92DF92EF92FF920F93AA
:102210001F93CF93DF93F090F1041091FB04D090C3
:10222000EC040E94A90C80918F048F5F80938F042F
:1022300080E06BE147E00E948B0880918F04815021
:1022400080938F048AE080938E0405E04AE0B42EE8
:10225000C8ECD0E08091910480FD89C18091910407
:10226000882321F480919204882319F0B0928E047F
:1022700007C080918E04882319F41092F80477C166
:102280008091910481FFE1C01092910480918F04AC
:102290008F5F80938F040530F1F48091F5048823DB
:1022A00009F451C08091F504823009F44CC080914A
:1022B000F504843009F447C08091F504853009F4B1
:1022C00042C08091F5048130C9F08091F5048330DB
:1022D00009F086C013C00B3059F58091F5048823AE
:1022E00069F08091F504823049F08091F5048430E2
:1022F00029F08091F504853009F050C0812F6F2DB1
:102300004D2D2CE00E94EC0B80E066E00E94BF2087
:102310008FE693E060E00E94541D80E067E00E9439
:10232000BF2085E893E060E00E94541D0CE088C067
:102330000C3009F055C08091F504813021F0809176
:10234000F5048330D1F4812F6F2D4D2D2BE00E94A9
:10235000EC0B80E066E00E94BF2083E493E060E045
:102360000E94541D80E067E00E94BF2089E593E051
:1023700060E00E94541D0BE063C08091F504882347
:10238000A9F08091F504823089F08091F5048430C1
:1023900069F08091F504853019F508C08091F50445
:1023A000813021F08091F5048330D1F4812F6F2D9D
:1023B0004D2D2DE00E94EC0B80E066E00E94BF20D6
:1023C0008BE993E060E00E94541D80E067E00E948A
:1023D000BF2081EB93E060E00E94541D0DE030C00F
:1023E000812F6F2D4D2D25E00E94EC0B80E066E0E3
:1023F0000E94BF2080E492E060E00E94541D80E0D3
:1024000067E00E94BF2086E592E060E00E94541DD4
:10241000D092EC041093FB04F092F1048091FC0440
:102420006091F2044091E8040091F104E090FB0413
:10243000C090EC0420E00E94D1050E947E1405E0CB
:1024400080918F04815080938F048091910482FD4C
:1024500004C08091920482FFFDCE1092910480917D
:102460008F048F5F80938F040B3089F51F5F1D30C1
:1024700010F011E027C01230C1F48D2D90E00E94C1
:102480005705882331F08DE18F1518F43DE1F32EC7
:1024900019C08D2D90E00E945705882399F48CE196
:1024A0008F1580F42CE1F22E0DC0143031F016306F
:1024B00021F0193011F01B3029F48EE18F1510F442
:1024C0009EE1F92E812F6F2D4D2D2BE03DC00C305C
:1024D00069F5F3948FE18F1510F4FF24F394123013
:1024E00099F48D2D90E00E945705882319F08DE115
:1024F0008F15A8F08D2D90E00E945705882389F450
:102500008CE18F1560F00DC0143031F0163021F0E1
:10251000193011F01B3029F48FE1F81611F4FF2463
:10252000F394812F6F2D4D2D2CE00EC00D3071F4E2
:102530008D2D90E0019664E670E00E94822AD82EEC
:10254000812F6F2D4D2D2DE00E94EC0B80918F047B
:10255000815080938F048091920482FF7BCE80ED26
:1025600097E0FE013197F1F70197D9F773CEDF912C
:10257000CF911F910F91FF90EF90DF90CF90BF9080
:10258000089526982E9A81E080936800EBE6F0E0AB
:1025900080818064808382E080937C0010927B0045
:1025A000EAE7F0E08EE8808380818064808308958C
:1025B00080917A00877F80937A0080917A0080648E
:1025C00080937A0080917A0084FFFCCF209178007C
:1025D00030917900C90108951F920F920FB60F92A2
:1025E00011242F933F934F935F936F937F938F9318
:1025F0009F93AF93BF93EF93FF937894809178006C
:102600009091790022E0803E920728F01092920487
:102610001092900473C022E08336920798F1809163
:10262000900482FD6BC080E29EE40197F1F70E9466
:10263000D812825692408E37910508F05FC082E032
:102640008093930412C00E94D812825692408E3713
:10265000910558F0809190048B7F80939004809135
:10266000910484608093910449C0809193048823ED
:1026700051F780919004846080939004809192043B
:1026800084603AC08F509140E8F08091900481FDC1
:1026900010C080E29EE40197F1F70E94D8128E509C
:1026A00091408555914050F58091910482608093CE
:1026B00091048091900482608093900480919204B0
:1026C00082601AC08091900480FD0EC080E29EE47A
:1026D0000197F1F70E94D8128F50914078F48091C1
:1026E0009104816080939104809190048160809333
:1026F00090048091920481608093920480917A008A
:10270000886480937A00FF91EF91BF91AF919F9180
:102710008F917F916F915F914F913F912F910F908A
:102720000FBE0F901F9018951F920F920FB60F9229
:1027300011242F933F934F935F936F937F938F93C6
:102740009F93AF93BF93EF93FF9378940E948E056E
:10275000FF91EF91BF91AF919F918F917F916F9179
:102760005F914F913F912F910F900FBE0F901F904F
:1027700018952F923F924F925F926F927F928F9215
:102780009F92AF92BF92CF92DF92EF92FF920F9300
:102790001F93209096043090970440909804509096
:1027A000990460909A0470909B0480909C0490908F
:1027B0009D04AA24BB246501F501E370F070EE0FBF
:1027C000FF1FEE0FFF1FE85EFA4FE080F1800281ED
:1027D0001381EA0CFB1C0C1D1D1DD401C30175E007
:1027E000B695A795979587957A95D1F7A40193010A
:1027F00064E0220F331F441F551F6A95D1F78227CB
:102800009327A427B527860D971DA81DB91DE82677
:10281000F9260A271B272E0C3F1C401E511E89EB50
:1028200099E7A7E3BEE9A80EB91ECA1EDB1EA201E6
:102830009101F5E05695479537952795FA95D1F78B
:10284000D201C101E4E0880F991FAA1FBB1FEA95BE
:10285000D1F7282739274A275B27220D331D441D2E
:10286000551DD601C5017BE0B695A795979587952F
:102870007A95D1F783709070880F991F880F991FF0
:10288000885E9A4FFC0180819181A281B3818A0D7B
:102890009B1DAC1DBD1D282739274A275B27620ECB
:1028A000731E841E951EF0E2AF16F7E3BF06FFEE1F
:1028B000CF06F6ECDF0609F07FCF20929604309227
:1028C0009704409298045092990460929A047092EE
:1028D0009B0480929C0490929D041F910F91FF9005
:1028E000EF90DF90CF90BF90AF909F908F907F90B0
:1028F0006F905F904F903F902F900895EF92FF92CE
:102900000F931F938EE691E7A9EEBDE28093180521
:1029100090931905A0931A05B0931B0581ED9DEDC9
:10292000AFE3B9E980931C0590931D05A0931E05A4
:10293000B0931F0587E59BEFA7E7BAE280932005D8
:1029400090932105A0932205B093230580EB96EE8A
:10295000A2E7B1EB8093240590932505A09326056B
:10296000B093270510929604109297041092980441
:102970001092990410929A0410929B0410929C0455
:1029800010929D040E94B913E090F604FF2400E029
:1029900010E0102F0F2DFE2CEE248091E80490E023
:1029A000A0E0B0E0E82AF92A0A2B1B2B102F0F2DEC
:1029B000FE2CEE248091F20490E0A0E0B0E0E82A42
:1029C000F92A0A2B1B2B102F0F2DFE2CEE248091A1
:1029D000FC0490E0A0E0B0E0E82AF92A0A2B1B2BC7
:1029E00080919A0490919B04A0919C04B0919D04C5
:1029F000880F991FAA1FBB1F209118053091190538
:102A000040911A0550911B0582279327A427B527CB
:102A10008093180590931905A0931A05B0931B0590
:102A20000E94B913D801C701880F991FAA1FBB1FA5
:102A300020911C0530911D0540911E0550911F05E8
:102A400082279327A427B52780931C0590931D0503
:102A5000A0931E05B0931F050E94B9131695079504
:102A6000F794E7948091200590912105A09122058B
:102A7000B0912305E826F9260A271B27E0922005B6
:102A8000F092210500932205109323050E94B913AB
:102A900080919A0490919B04A0919C04B0919D0414
:102AA000B695A79597958795209124053091250592
:102AB000409126055091270582279327A427B52703
:102AC0008093240590932505A0932605B0932705B0
:102AD0000E94B913E090ED04FF2400E010E0102FF5
:102AE0000F2DFE2CEE248091FB0490E0A0E0B0E0DE
:102AF000E82AF92A0A2B1B2B102F0F2DFE2CEE246F
:102B00008091F10490E0A0E0B0E0E82AF92A0A2BD5
:102B10001B2B102F0F2DFE2CEE248091EC0490E047
:102B2000A0E0B0E0E82AF92A0A2B1B2BD801C70144
:102B3000880F991FAA1FBB1F2091180530911905F6
:102B400040911A0550911B0582279327A427B5278A
:102B50008093180590931905A0931A05B0931B054F
:102B60000E94B9138091960490919704A0919804C3
:102B7000B0919904880F991FAA1FBB1F20911C05B3
:102B800030911D0540911E0550911F058227932706
:102B9000A427B52780931C0590931D05A0931E05BF
:102BA000B0931F050E94B9138091960490919704E9
:102BB000A0919804B0919904B695A795979587959B
:102BC0002091200530912105409122055091230547
:102BD00082279327A427B52780932005909321056A
:102BE000A0932205B09323050E94B913169507956B
:102BF000F794E7948091240590912505A0912605EE
:102C0000B0912705E826F9260A271B27E09224051C
:102C1000F09225050093260510932705109296043F
:102C200010929704109298041092990410929A04AA
:102C300010929B0410929C0410929D040E94B91360
:102C40001F910F91FF90EF900895982F815082303F
:102C500078F0A8950E94B91320919A0430919B04B2
:102C60008091960490919704282739273F7743C095
:102C70009130F9F480919A0490919B04A0919C0466
:102C8000B0919D042091960430919704409198044E
:102C90005091990482279327A427B527EFE0B69592
:102CA000A79597958795EA95D1F79C012370307089
:102CB00022C09230F9F480919A0490919B04A091E3
:102CC0009C04B0919D04209196043091970440910A
:102CD00098045091990482279327A427B52771E17E
:102CE000B695A795979587957A95D1F79C01217010
:102CF000307001C00895C9010895909186048091B3
:102D0000E904981739F081E0809394048091860457
:102D10008093E90480918604813059F0813030F04D
:102D2000833051F0843059F481E003C010922805BB
:102D3000089580932805089581E0809328050895DB
:102D4000CF93DF93C82FD0E0E42FF0E0E053F84FAB
:102D5000833010F42C963197262F30E02F5F3F4FB1
:102D60002E0F3F1FCE01880F991F280F391FCF014B
:102D70009695879596958795280F391FCF0160E91D
:102D800071E00E946E2A260F371FCF0164E670E0C3
:102D90000E946E2A261B370BAE014F5F5F4FCA01A0
:102DA000880F991F840F951F880F991F6AE070E0A4
:102DB0000E946E2AC901860F971F67E070E00E948B
:102DC0006E2ADF91CF91089590E08496AA2797FD0F
:102DD000A095BA2FBC01CD010E9464282BED3FE0E5
:102DE00049E45DE30E946B290E94CE2920E030E097
:102DF00040EA51E40E946B290E949F2820E030E0C5
:102E000048ED51E40E94CE270E943628DC01CB0118
:102E100008950F931F93482F062F603280F4E82FF8
:102E2000F0E063E0EE0FFF1F6A95E1F7EA57FF4F0E
:102E300085919591A591B49120E230E015C0862F3F
:102E40008052863110F010E01AC0E42FF0E053E019
:102E5000EE0FFF1F5A95E1F7E657FF4F85919591C9
:102E6000A591B49120E430E0201B310904C0B6954F
:102E7000A795979587952A95D2F7182F1170842FCB
:102E80000E94E416282F112321F480E090E02017FF
:102E900011F481E090E01F910F9108952F923F92DD
:102EA0004F925F926F927F928F929F92AF92BF925A
:102EB000CF92DF92EF92FF920F931F93DF93CF9306
:102EC00000D000D0CDB7DEB7182F80E060E040E83A
:102ED00026E3012F0E94651DF6E8CF2EF0E0DF2EDD
:102EE000EE24FF24F6012590359045905490F6018C
:102EF00034966590759085909490C70196958795C6
:102F00008A831C821B828B81898370E2A72EB12C5D
:102F1000EB81FC81AE1ABF0AD201C1010A2C04C0A8
:102F2000B695A795979587950A94D2F7817090707A
:102F3000892B51F000E0112309F401E08A816981B5
:102F400041E021E00E94651DD401C30104C0B69593
:102F5000A79597958795AA94D2F781709070892B41
:102F600079F08B819C8147975CF46981615E00E018
:102F7000112309F401E08A8141E021E00E94651DEE
:102F8000EB81FC813196FC83EB83B09709F0BBCFDA
:102F900082E090E0E80EF91EE8E0F0E0CE0EDF1EE1
:102FA000F0E0EF16F1E0FF0609F09CCFFF241123BB
:102FB00011F4FF24F39480E060E040E821E00F2D5D
:102FC0000E94651D10E0812F0E94E416682F812F5A
:102FD00041E021E00F2D0E94651D1F5F103899F719
:102FE0000F900F900F900F90CF91DF911F910F9145
:102FF000FF90EF90DF90CF90BF90AF909F908F9019
:103000007F906F905F904F903F902F900895BF9268
:10301000CF92DF92EF92FF920F931F93CF93DF93A4
:10302000C82E80912805882309F446C080912C057C
:10303000882309F041C08EE066E044E62CE20C2DC6
:103040000E94651D8EE066E044E62CE20E94551E5B
:1030500080E168E040E628E20E94551E81E080930E
:103060002C0580918604813039F501E015E0F801E6
:1030700001900020E9F73197E01BF10B9F01220F2F
:10308000331F2E0F3F1F220F331F80E690E0821B5D
:10309000930B969587958E5E62E00E94BF20C801D3
:1030A0006C2D0E94541D84E264E00E94BF208CE0DD
:1030B00095E06C2D0E94541D80912805882309F409
:1030C0006EC080912C05882309F469C08091860424
:1030D000833009F064C08091FC0480FF07C083E363
:1030E00062E00E94BF2087EC93E006C083E362E0C9
:1030F0000E94BF208DEC93E06C2D0E94541D81E353
:1031000064E00E94BF200091F6048091EB048823C4
:1031100049F48091F6048D3028F00091F6040C50AB
:1031200011E001C010E00A3030F48091EB048823F4
:1031300011F480E205C0802F6AE00E94622A805D5F
:103140006C2D0E941C1D802F6AE00E94622A892F2C
:10315000805D6C2D0E941C1D8AE36C2D0E941C1D3D
:103160008091ED046AE00E94622A805D6C2D0E94CD
:103170001C1D8091ED046AE00E94622A892F805D07
:103180006C2D0E941C1D8091EB04882341F41123B7
:1031900011F080E501C081E46C2D0E941C1D80911E
:1031A0002805882371F480912C05882351F08C2DFB
:1031B0000E944E1710922C0581E080939404809316
:1031C000950480919504882309F47EC080912C0594
:1031D000882339F080912E058D3018F0823708F45D
:1031E00073C01092950480910B050E94E416FF2491
:1031F0009CEFD92ED80E28C080910B0581508F0DE1
:10320000612F0E94091790910B05882359F0892F8F
:1032100081508F0D00E0CC2009F401E0612F41E0E6
:1032200021E007C09150892F8F0D612F41E021E0EF
:103230000C2D0E94651DE3941F5F88E0E816E1F6FF
:10324000F394E5E0FE1619F01D2DEE24D5CF809104
:103250002E050E94E4160EEEE02E03E0F02EDD2493
:103260001CEFB12EB80E2CC0F701808190E00C2E1F
:1032700002C0959587950A94E2F790912E0580FFFC
:103280000BC0892F81508D0D00E0CC2009F401E0A6
:10329000612F41E021E007C09150892F8D0D612FF2
:1032A00041E021E00C2D0E94651D21971F5FCC237A
:1032B000D9F6D3940894E11CF11CF5E0DF1621F057
:1032C0001B2DC8E0D0E0D0CF80919404882309F46E
:1032D00078C01092940483E167E34DE629E00C2D59
:1032E0000E94651D8091F404882359F1B7EEEB2EFE
:1032F000B3E0FB2EABE2DA2E20C0F701808190E034
:103300000C2E02C0959587950A94E2F780FF0AC0BB
:1033100000E0CC2009F401E08D2D612F41E021E097
:103320000E94651D21971F5F1F3339F70894E11C28
:10333000F11CD394F2E3DF1621F0C7E0D0E018E3EC
:10334000DCCF8BE567E00E94BF208091FF048A30CC
:1033500010F480E204C06AE00E94622A805D6C2D55
:103360000E941C1D8091FF046AE00E94622A892F3E
:10337000805D6C2D0E941C1D8AE36C2D0E941C1D1B
:103380008091F2046AE00E94622A805D6C2D0E94A6
:103390001C1D8091F2046AE00E94622A892F805DE0
:1033A0006C2D0E941C1D8091EB04882351F48091A8
:1033B0002D05882311F080E501C081E46C2D0E9469
:1033C0001C1D87E667E00E94BF20809129058823A5
:1033D00011F08AE301C080E26C2D0E941C1DDF9178
:1033E000CF911F910F91FF90EF90DF90CF90BF9002
:1033F00008950F931F93182F80E060E040E820E4C9
:10340000012F0E94651D812F0E944E1780E066E308
:1034100040E82AE00E94651D00E0112309F401E064
:1034200080E066E340E821E00E94651D81E067E0FE
:103430000E94BF2083ED93E0612F0E94541D81E024
:10344000809394048091E8046091F2040E94C82360
:103450001F910F91089580918304882351F48091E6
:103460008404882331F49091EB0480912A05981705
:1034700069F191E090939404109283041092840473
:103480008091EB048823D1F48091E8048D3040F0E2
:103490008091E8048C508093FF0490932D0512C016
:1034A0008091E8048093FF048091E804882319F454
:1034B0008CE08093FF0410922D0504C08091E804F5
:1034C0008093FF048091EB0480932A058091FC0493
:1034D00090911705891731F18091FC04891720F428
:1034E0008091FC04855C02C08091FC04891B8531BD
:1034F00098F080912E0580930B058F5F80932E05A9
:103500008D3718F083E080932E058091FC04809322
:10351000170581E0809395048091E8046091F2049E
:103520000E94C8239091F40480912B05891739F0EB
:1035300081E0809394048091F40480932B05809122
:103540002805882309F44EC080912C05882309F0B2
:1035500049C08091F504882321F08091F5048230E0
:10356000B1F42091FB043091F1044091EC048DB74B
:103570009EB70A970FB6F8949EBF0FBE8DBFEDB7EA
:10358000FEB731968CE095E0ADB7BEB713C0209181
:10359000F1043091FB044091EC04ADB7BEB71A972B
:1035A0000FB6F894BEBF0FBEADBFEDB7FEB73196F4
:1035B0008CE095E012969C938E93119787ED93E0A3
:1035C00093838283248315823683178240871186F2
:1035D0000E94D92A8DB79EB70A960FB6F8949EBF5F
:1035E0000FBE8DBF8091FC0480FF04C081E08093FA
:1035F000290508951092290508958091EB048823E8
:10360000D9F48091E8048D3048F08091E8048C5022
:103610008093FF0481E080932D0512C08091E8041F
:103620008093FF048091E804882319F48CE0809350
:10363000FF0410922D0504C08091E8048093FF04DC
:103640008091FB046091F1044091EC040E94A0166B
:103650008093FE048093000521E030E0281B3109AF
:10366000220F331FEE27FF27E21BF30BE154FB4F22
:103670006591749181E095E00E94D22A10922C0508
:10368000109228058091F40480932B058091860484
:103690008093E9048091EB0480932A0583E0809372
:1036A0000B0580932E058091FC048093170585E01F
:1036B0008093950408959093C5008093C40088E199
:1036C0008093C1008EE08093C200519A5098089573
:1036D00006C090E000009F5F9E31E1F78150882393
:1036E000C1F7089548EC50E009C020E137E2FA0143
:1036F0003197F1F721503040D1F781508823A9F755
:103700000895982F8091C00085FFFCCF9093C6004C
:1037100080E090E008958091C00087FFFCCF809109
:10372000C60008958091C00080780895AC0120E023
:1037300007C08091C00085FFFCCF3093C6002F5F8B
:10374000FA01E20FF11D3491332399F7662371F0EA
:103750008091C00085FFFCCF8AE08093C6008091F5
:10376000C00085FFFCCF8DE08093C6000895FC016A
:1037700007C08091C00085FFFCCF31969093C600B2
:1037800090819923B1F70895282F982F92959F70D3
:103790009A3030F48091C00085FFFCCF905D05C069
:1037A0008091C00085FFFCCF995A9093C600822F6C
:1037B00090E08F7090700A973CF48091C00085FF74
:1037C000FCCF2F70205D06C08091C00085FFFCCF2C
:1037D0002F70295A2093C60008951F93182F892F00
:1037E0000E94C41B812F0E94C41B1F910895EF9259
:1037F000FF920F931F937B018C01C801AA27BB275F
:103800000E94ED1BC7010E94ED1B1F910F91FF90BD
:10381000EF9008950F931F93CF93DF938C01E0E116
:10382000F7E240E0C0E0D0E0C801BF010E946E2A8C
:10383000262F662329F4442319F4E130F10549F4D5
:103840008091C00085FFFCCF205D2093C6002053EF
:1038500041E0CF016AE070E00E946E2A2196C530F7
:10386000D10571F0822F90E09C012E9FC0012F9F07
:10387000900D3E9F900D1124081B190BFB01D4CF16
:10388000DF91CF911F910F9108951F93CF93DF93F5
:10389000482F87FF08C08091C00085FFFCCF8DE2D4
:1038A0008093C6004195E4E6F0E010E0C0E0D0E08F
:1038B000842F992787FD9095BF010E946E2A262F9D
:1038C00016162CF0112319F4E130F10549F480911A
:1038D000C00085FFFCCF205D2093C600205311E07F
:1038E000CF016AE070E00E946E2A2196C330D105B4
:1038F00031F02E9F802D1124481BFB01D9CFDF9181
:10390000CF911F9108954F925F926F927F928F9205
:103910009F92AF92BF92CF92DF92EF92FF920F935E
:103920001F93CF93DF934B015C01E12C9AECF92EAE
:103930009AE9092F9BE3192F4424C0E0D0E0C50188
:10394000B401A80197010E94952AD22E222341F4A6
:10395000442031F481E0E816F1040105110561F419
:103960008091C00085FFFCCF80E3D80ED092C600C6
:1039700080EDD80E44244394C801B7012AE030E01A
:1039800040E050E00E94952AC22E732E642E552EE0
:103990002196CA30D105A9F06D2D70E080E090E04D
:1039A000A80197010E94432A861A970AA80AB90A11
:1039B0002C2D372D462D552DC901DA017C018D01A5
:1039C000BECFDF91CF911F910F91FF90EF90DF90CD
:1039D000CF90BF90AF909F908F907F906F905F90AF
:1039E0004F90089508950F931F93CF93DF93482F1F
:1039F00030E020E007C0855C9A4FFC0184918F5F26
:103A0000280F3F5F822F90E03417A8F3FC01E55C9C
:103A1000FA4F0491EC01C45CDA4F10E006C0FE01DD
:103A200084910E9466201F5F21961017C0F3DF91DA
:103A3000CF911F910F910895DF92EF92FF920F9314
:103A40001F93CF93DF93D62E95E0899FC001112459
:103A5000EC01C255DB4F8E0123EBE22E24E0F22E67
:103A6000E80EF91EDD2021F0FE018491809502C050
:103A7000F80184910E94662021960F5F1F4FCE159A
:103A8000DF0581F7DD2011F08FEF01C080E00E949B
:103A9000662080E00E94B220DF91CF911F910F91AC
:103AA000FF90EF90DF9008951F93CF93DF93EC0189
:103AB000162F04C0612F0E941C1D21968881882327
:103AC000C9F7DF91CF911F9108952F923F924F92A6
:103AD0005F926F927F928F929F92AF92BF92CF929E
:103AE000DF92EF92FF920F931F93CF93DF93282ED5
:103AF000162F342EF22E402EC62FD0E0C770D07075
:103B0000209709F45BC0562E569456945694EE2492
:103B100067E0C62EC1228C2C992487FC90945E010C
:103B2000A20EB11C51E0652E712C35C0DE2CD20CDA
:103B30008D2D652D0E94BF200E9419200E94192002
:103B4000082F40E050E015C081E0481641F4C30161
:103B500002C0880F991F2A95E2F7082B08C0C301FD
:103B600002C0880F991F2A95E2F7809508234F5FBE
:103B70005F4F9A01280D391D2A153B0524F48C2D21
:103B8000840F883009F78D2D652D0E94BF20802F6E
:103B90000E946620E394E31448F22F2D30E088E081
:103BA00090E08C1B9D0B8217930714F0FF2404C038
:103BB000812F87708850F80E187F185FE12EE694E9
:103BC000E694E694C12FD0E0CF0DD11D43E0D5950A
:103BD000C7954A95E1F712C0822D6E2D0E94BF2035
:103BE00010E009C081E0481611F48FEF01C080E0B9
:103BF0000E9466201F5F1315A8F3E3948E2D90E0BA
:103C00008C179D074CF32F2D2770C9F100E0C22FB0
:103C1000D0E031E0A32EB12C30C0F02EF20C8F2D6D
:103C20006E2D0E94BF200E9419200E941920182F7B
:103C300020E030E017C081E0481649F4C501022EAB
:103C400002C0880F991F0A94E2F7182B09C0C5011A
:103C5000022E02C0880F991F0A94E2F7809518235C
:103C60002F5F3F4F2C173D0734F38F2D6E2D0E9491
:103C7000BF20812F0E9466200F5F031570F280E045
:103C80000E94B220DF91CF911F910F91FF90EF9092
:103C9000DF90CF90BF90AF909F908F907F906F906C
:103CA0005F904F903F902F900895DF92EF92FF9298
:103CB0000F931F93F82E162FD42EE22E41E001E031
:103CC0000E94651D8F2D81508D0D612F41E02E2D9D
:103CD0000E94651D8F2D612F4D2D21E00E94651DD5
:103CE00011501E0D8F2D612F4D2D21E00E94651D5D
:103CF0001F910F91FF90EF90DF900895EF92FF9248
:103D00000F931F93F82E162F062F069506950695EE
:103D1000602F0E94BF200E9419200E941920E82EC7
:103D20008F2D602F0E94BF20177081E090E002C0AD
:103D3000880F991F1A95E2F780958E210E946620C0
:103D400080E00E94B2201F910F91FF90EF900895A4
:103D5000EF92FF920F931F93F82E162F062F0695C2
:103D600006950695602F0E94BF200E9419200E9490
:103D70001920E82E8F2D602F0E94BF20177081E040
:103D800090E002C0880F991F1A95E2F78E290E94D1
:103D9000662080E00E94B2201F910F91FF90EF906B
:103DA00008953F924F925F926F927F928F929F926F
:103DB000AF92BF92CF92DF92EF92FF920F931F9339
:103DC000CF93DF93D82EC62E322E462E481AE42EDD
:103DD000FF24C701880F991FCC27DD27C81BD90BEB
:103DE00023965D2C662E762EAA24BB248824992443
:103DF00081E0381641F50E2D0C0D8D2D602F0E949F
:103E0000A81E9C2D9E19192F8D2D692F0E94A81E6A
:103E1000852D602F0E94A81E852D612F0E94A81E4F
:103E20000419802F662D0E94A81E802F672D0E94E6
:103E3000A81E1419812F662D0E94A81E812F672DA0
:103E40000E94A81E27C00E2D0C0D8D2D602F0E94E4
:103E50007E1E8C2D8E19182F8D2D612F0E947E1E97
:103E6000852D602F0E947E1E852D612F0E947E1E53
:103E70000419802F662D0E947E1E802F672D0E94C0
:103E80007E1E1419812F662D0E947E1E812F672DA4
:103E90000E947E1ED7FF04C02696C80DD91D0DC0F6
:103EA0002A96C5018E199F09880F991F880F991F9F
:103EB000C80FD91F0894E108F1080894A11CB11C8F
:103EC00084E090E0880E991ED3945A9463947A9477
:103ED000EA14FB040CF08CCFDF91CF911F910F916E
:103EE000FF90EF90DF90CF90BF90AF909F908F901A
:103EF0007F906F905F904F903F9008952F982D98EE
:103F00002C9840985A98279A259A249A389A529A27
:103F10008BB18F708BB985B1807F85B98AB1806F85
:103F20008AB984B18F6084B9089540985A988823DB
:103F300019F0813021F402C0409A08955A9A0895E8
:103F4000F8940E94951F8BB1806F8BB985B18F60FB
:103F500085B92F988AB18F708AB984B1807F84B96E
:103F60002D9A2C9A000000000AC02C980000000036
:103F7000000000002C9A000000000000000089B141
:103F800093B187FDF2CF2C982D988AB1806F8AB9B2
:103F900084B18F6084B9789408951F93162FF89494
:103FA0000E94A01F2F982D982C9A8AB1806F8AB9F1
:103FB00084B18F6084B98BB18F708BB99BB1812F25
:103FC000807F892B8BB985B1807F85B985B11F70C2
:103FD000812B85B9000000000000000000000000F7
:103FE000000000002C9878941F910895F8940E9486
:103FF000A01F2F988AB18F708AB984B1807F84B94D
:104000002D9A2C9A00000000000000000000000023
:104010000000000029B183B12C982D989AB1906FBF
:104020009AB994B19F6094B978948F70207F822B55
:104030000895F89480912F058295869586958370D2
:104040000E94A01F2F9A8AB18F708AB984B1807F95
:1040500084B92D9A2C9A0000000000000000000096
:1040600000000000000099B183B12C982D9878943D
:104070008F70907F892B0895089580932F0580E09D
:1040800060E40E94CD1F1092310581E060E40E943F
:10409000CD1F1092330580912F05682F6F736064D8
:1040A00082958695869583700E94CD1F08951F93F3
:1040B000182F80933005186B80E0612F0E94CD1F70
:1040C00081E0612F0E94CD1F1F9108950F931F93D0
:1040D000182F00912F050295069506950370F89408
:1040E000802F0E94A01F2F9A2D982C9A8AB1806F42
:1040F0008AB984B18F6084B98BB18F708BB99BB151
:10410000812F807F892B8BB985B1807F85B985B15F
:104110001F70812B85B90000000000000000000026
:104120000000000000002C987894E02FF0E0EE0FE3
:10413000FF1FEF5CFA4F80818F5F808380912F0596
:104140008F5F80932F0587FF0AC0809130058F5FB6
:10415000809330050E94572080E00E943D201F91EF
:104160000F9108951F93182F106C80E0612F0E940B
:10417000CD1F81E0612F0E94CD1F1F9108951F93D5
:10418000182F862F0E945720812F0E943D201F91BB
:1041900008950F931F9300E080E0602F0E94BF20DE
:1041A00010E080E00E9466201F5F1038D1F70F5F9B
:1041B000083091F71F910F91089580E00E94B2207E
:1041C00080E060E00E94BF2010923105109232051D
:1041D000109233051092340508950E947E1F80E0EE
:1041E0006FE30E94CD1F81E06FE30E94CD1F0E940C
:1041F000C9200E94DD200895982F86E0689F802DB9
:104200001124692F0E94BF2008950895459A449A69
:104210001092E5041092E4041092E7041092E60470
:1042200080E28093B800ECEBF0E0808184608083D2
:1042300010929E048081816080838081806480836D
:104240007894089580E28093B800089590E0611119
:1042500091E08E7F982B9093BA0008959093E50497
:104260008093E40408959093E7048093E60408950E
:10427000ECEBF0E080818F70806A80830895ECEB36
:10428000F0E080818F70806D808308958091BC0004
:1042900087FFFCCF08958093BB00ECEBF0E08081BA
:1042A0008F70806880830895882329F08091BC00F6
:1042B0008F70806C04C08091BC008F708068809388
:1042C000BC0008958091BB0008958091B9000895C5
:1042D000982F80919E048823E1F782E080939E04CA
:1042E0009E7F90939F04A0EAB4E0FA0102C08191FE
:1042F0008D938E2F841B8617D0F31092C004609389
:10430000C1048091BC008F70806A8093BC000895C6
:10431000982F80919E048823E1F783E080939E0488
:10432000916090939F041092E2046093E304809163
:10433000BC008F70806A8093BC0080919E048823AB
:10434000E1F7A2ECB4E0FA0102C08D9181938E2FC7
:10435000841B8617D0F30895982FFA018091BC0032
:104360008E7F8093BC008091BC008F70806A8093A8
:10437000BC008091BC0087FFFCCF9E7F9093BB0068
:104380008091BC008F7080688093BC008091BC00DD
:1043900087FFFCCF8091B900883189F091E012C08D
:1043A00080818093BB008091BC008F708068809377
:1043B000BC008091BC0087FFFCCF31966150662322
:1043C00079F790E08091BC008F70806D8093BC0085
:1043D0008091BC0084FFFCCF8091BC008160809301
:1043E000BC00892F08951F93CF93DF93982F162F2A
:1043F000EA018091BC008E7F8093BC008091BC005C
:104400008F70806A8093BC008091BC0087FFFCCFD6
:1044100091609093BB008091BC008F708068809306
:10442000BC008091BC0087FFFCCF8091B900803434
:1044300069F091E018C08FEF0E9454218091BC0078
:1044400087FFFCCF8091BB0089931150123098F701
:1044500080E00E9454218091BC0087FFFCCF8091B6
:10446000BB00888390E08091BC008F70806D80934A
:10447000BC008091BC0081608093BC00892FDF91DB
:10448000CF911F91089580919E0408951F920F92DD
:104490000FB60F9211242F933F934F935F936F9317
:1044A0007F938F939F93AF93BF93EF93FF938091ED
:1044B000B900887F883609F4CBC0893688F5803307
:1044C00009F495C08133B0F4803109F45AC08131C8
:1044D00038F4882309F43EC1883009F048C151C03E
:1044E000803209F484C0883209F453C0883109F05D
:1044F0003EC14FC0883409F47AC0893438F4883317
:1045000009F478C0803409F032C192C0883509F4CA
:104510005DC0803609F49CC0803509F028C174C0A4
:10452000803A09F4BEC0813AB0F4803809F49BC0E7
:10453000813838F4803709F48BC0883709F017C107
:1045400087C0803909F48FC0883909F4A1C0883840
:1045500009F00DC19DC0883B09F4D1C0893B38F4F6
:10456000883A09F4B6C0803B09F001C1B2C0883C6A
:1045700009F4E0C0883F09F4E7C0803C09F0F7C0C7
:10458000D9C08BE798E060E00E94961B80919F0461
:1045900014C08CE598E060E00E94961B9091C004E6
:1045A0008091C104981708F0DAC0E92FF0E0E056D6
:1045B000FB4F80819F5F9093C0048093BB008091EC
:1045C000BC008F7080688093BC00D1C087E498E005
:1045D00060E00E94961B8091E2049091BB00E82F5E
:1045E000F0E0EE53FB4F90838F5F8093E20481E213
:1045F00098E0B2C08DE098E060E00E94961B809148
:10460000BC008F708068AFC089EF97E060E00E94C7
:10461000961B8091BB009091E204E92FF0E0EE53ED
:10462000FB4F80839F5F9093E20490E00E94ED1B1C
:1046300086EE97E060E00E94961B2091E20430E055
:104640008091E30490E001972817390734F51EC0E4
:1046500083ED97E060E00E94961B85E080939E04C6
:104660001092E20462C08FEB97E060E00E94961B1C
:104670008091E2049091BB00E82FF0E0EE53FB4FF5
:1046800090838F5F8093E204803238F48FEF06C00E
:104690008AEA97E060E00E94961B80E00E94542125
:1046A00066C087E997E060E00E94961B8091BC009D
:1046B0008F70806C8093BC00E091E404F091E5047D
:1046C000309709F452C08091E20462EC74E00995DD
:1046D0004CC084E897E060E00E94961B84E08093E1
:1046E0009E04E091E604F091E704309731F080E217
:1046F00060EA74E009958093C1041092C00480E7D9
:1047000097E060E00E94961B9091C004E92FF0E0D2
:10471000E056FB4F80818093BB009F5F9093C00465
:104720008091C104981708F04ACF8091BC008F7027
:10473000806C49CF8EE497E060E00E94961B8091E8
:10474000BC008F70806C0FC08FE397E060E00E9428
:10475000961B0DC08EE297E060E00E94961B809150
:10476000BC008F70806D8093BC0010929E04FF91FE
:10477000EF91BF91AF919F918F917F916F915F91D9
:104780004F913F912F910F900FBE0F901F90189552
:10479000482F20917B0430917C0480917D0490917E
:1047A0007E04281B390B37FF0CC020917B0430910D
:1047B0007C0480917D0490917E0420563A4F281B02
:1047C000390B8CE3489FA0011124460F511D8091A5
:1047D0007D0490917E04BA01681B790BCB0177FFB1
:1047E0000AC080917D0490917E04BA01681B790B08
:1047F000CB0180569A4F8217930718F4809180045A
:1048000002C080917F048093B4000895FF920F93BB
:104810001F93CF93DF9380918F048F5F80938F04DA
:104820000E94C9208CE160E00E94BF2083EF93E0EA
:1048300060E00E94541D80E067E00E94BF2080E09D
:1048400094E060E00E94541D80E066E00E94BF207A
:1048500086E194E060E00E94541D88E061E00E94DF
:10486000BF2088E294E060E00E94541D8CE561E086
:104870000E94BF2080917D0490917E046CE370E0E3
:104880000E946E2AF62E00917D0410917E04862FE0
:1048900060E00E94A60A8AE360E00E941C1DC80135
:1048A0006CE370E00E946E2A60E00E94BA0580917D
:1048B000EB04882349F42CE02F1510F480E501C0A7
:1048C00081E460E00E941C1D88E062E00E94BF203D
:1048D00084E394E060E00E94541D84E762E00E945B
:1048E000BF208091800460E00E94BA0588E064E007
:1048F0000E94BF2085E494E060E00E94541D8CE596
:1049000064E00E94BF2080917B0490917C046CE362
:1049100070E00E946E2AF62E00917B0410917C04B8
:10492000862F60E00E94A60A8AE360E00E941C1DB8
:10493000C8016CE370E00E946E2A60E00E94BA0534
:104940008091EB04882349F48CE08F1510F480E506
:1049500001C081E460E00E941C1D88E065E00E94C7
:10496000BF2084E394E060E00E94541D84E765E08A
:104970000E94BF2080917F0460E00E94BA0580E021
:104980006BE047E00E948B080AE08AE0F82EC8EC52
:10499000D0E08091910480FF43C0109291040830D0
:1049A00049F1093028F4802F8150863028F438C02E
:1049B000093091F00A3011F011E033C080E060E07E
:1049C00047E020E300E00E94651D80E063E147E0EE
:1049D0000E948B0809E024C080E060E047E020E30B
:1049E00000E00E94651D80E063E247E00E948B08C2
:1049F00008E016C080E060E047E020E300E00E94AD
:104A0000651D80E06BE247E00E948B0880E067E074
:104A10000E94BF2082E594E060E00E94541D07E000
:104A200010E080919104882321F4809192048823DE
:104A300019F0F0928E0405C080918E04882309F449
:104A4000A1C28091910481FF4CC110929104053064
:104A500009F40DC1063080F4023009F4ACC0033013
:104A600020F4013009F03DC167C0033009F4C4C02F
:104A7000043009F036C12AC0083009F47BC009307F
:104A800038F4063009F414C1073009F02AC13CC0DB
:104A9000093021F00A3009F024C1C8C08091800497
:104AA0008093B40084E762E00E94BF20809180047C
:104AB00061E00E94BA0580E066E00E94BF2089E6BE
:104AC00094E060E00E94541D04E00BC184E762E0C2
:104AD0000E94BF208091B40060E00E94BA058091DE
:104AE000B400809380048091E8046091F2040E94F5
:104AF000C82380E066E00E94BF2086E194E060E089
:104B00000E94541D09E0EDC080917F048093B400A1
:104B100084E765E00E94BF2080917F0461E00E94ED
:104B2000BA0580E066E00E94BF2089E694E060E07C
:104B30000E94541D01E0D5C084E765E00E94BF20BB
:104B40008091B40060E00E94BA058091B400809327
:104B50007F048091E8046091F2040E94C82380E001
:104B600066E00E94BF2086E194E060E00E94541D50
:104B700007E0B7C08CE564E00E94BF2080917B0411
:104B800090917C046CE370E00E946E2A862F61E0B5
:104B90000E94A60A8091E8046091F2040E94C82352
:104BA00080E066E00E94BF2089E694E060E00E9419
:104BB000541D02E096C08CE564E00E94BF20809105
:104BC0007B0490917C046CE370E00E946E2A862F37
:104BD00060E00E94A60A8EE664E00E94BF208091F9
:104BE0007B0490917C046CE370E00E946E2A61E08B
:104BF0000E94BA0503E075C08EE664E00E94BF2003
:104C000080917B0490917C046CE370E00E946E2A9A
:104C100060E00E94BA0580E066E00E94BF2086E165
:104C200094E060E00E94541D08E05BC08CE561E008
:104C30000E94BF2080917D0490917E046CE370E01F
:104C40000E946E2A862F61E00E94A60A8091E804E5
:104C50006091F2040E94C82380E066E00E94BF20B9
:104C600089E694E060E00E94541D05E03AC08CE5BE
:104C700061E00E94BF2080917D0490917E046CE3EE
:104C800070E00E946E2A862F60E00E94A60A8EE6DF
:104C900061E00E94BF2080917D0490917E046CE3CE
:104CA00070E00E946E2A61E00E94BA0506E019C019
:104CB0008EE661E00E94BF2080917D0490917E0489
:104CC0006CE370E00E946E2A60E00E94BA0580E00A
:104CD00066E00E94BF2086E194E060E00E94541DDF
:104CE0000AE08091910482FD04C08091920482FFC9
:104CF00046C110929104043071F48091B4008F5F2A
:104D00008093B4008091B400813110F01092B4000F
:104D100084E762E00FC00130A9F48091B4008F5F96
:104D20008093B4008091B400813110F01092B400EF
:104D300084E765E00E94BF208091B40061E00E949A
:104D4000BA051DC1023009F04EC080917B049091DC
:104D50007C04CC9690937C0480937B0480917B04AC
:104D600090917C04805A954060F080917B049091F2
:104D70007C046CE370E00E946E2A90937C04809324
:104D80007B048CE564E00E94BF2080917B049091BD
:104D90007C046CE370E00E946E2A862F61E00E9422
:104DA000A60A8091EB04882389F48AE764E00E94D4
:104DB000BF2080917B0490917C04805D924010F034
:104DC00080E501C081E460E00E941C1D8091920496
:104DD000882309F4D4C080ED97E0FE013197F1F704
:104DE0000197D9F7CCC0053009F04EC080917D0401
:104DF00090917E04CC9690937E0480937D04809164
:104E00007D0490917E04805A954060F080917D04ED
:104E100090917E046CE370E00E946E2A90937E0471
:104E200080937D048CE561E00E94BF2080917D0429
:104E300090917E046CE370E00E946E2A862F61E000
:104E40000E94A60A8091EB04882389F48AE761E036
:104E50000E94BF2080917D0490917E04805D9240ED
:104E600010F080E501C081E460E00E941C1D80918B
:104E70009204882309F483C080ED97E0FE01319706
:104E8000F1F70197D9F77BC0033009F03CC080915E
:104E90007B0490917C046CE370E00E946E2A019682
:104EA000CD9760F080917B0490917C046CE370E07E
:104EB0000E946E2A70937C0460937B0480917B0433
:104EC00090917C04019690937C0480937B048EE601
:104ED00064E00E94BF2080917B0490917C046CE38D
:104EE00070E00E946E2A61E00E94BA0580919204EF
:104EF000882309F444C080ED97E0FE013197F1F773
:104F00000197D9F73CC00630D1F580917D0490918E
:104F10007E046CE370E00E946E2A0196CD9760F0EB
:104F200080917D0490917E046CE370E00E946E2A73
:104F300070937E0460937D0480917D0490917E0443
:104F4000019690937E0480937D048EE661E00E943A
:104F5000BF2080917D0490917E046CE370E00E94FC
:104F60006E2A61E00E94BA0580919204882339F08C
:104F700080ED97E0FE013197F1F70197D9F7112302
:104F800009F407CD80918F04815080938F04DF91C5
:104F9000CF911F910F91FF9008955058BB27AA27DA
:104FA0000ED044C135D130F03AD120F031F49F3FDA
:104FB00011F41EF42AC10EF4E095E7FBF7C0E92FC7
:104FC00046D180F3BA17620773078407950718F074
:104FD00071F49EF575C10EF4E0950B2EBA2FA02D3D
:104FE0000B01B90190010C01CA01A0011124FF2796
:104FF000591B99F0593F50F4503E68F11A16F04091
:10500000A22F232F342F4427585FF3CF469537958F
:105010002795A795F0405395C9F77EF41F16BA0B54
:10502000620B730B840BBAF09150A1F0FF0FBB1F02
:10503000661F771F881FC2F70EC0BA0F621F731F4B
:10504000841F48F4879577956795B795F7959E3FA8
:1050500008F0B3CF9395880F08F09927EE0F979536
:10506000879508957FD008F481E00895F8D088F0FE
:105070009F5790F0B92F9927B751A0F0D1F0660F44
:10508000771F881F991F1AF0BA95C9F712C0B1305F
:1050900081F016D1B1E0089513C1672F782F8827CA
:1050A000B85F39F0B93FCCF3869577956795B3959E
:1050B000D9F73EF490958095709561957F4F8F4F0D
:1050C0009F4F0895E89409C097FB3EF49095809512
:1050D000709561957F4F8F4F9F4F9923A9F0F92FBE
:1050E00096E9BB279395F695879577956795B7953C
:1050F000F111F8CFFAF4BB0F11F460FF1BC06F5F22
:105100007F4F8F4F9F4F16C0882311F096E911C033
:10511000772321F09EE8872F762F05C0662371F054
:1051200096E8862F70E060E02AF09A95660F771F68
:10513000881FDAF7880F9695879597F90895A9D073
:1051400080F09F3740F491110EF0BBC060E070E03A
:1051500080E89FEB089526F41B16611D711D811DCB
:105160002BC045C0990F0008550FAA0BE0E8FEEFD1
:1051700016161706E807F907C0F012161306E4071B
:10518000F50798F0621B730B840B950B39F40A2614
:1051900061F0232B242B252B21F408950A2609F4F2
:1051A000A140A6958FEF811D811D089597F99F67F6
:1051B00080E870E060E00895882371F4772321F09F
:1051C0009850872B762F07C0662311F499270DC0BE
:1051D0009051862B70E060E02AF09A95660F771F59
:1051E000881FDAF7880F9695879597F908959F3F5E
:1051F00031F0915020F4879577956795B795880F92
:10520000911D9695879597F908959FEF80EC0895E5
:1052100000240A9416161706180609060895002495
:105220000A9412161306140605060895092E03940F
:10523000000C11F4882352F0BB0F40F4BF2B11F483
:1052400060FF04C06F5F7F4F8F4F9F4F089557FDE2
:105250009058440F551F59F05F3F71F04795880FE4
:1052600097FB991F61F09F3F79F08795089512167B
:1052700013061406551FF2CF4695F1DF08C0161627
:1052800017061806991FF1CF8695710561050894D8
:105290000895E5DFA0F0BEE7B91788F4BB279F3873
:1052A00060F41616B11D672F782F8827985FF7CF07
:1052B000869577956795B11D93959639C8F30895AE
:1052C000E894BB2766277727CB0197F908954ADF33
:1052D00008F48FEF08950BD0A9CF9ADF28F09FDF55
:1052E00018F0952309F062CF90CF1124EACFAFDFF9
:1052F000A0F3959FD1F3950F50E0551F629FF001E9
:10530000729FBB27F00DB11D639FAA27F00DB11D41
:10531000AA1F649F6627B00DA11D661F829F2227CA
:10532000B00DA11D621F739FB00DA11D621F839F51
:10533000A00D611D221F749F3327A00D611D231F27
:10534000849F600D211D822F762F6A2F11249F5775
:1053500050408AF0E1F088234AF0EE0FFF1FBB1F98
:10536000661F771F881F91505040A9F79E3F510537
:1053700070F01CCFA6CF5F3FECF3983EDCF3869530
:1053800077956795B795F795E7959F5FC1F7FE2BE2
:10539000880F911D9695879597F908959F9305D04D
:1053A0000F9007FCEE5F28C030CF59DFE8F3E89498
:1053B000E0E0BB279F57F0F02AED3FE049EC06C044
:1053C000EE0FBB0F661F771F881F28F0B23A6207E7
:1053D0007307840728F0B25A620B730B840BE395B2
:1053E0009A9572F7803830F49A95BB0F661F771F35
:1053F000881FD2F79048FDCEEF93E0FF06C0A2EAE7
:105400002AED3FE049EC5FEBDADD10DF0F9003940B
:1054100001FC9058E8E6F0E000C09F938F937F93E3
:105420006F93FF93EF939B01AC0155DFEF91FF91D9
:1054300005D02F913F914F915F914DCFDF93CF9347
:105440001F930F93FF92EF92DF927B018C01689480
:1054500005C0DA2EEF014BDFFE01E894A5912591FE
:10546000359145915591AEF3EF01A9DDFE0197010C
:10547000A801DA9479F7DF90EF90FF900F911F91D8
:10548000CF91DF910895629FD001739FF001829FB9
:10549000E00DF11D649FE00DF11D929FF00D839FC3
:1054A000F00D749FF00D659FF00D9927729FB00D60
:1054B000E11DF91F639FB00DE11DF91FBD01CF0173
:1054C00011240895991B79E004C0991F961708F0DC
:1054D000961B881F7A95C9F780950895AA1BBB1B58
:1054E00051E107C0AA1FBB1FA617B70710F0A61BE4
:1054F000B70B881F991F5A95A9F780959095BC0105
:10550000CD01089597FB092E07260AD077FD04D018
:10551000E5DF06D000201AF4709561957F4F08955D
:10552000F6F7909581959F4F0895A1E21A2EAA1B38
:10553000BB1BFD010DC0AA1FBB1FEE1FFF1FA21743
:10554000B307E407F50720F0A21BB30BE40BF50B40
:10555000661F771F881F991F1A9469F760957095C9
:10556000809590959B01AC01BD01CF01089597FBFB
:10557000092E05260ED057FD04D0D7DF0AD0001C17
:1055800038F450954095309521953F4F4F4F5F4FE0
:105590000895F6F790958095709561957F4F8F4FA0
:1055A0009F4F0895FB01DC0105900D920020E1F76B
:1055B0000895AEE0B0E0EFEDFAE20C949E2D0D8977
:1055C0001E8986E08C831A8309838FEF9FE79E8371
:1055D0008D839E01275E3F4FCE0101966F89788DA6
:1055E000A9010E94FD2A2F813885020F131FF8019F
:1055F00010822E96E4E00C94BA2DABE0B0E0E3E02C
:10560000FBE20C94902D3C012B015A01FC01178206
:105610001682838181FD03C06FEF7FEFC6C19AE0E0
:10562000892E1E010894211C311CF3012381F201F3
:1056300023FD859123FF81912F01882309F4B2C1B5
:10564000853239F423FD859123FF81912F01853225
:1056500029F490E0B3010E94062DE7CF982FFF2494
:10566000EE249924FFE1FF15D0F09B3269F09C32C3
:1056700028F4903259F0933291F40EC09D3249F0E3
:10568000903369F441E024C052E0F52A84E0F82A1E
:1056900028C098E0F92A25C0E0E1FE2A22C0F7FCE4
:1056A00029C0892F80538A3070F4F6FE05C0989C7B
:1056B000902C1124980E15C0E89CE02C1124E80EC3
:1056C000F0E2FF2A0EC09E3229F4F6FC6BC140E4E2
:1056D000F42A07C09C3619F450E8F52A02C098361F
:1056E00049F4F20123FD959123FF91912F01992314
:1056F00009F0B8CF892F8554833018F08052833059
:1057000038F444E050E0A40EB51E5FE359830FC0A7
:10571000933631F0933779F0933509F056C020C0B5
:10572000F5018081898342E050E0A40EB51E61013D
:1057300001E010E012C0F501C080D180F6FC03C08A
:105740006FEF7FEF02C0692D70E042E050E0A40EE1
:10575000B51EC6010E94FB2C8C015FE7F52214C028
:10576000F501C080D180F6FC03C06FEF7FEF02C06F
:10577000692D70E042E050E0A40EB51EC6010E9403
:10578000F02C8C0150E8F52AF3FE07C01AC080E225
:1057900090E0B3010E94062DEA948E2D90E0081748
:1057A0001907A8F30EC0F601F7FC8591F7FE819169
:1057B0006F0190E0B3010E94062DE110EA940150C0
:1057C00010400115110579F7EAC0943611F09936A9
:1057D00069F5F7FE08C0F5012081318142815381CE
:1057E00084E090E00AC0F501808191819C0144270A
:1057F00037FD4095542F82E090E0A80EB91E9FE639
:10580000F92257FF09C050954095309521953F4F9B
:105810004F4F5F4FE0E8FE2ACA01B901A1012AE01B
:1058200030E00E94322DD82ED21840C0953729F48E
:105830001F2D1F7E2AE030E01DC01F2D197F9F36CF
:1058400061F0903720F4983509F0ACC00FC0903764
:1058500039F0983709F0A6C004C028E030E00AC04B
:10586000106114FD146020E130E004C014FD1660E6
:1058700020E132E017FF08C0F5016081718182816B
:10588000938144E050E008C0F50180819181BC0122
:1058900080E090E042E050E0A40EB51EA1010E941D
:1058A000322DD82ED2188FE7F82EF122F6FE0BC03B
:1058B0005EEFF522D91438F4F4FE07C0F2FC05C0FF
:1058C0008FEEF82202C01D2D01C0192DF4FE0DC06F
:1058D000FE01ED0DF11D8081803319F499EEF9225E
:1058E00008C01F5FF2FE05C003C08F2D867809F047
:1058F0001F5F0F2DF3FC14C0F0FE0FC01E1510F03B
:105900009D2C0BC09D2C9E0C911A1E2D06C080E272
:1059100090E0B3010E94062D1F5F1E15C0F304C066
:105920001E1510F4E11A01C0EE2404FF0FC080E33D
:1059300090E0B3010E94062D02FF1DC001FD03C0CF
:1059400088E790E00EC088E590E00BC0802F867855
:1059500091F001FF02C08BE201C080E2F7FC8DE212
:1059600090E0B3010E94062D06C080E390E0B301F1
:105970000E94062D9A94D914C0F3DA94F101ED0D2A
:10598000F11D808190E0B3010E94062DDD20A9F772
:1059900006C080E290E0B3010E94062DEA94EE205A
:1059A000C1F743CEF30166817781CB012B96E2E10B
:1059B0000C94AC2DF999FECF92BD81BDF89A992730
:1059C00080B50895262FF999FECF1FBA92BD81BDEB
:1059D00020BD0FB6F894FA9AF99A0FBE0196089571
:1059E000FC010590615070400110D8F780959095AA
:1059F0008E0F9F1F0895FC016150704001900110AF
:105A0000D8F7809590958E0F9F1F08950F931F9341
:105A1000CF93DF938C01EB018B8181FF1BC082FF51
:105A20000DC02E813F818C819D812817390764F438
:105A3000E881F9810193F983E88306C0E885F98557
:105A4000802F0995892B31F48E819F8101969F8348
:105A50008E8302C00FEF1FEFC801DF91CF911F911E
:105A60000F910895FA01AA27283051F1203181F1D0
:105A7000E8946F936E7F6E5F7F4F8F4F9F4FAF4F56
:105A8000B1E03ED0B4E03CD0670F781F891F9A1F69
:105A9000A11D680F791F8A1F911DA11D6A0F711D1D
:105AA000811D911DA11D20D009F468943F912AE029
:105AB000269F11243019305D3193DEF6CF01089511
:105AC000462F4770405D4193B3E00FD0C9F7F6CF42
:105AD000462F4F70405D4A3318F0495D31FD40520A
