:100000000C9446040C9463040C9463040C94C41381
:100010000C9463040C9463040C9463040C946304C4
:100020000C9463040C9470070C9463040C94D8042F
:100030000C9463040C9465040C9477040C9463048E
:100040000C9463040C9463040C9463040C94630494
:100050000C9463040C941C130C9463040C946304BC
:100060000C94B8220C94630405A84CCDB2D44EB9BC
:100070003836A9020C50B9918688083CA6AAAA2A4B
:10008000BE000000803F00000000000000000000F3
:1000900040000000000000004000000000000000E0
:1000A000C00100000000000040030000000000004C
:1000B0008002000000000000800600000000000038
:1000C00080040000000000E0810800000000003C07
:1000D0008208000000000016FC0800000000000874
:1000E000080800000000000F000800000000800069
:1000F000000400000000C0000004000000004007F1
:10010000000400000000C00C000400000000C01843
:100110000008000000002011000800000000B011DD
:1001200000040000000078100004000000001B1014
:100130000004000000E01E1C00040000003010233A
:1001400000040000000C2021C0040000000420C1B5
:10015000400500000006300131050000FF031000DB
:10016000310A00C001001000430E00300000D8002A
:10017000C2040010000008008C0400F80300040012
:10018000DC10000802000400501E00080E000700EA
:10019000500D000008000100300F00007000010049
:1001A0000006000080800000002000008080000029
:1001B00000200000808700000077000000D80000C9
:1001C000805C000000700000804100000000000022
:1001D000004300000000000000420000000000009A
:1001E0000042000000000000004400000000000089
:1001F00000840000000060030084000000009006FE
:10020000009C000000000808005B000000000430B3
:1002100000730000000004A033420000000004A0AE
:1002200002400000000004A076000000000004A0CE
:1002300035000000000008400B00000000000440F2
:10024000B201000000000740E201000000800160F0
:10025000C302000000C60040050400008039009081
:10026000050400007000001002080000180000A043
:10027000010800000800001001080000010000D083
:10028000000C0000080000500604000010000050A0
:10029000060400007000007407020000C003C007DD
:1002A00003040000000220030004000000FCD10051
:1002B00000040000808133000604000040073698E7
:1002C00007040000C00D5C9C01040000000EC00C7F
:1002D000000C00000000800C0008000000008007F7
:1002E00000080000000000060010000000000004EC
:1002F00000100000000000040010000000000002D8
:100300000010000000000001002000000000C401F7
:100310000020000000007000002000000000180015
:10032000003000000000E000001000000000880025
:100330000010000000000003001000000000000298
:100340000010000000000003001000000000800109
:1003500000080000000046000008000000007900CE
:100360000008000000003D0000080000008025009B
:100370000018000000C090010018000000E07001AB
:10038000000800000020038201080000F8A006C257
:100390000108000008A10426E108000008814F9828
:1003A000A00C00000821E0C0A3040000082230C017
:1003B0009E04000010041820800D0000100400604E
:1003C000000D0000080C00E0E30500000E0801002D
:1003D000A004008002880000F004008002CE00002B
:1003E0008005000002E200000003000006AE0000ED
:1003F000000200000CAE0000000000009863000046
:1004000000000000F0300000000000C000100000FC
:10041000000000C00040000000000080012000003B
:10042000000000800110000000000000000000003B
:1004300000000000060000000000000002000000B4
:1004400000000000000000000000000000000000AC
:10045000000000000000000000000000000000009C
:10046000000000000000000000000000000100008B
:100470000000000000020000000000000008000072
:100480000000000000004D6F6E64617900547565D6
:1004900073646179005765646E65736461790054B3
:1004A000687572736461790046726964617900539A
:1004B000617475726461790053756E64617900B816
:1004C0000486048D0495049F04A804AF044A616E59
:1004D00075617279004665627275617279004D616D
:1004E00072636800417072696C004D6179004A75F1
:1004F0006E65004A756C79004175677573740053B9
:10050000657074656D626572004F63746F626572C9
:10051000004E6F76656D62657200446563656D625D
:10052000657200CD04D504DE04E404EA04EE04F3AD
:1005300004F804FF04090511051A050B3E41414169
:1005400041424242423C0006FFFFFFFFFFFF000026
:1005500000000000005F00000007000700147F1487
:100560007F14242A7F2A12231308646236495522F5
:10057000500005030000001C2241000041221C0025
:10058000082A1C2A0808083E080800503000000805
:1005900008080808006060000020100804023E51AE
:1005A00049453E00427F4000426151494621414554
:1005B0004B311814127F1027454545393C4A4949AB
:1005C0003001710905033649494936064949291E52
:1005D0000036360000005636000000081422411490
:1005E000141414144122140800020151090632495E
:1005F00079413E7E1111117E7F494949363E414184
:1006000041227F4141221C7F494949417F0909011B
:10061000013E414151327F0808087F00417F41007F
:100620002040413F017F081422417F404040407FED
:100630000204027F7F0408107F3E4141413E7F0952
:100640000909063E4151215E7F091929464649495B
:10065000493101017F01013F4040403F1F204020C0
:100660001F7F2018207F6314081463030478040399
:10067000615149454300007F414102040810204177
:10068000417F00000402010204404040404000015C
:1006900002040020545454787F4844443838444479
:1006A0004420384444487F3854545418087E090183
:1006B00002081454543C7F0804047800447D400030
:1006C0002040443D00007F10284400417F40007CD2
:1006D000041804787C0804047838444444387C14B2
:1006E000141408081414187C7C0804040848545492
:1006F0005420043F4440203C4040207C1C204020AB
:100700001C3C4030403C44281028440C5050503C85
:100710004464544C44000836410000007F0000004F
:100720004136080008082A1C08081C2A0808493213
:10073000433A204255535F4552524F520D0A0049E9
:1007400032433A204E4F5F494E464F0D0A00493220
:10075000433A2053542D3E444154415F4E41434B54
:10076000206F72204C4153545F444154410D0A00A4
:100770004932433A2053542D3E444154415F414352
:100780004B0D0A004932433A2053542D3E534C41FD
:100790005F41434B0D0A004932433A2053522D3EEC
:1007A00053525F53544F500D0A004932433A20537D
:1007B000522D3E444154415F4E41434B0D0A004986
:1007C00032433A2053522D3E444154415F41434B02
:1007D0000D0A004932433A2053522D3E534C415F9B
:1007E00041434B0D0A004932433A204D522D3E53AE
:1007F0004C415F41434B0D0A004932433A204D5270
:100800002D3E444154415F41434B0D0A0049324360
:100810003A204D542D3E4152425F4C4F53540D0AE5
:10082000004932433A204D54522D3E534C415F4EC5
:1008300041434B206F72204D542D3E444154415F43
:100840004E41434B0D0A004932433A204D522D3E52
:10085000444154415F4E41434B0D0A004932433AF3
:10086000204D542D3E534C415F41434B206F72202D
:10087000444154415F41434B0D0A004932433A2001
:100880004D2D3E53544152540D0A000011241FBEF9
:10089000CFEFD8E0DEBFCDBF14E0A0E0B1E0E6EBE3
:1008A000F0E602C005900D92AE3AB107D9F715E017
:1008B000AEEAB4E001C01D92A336B107E1F70E9491
:1008C000FE080C9459300C9400001F920F920FB642
:1008D0000F9211248F939F9388B198E0892788B94C
:1008E0009F918F910F900FBE0F901F9018951F92A0
:1008F0000F920FB60F9211248F939F938091B6049D
:100900009091B704892B49F08091B6049091B70477
:1009100001979093B7048093B60480912705909136
:100920002805892B49F0809127059091280501978A
:10093000909328058093270580912505882389F1C8
:100940008091B4049091B504892B59F580911C05D0
:1009500090911D05892BE1F48CE291E090931D05A7
:1009600080931C0580918100882379F41092800087
:1009700089E08093810083E080936F0088EE93E0AC
:10098000909389008093880003C01092810043985F
:1009900080911C0590911D05019790931D058093F2
:1009A0001C059F918F910F900FBE0F901F9018956F
:1009B0001F920F920FB60F9211248F939F9388B1BD
:1009C00098E0892788B99F918F910F900FBE0F9063
:1009D0001F901895AF92BF92CF92DF92EF92FF9245
:1009E0000F931F93E62E1092800029E02093810040
:1009F00023E020936F009C0140E050E060E079E04C
:100A00008DE390E00E942E2D309389002093880082
:100A1000FF2400E010E0C801B7010E94D92A5B0161
:100A20006C0120E030E04AEF54E40E94E22B7B01AD
:100A30008C0120E030E040E85FE30E94A92A88238F
:100A40001CF461E070E024C0C801B70120E03FEF72
:100A50004FE757E40E94DE2B1816B4F4C601B50127
:100A600020E030E040E251E40E94E22B0E94AD2AF7
:100A700088EC90E005C0FC013197F1F761507040BF
:100A800061157105C1F707C0C801B7010E94AD2A01
:100A9000CB010197F1F71092810043981F910F91BC
:100AA000FF90EF90DF90CF90BF90AF900895FC0142
:100AB00083709070892B39F4CF0164E670E00E9456
:100AC000E52C892B49F420E030E0CF0160E971E0AA
:100AD0000E94E52C892B11F421E030E0822F08954B
:100AE0000895482F6AE00E94D92C282F30E084E036
:100AF000220F331F8A95E1F7842F0E94D92C892F6A
:100B0000822B089588E592E09093B5048093B40415
:100B10001092810043981092260508951E9B16C0DE
:100B200080912205882329F11092220510922B052D
:100B30001092B5041092B404809125058823C9F061
:100B40001092250510928100439808958091220506
:100B5000882379F481E0809322051092B5041092E5
:100B6000B40483E08093B20486E08093B1040E94D1
:100B7000AD1608950F931F93182F062F6AE00E9459
:100B8000D92C805D602F0E948E1D812F6AE00E940B
:100B9000D92C892F805D602F0E948E1D1F910F918F
:100BA0000895CF92DF92EF92FF920F931F93DF93FE
:100BB000CF93CDB7DEB728970FB6F894DEBF0FBE40
:100BC000CDBF162FF42ED22EFE01319698E0DF0114
:100BD0001D929A95E9F719820E9471058A83812FE7
:100BE0000E9471058B838F2D0E9471058C838D2D42
:100BF0000E9471058D83802F0E9471058E838E2D3A
:100C00000E9471058F838C2D0E9471058887F8944E
:100C100080ED68E0AE014F5F5F4F0E941E22789426
:100C20008823D9F008EC10E080EA9FE064E60E9497
:100C3000EA0488EE93E0F8013197F1F70197D9F7CC
:100C400080EA9FE064E60E94EA0480E197E2F8010E
:100C50003197F1F70197D9F7E7CF28960FB6F894B7
:100C6000DEBF0FBECDBFCF91DF911F910F91FF90DF
:100C7000EF90DF90CF9008950F931F93DF93CF9362
:100C8000CDB7DEB729970FB6F894DEBF0FBECDBF44
:100C90001982F89480ED61E0AE014F5F5F4F0E94D2
:100CA0001E228823E1F008EC10E0789480EA9FE0AF
:100CB00064E60E94EA0488EE93E0F8013197F1F7C8
:100CC0000197D9F780EA9FE064E60E94EA0480E198
:100CD00097E2F8013197F1F70197D9F7E6CF80ED68
:100CE00067E0AE014E5F5F4F0E94652278948823D3
:100CF000D9F008EC10E080EA9FE064E60E94EA0484
:100D000088EE93E0F8013197F1F70197D9F780EA7F
:100D10009FE064E60E94EA0480E197E2F8013197DF
:100D2000F1F70197D9F7E7CF7A81872F82958F70F6
:100D300090E0877090709C01A3E0220F331FAA956A
:100D4000E1F7880F991F280F391F872F8F70820FA7
:100D500080932A054B81842F82958F7090E0877055
:100D600090709C01E3E0220F331FEA95E1F7880FB2
:100D7000991F280F391F4F70420F409320058C8117
:100D8000482F42954F70682F6F7086FF22C0829562
:100D90008695877090E0817090709C01220F331FC0
:100DA000280F391F220F331F220F331F842F90E08B
:100DB00081709070AC0103E0440F551F0A95E1F774
:100DC000880F991F480F591F240F260F20931605CF
:100DD00011C0842F90E0837090709C01B3E0220FCB
:100DE000331FBA95E1F7880F991F280F391F620F3B
:100DF000609316054E81842F82958F7090E08370EA
:100E000090709C01F3E0220F331FFA95E1F7880FF1
:100E1000991F280F391F4F70420F40931F054F81B4
:100E2000842F82958F7090E0817090709C0163E0B8
:100E3000220F331F6A95E1F7880F991F280F391F7A
:100E40004F70420F409329052885822F82958F701D
:100E50003AE0839FC00111242F70280F20931A05B8
:100E6000872F807829960FB6F894DEBF0FBECDBFCE
:100E7000CF91DF911F910F910895CF92EF920F9331
:100E80000E9478210E943C06882359F080E060E0AF
:100E90004CE020E001E0EE24E394B9E0CB2E0E9488
:100EA000D1050E943C0682E090E00E94512F6CE345
:100EB0000E94D92C90931B0581E090E00E94512F55
:100EC00068E10E94D92C9093240587E08093B100BB
:100ED00081E08093700078940F91EF90CF90089507
:100EE0001F920F920FB60F921124FF920F931F9330
:100EF0002F933F934F935F936F937F938F939F9322
:100F0000AF93BF93EF93FF93A8958091B80480357A
:100F100079F41092B804F0902A0510912005009100
:100F200016050E943C0680911605801729F40AC018
:100F30008F5F8093B804DBC081E08093B00400939E
:100F4000210507C080912005811729F081E0809359
:100F5000AF041093180580912A058F1509F441C03C
:100F600080912505882359F08091B4049091B504AF
:100F7000009729F001979093B5048093B404809171
:100F8000B104882371F18091B10481508093B10440
:100F90008091B104882329F58091B20480931705CC
:100FA0001092B2048091B004882329F08091210529
:100FB0008093160504C08091AF04882321F08091AE
:100FC0001805809320050E94AD168091B0048823F7
:100FD00021F48091AF04882321F00093160510932B
:100FE000200580912605843061F0809126058530AA
:100FF00041F080912605883021F0809126058630C9
:1010000089F58091BB04882369F584E462E00E943D
:1010100031218091160560E00E94D60A8AE360E0E3
:101020000E948E1D8091200560E00E94BA058AE32F
:1010300060E00E948E1D80912A0560E00E94BA0542
:1010400080911905882371F480E260E00E948E1D72
:10105000809116058C3010F080E501C081E460E0DD
:101060000E948E1D80912205882399F080912A0587
:10107000882379F49091200580911B05981749F4F5
:101080009091160580912405981719F481E08093BA
:101090002B058091AF04882369F48091B0048823E4
:1010A00049F480912B05882329F081E08093250560
:1010B00010922B058091B904863039F41092B9044E
:1010C0008091BF04882329F409C08F5F8093B904FD
:1010D0000EC08091BF0481508093BF048091BA04F8
:1010E000882329F08091BA0481508093BA04FF913B
:1010F000EF91BF91AF919F918F917F916F915F9190
:101100004F913F912F911F910F91FF900F900FBE24
:101110000F901F901895EF92FF920F931F93F82E48
:10112000162FE42E21E001E00E94D71DFE0C0F2DAA
:1011300002501150802F612F0E941A1F1E5F802FB6
:10114000612F0E941A1F01501350802F612F0E949F
:101150001A1F1C5F802F612F0E941A1F1F910F9171
:10116000FF90EF90089580E090E00E94512F833C23
:1011700009F443C081E090E068E00E945F2F82E0C4
:1011800090E060E00E945F2F83E090E060E10E94C9
:101190005F2F84E090E061E00E945F2F85E090E0A7
:1011A00060E00E945F2F86E090E060E00E945F2F89
:1011B00087E090E06AE00E945F2F80E090E063ECBF
:1011C0000E945F2F88E090E068E671E00E946D2F3A
:1011D0008AE090E064E675E00E946D2F8CE090E07C
:1011E0006BE00E945F2F8DE090E061E00E945F2F36
:1011F0008EE090E060E00E945F2F08957F928F92D2
:101200009F92AF92BF92CF92DF92EF92FF920F9395
:101210001F93CF93DF930091B30484B714BE88E18A
:101220000FB6F89480936000109260000FBE8AE1C0
:1012300090E00E94CD1B3B9A0E943D070E94AE1495
:101240000E94B30885E090E00E94512F809323050F
:1012500086E090E00E94512F809319050E94F112C0
:101260000E948E0582E084BD83E085BD8DE787BD49
:1012700080916E00826080936E00539A80E280932A
:10128000B0008091B00083608093B0008091B10085
:1012900088608093B10080E18093B30083E090E0A8
:1012A0000E94512F8093B400259A80EA9FE064E663
:1012B0000E94EA042FE088E190E00FB6F894A89528
:1012C000809360000FBE209360000E945F210E9407
:1012D0003B210E94DD2580911605609120050E942A
:1012E0003A240E94EA240E94841A802F0E94371810
:1012F00010E0CBE4D0E068E5A62E62E0B62E52E026
:10130000752E9924939443E0D42E35E0E32E26E005
:10131000C22E94E0F92E88E0882ED0932805C09341
:10132000270581E091E00E940225809116056091D9
:1013300020050E943A248091BD04882379F0809191
:101340002505882359F01092BD04B092B504A092EF
:10135000B40410928100439810922605113039F49C
:101360008091B1048823F1F4E092B20408C01230F5
:1013700061F48091B1048823A9F49092B204D092D0
:10138000B1040E94AD1613E00DC0133059F48091E2
:10139000B104882339F47092B2041093B1040E940E
:1013A000AD1610E08091BD04867041F11092BD042D
:1013B00080912305882321F080912305813019F441
:1013C0009092B20412C080912305823021F0809166
:1013D0002305833021F4F092B20412E00BC0809117
:1013E0002305843021F4E092B20413E003C0F092AC
:1013F000B20411E0C092B1040E94AD168091BD0408
:1014000080FF3FC01092BD041092B2041092B1044C
:101410000E94AD1680912605843089F0853028F42D
:10142000882341F0833009F511C08530A1F0883060
:10143000E1F416C0F09226050E94050F18C0D09264
:1014400026050E94640D1092000111C0E09226054D
:101450000E9432110CC0809226050E94051007C020
:10146000C09226050E94CC1002C0109226058091E1
:101470002605882329F40E943B21802F0E943718DB
:1014800010E00E94DF1A80912605882309F042C0EF
:101490008091B304081779F480912505882359F0C9
:1014A00080912A0580FF07C08091B30400E0882363
:1014B00041F501E026C0402F50E08091B30420E0C8
:1014C00030E0882311F421E030E04217530721F483
:1014D00080912505882399F0809125058823A9F01E
:1014E0008091B30420E030E0882311F421E030E063
:1014F0004217530751F480912A0580FD06C00091E0
:10150000B304802F0E94371805C02D9A802F0E94A7
:1015100063182D988091270590912805892BD1F784
:10152000FCCE0F931F93CF93DF93182F062F80913C
:101530001905882371F584E761E00E9431211C3090
:1015400010F080E501C081E460E00E948E1D8DE412
:1015500060E00E948E1D80E561E00E943121812FB4
:1015600090E047966CE070E00E94F92CEC01893025
:10157000910524F09C012F5F822F10C080E260E073
:101580000E948E1D9E012F5C822F602F0E948E1D57
:1015900008C080E561E00E943121812F602F0E9408
:1015A000BA05DF91CF911F910F9108950F931F936B
:1015B000CF93DF93082F162F809119058823D1F43C
:1015C000802F90E047966CE070E00E94F92CEC01CF
:1015D0008930910524F09C012F5F822F14C080E296
:1015E00060E00E948E1D9E012F5C822F612F0E9461
:1015F0008E1D0CC080E260E00E948E1D80E260E0E3
:101600000E948E1D802F612F0E94BA05DF91CF911D
:101610001F910F9108951F93182F88E064E00E9496
:1016200031218AE091E060E00E94C61D809123058F
:10163000882339F480911905882319F483E191E016
:1016400078C080912305882339F480911905813071
:1016500019F480E291E06DC080912305813039F466
:1016600080911905882319F48DE291E062C0809180
:101670002305813039F480911905813019F48AE30A
:1016800091E057C080912305823039F4809119058B
:10169000882319F487E491E04CC0809123058230BF
:1016A00039F480911905813019F484E591E041C045
:1016B00080912305833039F480911905882319F42A
:1016C00081E691E036C080912305833039F4809122
:1016D0001905813019F48EE691E02BC08091230525
:1016E000843039F480911905882319F48BE791E04F
:1016F00020C080912305843039F480911905813010
:1017000019F488E891E015C080912305853039F4FB
:1017100080911905882319F485E991E00AC0809128
:101720002305853049F480911905813029F482EA36
:1017300091E0612F0E94C61D1F910895282F6630E9
:1017400081F1673078F4633019F1643030F461303E
:10175000C9F0623009F03FC018C06430E1F0653074
:10176000D1F51CC0693031F16A3028F46730E1F0FE
:10177000683089F51CC06B3019F16B30F0F06C30BB
:1017800051F524C08FEA91E01DC083EB91E01AC0AF
:1017900087EB91E017C08BEB91E014C08FEB91E0E9
:1017A00011C083EC91E00EC087EC91E00BC08BEC94
:1017B00091E008C08FEC91E005C083ED91E002C09C
:1017C00087ED91E0622F0E94C61D08958BED91E098
:1017D000622F0E94C61D08951F93182F862F642F15
:1017E000422F0E94D0168330B9F0843028F4813023
:1017F00069F0823070F407C08530A1F0853078F050
:101800008630C1F412C08FED91E011C084EE91E0FA
:101810000EC089EE91E00BC08EEE91E008C083EF20
:1018200091E005C088EF91E002C08DEF91E0612F5B
:101830000E94C61D1F910895EF92FF920F931F9370
:10184000182F062FE42EF22E88E063E00E9431214B
:1018500082E092E060E00E94C61D8091230588230B
:1018600031F488E092E060E00E94C61D18C08091CB
:101870002305813031F488E092E060E00E94C61DCB
:101880002FC0809123058230E9F480E260E00E945D
:101890008E1D80E0612F402F2E2D0E94EC0B60E00A
:1018A0008BE0F81609F461E0812F0E94BA058FE2FF
:1018B00060E00E948E1D60E09CE0F91609F461E092
:1018C000802F20C080912305833001F580E260E005
:1018D0000E948E1D80E0612F402F2E2D0E94EC0B68
:1018E00060E08CE0F81609F461E0802F0E94BA05F0
:1018F0008FE260E00E948E1D60E09BE0F91609F423
:1019000061E0812F0E94BA058FE23EC080912305DD
:101910008430F9F48EE092E060E00E94C61D80E021
:101920009BE0F91609F481E0612F0E949E0B80E292
:1019300060E00E948E1D60E08CE0F81609F461E022
:10194000802F0E94BA058CE260E00E948E1D80E22A
:101950001BC080E0612F402F2E2D0E94EC0B80E0F9
:101960009BE0F91609F481E0612F0E949E0B80E252
:1019700060E00E948E1D60E08CE0F81609F461E0E2
:10198000802F0E94BA058CE260E00E948E1D10E05C
:101990009DE0F91609F411E084E1612F0E94BA0577
:1019A0008E2D612F0E94BA051F910F91FF90EF902D
:1019B00008958091BB048F5F8093BB040E943B21FC
:1019C00080E060E00E94312182E192E060E00E94CC
:1019D000C61D88E061E00E94312185E292E060E06E
:1019E0000E94C61D8091240560E00E94910A8AE34E
:1019F00060E00E948E1D80911B0560E00E94BA0588
:101A000088E062E00E94312182E392E060E00E947F
:101A1000C61D8091160560E00E94D60A8AE360E048
:101A20000E948E1D8091200560E00E94BA058AE325
:101A300060E00E948E1D80912A0560E00E94BA0538
:101A400080911905882371F480E260E00E948E1D68
:101A5000809116058C3010F080E501C081E460E0D3
:101A60000E948E1D8091290560911F0540911A05E5
:101A700090E070E050E025E030E00E941C0C80E037
:101A800090E00E940B0B88E065E00E9431218DE31D
:101A900092E060E00E94C61D80E066E00E94312175
:101AA00089E492E060E00E94C61D80E067E00E9449
:101AB00031218FE592E060E00E94C61D8091BB0459
:101AC00081508093BB040895BF92CF92DF92EF9232
:101AD000FF920F931F93CF93DF9310911605D09031
:101AE0002005F0902A050E94D90C8091BB048F5FDD
:101AF0008093BB0480E063E147E00E948B08809103
:101B0000BB0481508093BB048AE08093BA0403E055
:101B10008AE0B82EC8ECD0E08091BD0480FD6BC196
:101B20008091BD04882321F48091BE04882319F09C
:101B3000B092BA0407C08091BA04882319F41092B5
:101B4000260559C18091BD0481FFDCC01092BD04FF
:101B50008091BB048F5F8093BB04033081F584E4E4
:101B600062E00E943121812F61E00E94D60A84E761
:101B700062E00E94312180911905882361F480E29E
:101B800060E00E948E1D1C3010F080E501C081E4F1
:101B900061E00E948E1D80E066E00E94312180E7B6
:101BA00092E060E00E94C61D80E067E00E94312163
:101BB00086E892E060E00E94C61D05E69EC00536FC
:101BC000C1F584E462E00E943121812F60E00E942F
:101BD000D60A8AE360E00E948E1D8D2D61E00E948E
:101BE000BA0580E066E00E9431218CE992E060E075
:101BF0000E94C61D80E067E00E94312182EB92E0E6
:101C000060E00E94C61D84E762E00E94312180915D
:101C10001905882361F480E260E00E948E1D1C306B
:101C200010F080E501C081E460E00E948E1D06E6B0
:101C300064C0063651F580911905882311F486E5B4
:101C400001C082E662E00E9431218D2D60E00E9499
:101C5000BA058AE360E00E948E1D8F2D61E00E942C
:101C6000BA0580E066E00E94312188EC92E060E0F5
:101C70000E94C61D80E067E00E9431218EED92E057
:101C800060E00E94C61D07E638C0809119058823D0
:101C900011F488E601C084E762E00E9431218F2DB3
:101CA00060E00E94BA0580E066E00E94312189E48C
:101CB00092E060E00E94C61D80E067E00E94312152
:101CC0008FE592E060E00E94C61D10931605D09249
:101CD0002005F0922A0580912A0560912005409107
:101CE000160500911F05E0902905C0901A0520E017
:101CF0000E94D1050E94AE1403E08091BB04815084
:101D00008093BB048091BD0482FD04C08091BE0419
:101D100082FF02CF1092BD048091BB048F5F80933D
:101D2000BB04053649F5812F90E0019668E170E02B
:101D30000E94F92C182F8093160584E462E00E941B
:101D40003121812F61E00E94D60A84E762E00E947F
:101D50003121809119058823E9F580E260E00E9435
:101D60008E1D809116058C3010F080E501C081E455
:101D700061E00E948E1D2EC00636A1F48D2D90E0EC
:101D800001966CE370E00E94F92CD82E8091190521
:101D9000882311F486E501C082E662E00E943121C9
:101DA0008D2D15C00736B1F48F2D90E001966CE3B0
:101DB00070E00E94F92CF82E80911905882311F407
:101DC00088E601C084E762E00E9431218F2D61E046
:101DD0000E94BA058091BB0481508093BB0480911E
:101DE000BE0482FF99CE80ED97E0FE013197F1F7B6
:101DF0000197D9F791CEDF91CF911F910F91FF906D
:101E0000EF90DF90CF90BF9008950F931F93CF93E3
:101E1000DF930E94D90C8091BB048F5F8093BB0439
:101E200080E06BE047E00E948B088091BB0481500A
:101E30008093BB048AE08093BA0414E00AE0C8EC03
:101E4000D0E08091BD0480FDDBC08091BD0488237B
:101E500021F48091BE04882319F00093BA0407C0CE
:101E60008091BA04882319F410922605C9C0809184
:101E7000BD0481FF74C01092BD048091BB048F5FCC
:101E80008093BB041430C9F48091240561E00E9462
:101E9000910A80E066E00E94312180E792E060E0F4
:101EA0000E94C61D80E067E00E94312186E892E032
:101EB00060E00E94C61D15E64DC0153631F580E57F
:101EC00061E00E9431218091240560E00E94910A26
:101ED00082E661E00E94312180911B0561E00E9451
:101EE000BA0580E066E00E9431218CE992E060E072
:101EF0000E94C61D80E067E00E94312182EB92E0E3
:101F000060E00E94C61D16E625C080E561E00E94E3
:101F100031218091240560E00E94910A82E661E00F
:101F20000E94312180911B0560E00E94BA0580E08B
:101F300066E00E94312189E492E060E00E94C61DC3
:101F400080E067E00E9431218FE592E060E00E942E
:101F5000C61D14E08091BB0481508093BB04809126
:101F6000BD0482FD04C08091BE0482FF6ACF10923E
:101F7000BD048091BB048F5F8093BB041536A1F430
:101F80008091240590E0019668E170E00E94F92CB0
:101F9000809324058091240561E00E94910A60915C
:101FA000240581E090E019C01636C9F480911B0524
:101FB00090E001966CE370E00E94F92C80931B0581
:101FC00082E661E00E94312180911B0561E00E9460
:101FD000BA0560911B0582E090E00E945F2F80911E
:101FE000BB0481508093BB048091BE0482FF29CF43
:101FF00080ED97E0FE013197F1F70197D9F721CFF6
:10200000DF91CF911F910F9108950F931F930E941D
:10201000D90C8091BB048F5F8093BB0480E063E2A6
:1020200047E00E948B088091BB0481508093BB04E1
:102030008AE08093BA0418E00AE08091BD0480FD34
:10204000A8C08091BD04882321F48091BE04882318
:1020500019F00093BA0407C08091BA04882319F4D8
:102060001092260596C08091BD0481FF3BC010925E
:10207000BD048091BB048F5F8093BB041830B9F41A
:1020800081E00E940B0B80E066E00E94312184EF2A
:1020900092E060E00E94C61D80E067E00E9431216E
:1020A0008AE093E060E00E94C61D18E616C080E05A
:1020B0000E940B0B80E066E00E94312189E492E0EF
:1020C00060E00E94C61D80E067E00E94312180E24E
:1020D00093E060E00E94C61D18E08091BB0481502F
:1020E0008093BB048091BD0482FD04C08091BE0436
:1020F00082FFA3CF1092BD04183609F09ECF8091C5
:102100001905882359F0809123058F5F809323055B
:1021100080912305863010F01092230580911905D7
:1021200090E0882309F491E0909319058091BB0415
:102130008F5F8093BB040E94D90C80E066E00E9410
:10214000312184EF92E060E00E94C61D80E067E0EC
:102150000E9431218AE093E060E00E94C61D80E089
:1021600063E247E00E948B0881E00E940B0B8091A4
:10217000BB0481508093BB046091230585E090E00F
:102180000E945F2F6091190586E090E00E945F2F0A
:1021900054CF1F910F9108951F930E94D90C8091E5
:1021A000BB048F5F8093BB0480E066E00E94312116
:1021B00086E393E060E00E94C61D80E06BE247E0AA
:1021C0000E948B088091BB0481508093BB048AE0FD
:1021D0008093BA041AE08091BD0480FD41C08091D3
:1021E000BD04882321F48091BE04882319F0109344
:1021F000BA0407C08091BA04882319F41092260506
:102200002FC08091BD0481FF20C01092BD040E94A8
:1022100038260E94D90C8091BB048F5F8093BB0449
:1022200080E066E00E94312186E393E060E00E9456
:10223000C61D80E06BE247E00E948B088091BB04E2
:1022400081508093BB041093BA048091BD0482FD39
:1022500004C08091BE0482FFBECF1092BD04BBCFEC
:102260001F910895BF92CF92DF92EF92FF920F934A
:102270001F93CF93DF93F0901F0510912905D09005
:102280001A050E94D90C8091BB048F5F8093BB0418
:1022900080E06BE147E00E948B088091BB04815095
:1022A0008093BB048AE08093BA0405E04AE0B42E30
:1022B000C8ECD0E08091BD0480FD89C18091BD044F
:1022C000882321F48091BE04882319F0B092BA04C7
:1022D00007C08091BA04882319F41092260577C1AB
:1022E0008091BD0481FFE1C01092BD048091BB04C8
:1022F0008F5F8093BB040530F1F480912305882320
:1023000009F451C080912305823009F44CC08091BA
:102310002305843009F447C080912305853009F4F2
:1023200042C0809123058130C9F08091230583301C
:1023300009F086C013C00B3059F58091230588231E
:1023400069F080912305823049F080912305843023
:1023500029F080912305853009F050C0812F6F2D21
:102360004D2D2CE00E941C0C80E066E00E94312183
:1023700088E793E060E00E94C61D80E067E00E946D
:1023800031218EE893E060E00E94C61D0CE088C019
:102390000C3009F055C080912305813021F08091E7
:1023A00023058330D1F4812F6F2D4D2D2BE00E941A
:1023B0001C0C80E066E00E9431218CE493E060E038
:1023C0000E94C61D80E067E00E94312182E693E012
:1023D00060E00E94C61D0BE063C080912305882346
:1023E000A9F080912305823089F080912305843003
:1023F00069F080912305853019F508C08091230587
:10240000813021F0809123058330D1F4812F6F2D0D
:102410004D2D2DE00E941C0C80E066E00E943121D1
:1024200084EA93E060E00E94C61D80E067E00E94BD
:1024300031218AEB93E060E00E94C61D0DE030C0C0
:10244000812F6F2D4D2D25E00E941C0C80E066E051
:102450000E94312189E492E060E00E94C61D80E084
:1024600067E00E9431218FE592E060E00E94C61D86
:10247000D0921A0510932905F0921F0580912A0524
:10248000609120054091160500911F05E0902905F7
:10249000C0901A0520E00E94D1050E94AE1405E00C
:1024A0008091BB0481508093BB048091BD0482FD68
:1024B00004C08091BE0482FFFDCE1092BD048091C5
:1024C000BB048F5F8093BB040B3089F51F5F1D3009
:1024D00010F011E027C01230C1F48D2D90E00E9461
:1024E0005705882331F08DE18F1518F43DE1F32E67
:1024F00019C08D2D90E00E945705882399F48CE136
:102500008F1580F42CE1F22E0DC0143031F016300E
:1025100021F0193011F01B3029F48EE18F1510F4E1
:102520009EE1F92E812F6F2D4D2D2BE03DC00C30FB
:1025300069F5F3948FE18F1510F4FF24F3941230B2
:1025400099F48D2D90E00E945705882319F08DE1B4
:102550008F15A8F08D2D90E00E945705882389F4EF
:102560008CE18F1560F00DC0143031F0163021F081
:10257000193011F01B3029F48FE1F81611F4FF2403
:10258000F394812F6F2D4D2D2CE00EC00D3071F482
:102590008D2D90E0019664E670E00E94F92CD82E13
:1025A000812F6F2D4D2D2DE00E941C0C8091BB04BE
:1025B00081508093BB048091BE0482FF7BCE80ED6E
:1025C00097E0FE013197F1F70197D9F773CEDF91CC
:1025D000CF911F910F91FF90EF90DF90CF90BF9020
:1025E000089526982E9A81E080936800EBE6F0E04B
:1025F00080818064808382E080937C0010927B00E5
:10260000EAE7F0E08EE8808380818064808308952B
:1026100080917A00877F80937A0080917A0080642D
:1026200080937A0080917A0084FFFCCF209178001B
:1026300030917900C90108951F920F920FB60F9241
:1026400011242F933F934F935F936F937F938F93B7
:102650009F93AF93BF93EF93FF937894809178000B
:102660009091790022E0803E920728F01092BE04FB
:102670001092BC0473C022E08336920798F18091D7
:10268000BC0482FD6BC080E29EE40197F1F70E94DA
:102690000813825692408E37910508F05FC082E0A1
:1026A0008093BF0412C00E940813825692408E3756
:1026B000910558F08091BC048B7F8093BC0480917D
:1026C000BD0484608093BD0449C08091BF04882309
:1026D00051F78091BC0484608093BC048091BE0457
:1026E00084603AC08F509140E8F08091BC0481FD35
:1026F00010C080E29EE40197F1F70E9408138E500B
:1027000091408555914050F58091BD048260809341
:10271000BD048091BC0482608093BC048091BE049F
:1027200082601AC08091BC0480FD0EC080E29EE4ED
:102730000197F1F70E9408138F50914078F480912F
:10274000BD0481608093BD048091BC04816080934E
:10275000BC048091BE0481608093BE0480917A00A5
:10276000886480937A00FF91EF91BF91AF919F9120
:102770008F917F916F915F914F913F912F910F902A
:102780000FBE0F901F9018951F920F920FB60F92C9
:1027900011242F933F934F935F936F937F938F9366
:1027A0009F93AF93BF93EF93FF9378940E948E050E
:1027B000FF91EF91BF91AF919F918F917F916F9119
:1027C0005F914F913F912F910F900FBE0F901F90EF
:1027D00018952F923F924F925F926F927F928F92B5
:1027E0009F92AF92BF92CF92DF92EF92FF920F93A0
:1027F0001F932090C2043090C3044090C4045090B2
:10280000C5046090C6047090C7048090C80490907E
:10281000C904AA24BB246501F501E370F070EE0F32
:10282000FF1FEE0FFF1FEA5BFA4FE080F18002818D
:102830001381EA0CFB1C0C1D1D1DD401C30175E0A6
:10284000B695A795979587957A95D1F7A4019301A9
:1028500064E0220F331F441F551F6A95D1F782276A
:102860009327A427B527860D971DA81DB91DE82617
:10287000F9260A271B272E0C3F1C401E511E89EBF0
:1028800099E7A7E3BEE9A80EB91ECA1EDB1EA20186
:102890009101F5E05695479537952795FA95D1F72B
:1028A000D201C101E4E0880F991FAA1FBB1FEA955E
:1028B000D1F7282739274A275B27220D331D441DCE
:1028C000551DD601C5017BE0B695A79597958795CF
:1028D0007A95D1F783709070880F991F880F991F90
:1028E0008A5B9A4FFC0180819181A281B3818A0D1C
:1028F0009B1DAC1DBD1D282739274A275B27620E6B
:10290000731E841E951EF0E2AF16F7E3BF06FFEEBE
:10291000CF06F6ECDF0609F07FCF2092C20430929A
:10292000C3044092C4045092C5046092C6047092DD
:10293000C7048092C8049092C9041F910F91FF9020
:10294000EF90DF90CF90BF90AF909F908F907F904F
:102950006F905F904F903F902F900895EF92FF926D
:102960000F931F938EE691E7A9EEBDE28093460593
:1029700090934705A0934805B093490581ED9DEDDF
:10298000AFE3B9E980934A0590934B05A0934C05BA
:10299000B0934D0587E59BEFA7E7BAE280934E051C
:1029A00090934F05A0935005B093510580EB96EEA0
:1029B000A2E7B1EB8093520590935305A093540581
:1029C000B09355051092C2041092C3041092C4042F
:1029D0001092C5041092C6041092C7041092C80445
:1029E0001092C9040E94E913E0902405FF2400E03E
:1029F00010E0102F0F2DFE2CEE248091160590E094
:102A0000A0E0B0E0E82AF92A0A2B1B2B102F0F2D8B
:102A1000FE2CEE248091200590E0A0E0B0E0E82AB2
:102A2000F92A0A2B1B2B102F0F2DFE2CEE24809140
:102A30002A0590E0A0E0B0E0E82AF92A0A2B1B2B37
:102A40008091C6049091C704A091C804B091C904B4
:102A5000880F991FAA1FBB1F20914605309147057B
:102A6000409148055091490582279327A427B5270F
:102A70008093460590934705A0934805B093490578
:102A80000E94E913D801C701880F991FAA1FBB1F15
:102A900020914A0530914B0540914C0550914D05D0
:102AA00082279327A427B52780934A0590934B0547
:102AB000A0934C05B0934D050E94E9131695079518
:102AC000F794E79480914E0590914F05A0915005A1
:102AD000B0915105E826F9260A271B27E0924E05FA
:102AE000F0924F0500935005109351050E94E91391
:102AF0008091C6049091C704A091C804B091C90404
:102B0000B695A795979587952091520530915305D5
:102B1000409154055091550582279327A427B52746
:102B20008093520590935305A0935405B093550597
:102B30000E94E913E0901B05FF2400E010E0102F35
:102B40000F2DFE2CEE248091290590E0A0E0B0E04E
:102B5000E82AF92A0A2B1B2B102F0F2DFE2CEE240E
:102B600080911F0590E0A0E0B0E0E82AF92A0A2B46
:102B70001B2B102F0F2DFE2CEE2480911A0590E0B8
:102B8000A0E0B0E0E82AF92A0A2B1B2BD801C701E4
:102B9000880F991FAA1FBB1F20914605309147053A
:102BA000409148055091490582279327A427B527CE
:102BB0008093460590934705A0934805B093490537
:102BC0000E94E9138091C2049091C304A091C404AF
:102BD000B091C504880F991FAA1FBB1F20914A05F9
:102BE00030914B0540914C0550914D05822793271C
:102BF000A427B52780934A0590934B05A0934C05D5
:102C0000B0934D050E94E9138091C2049091C304D2
:102C1000A091C404B091C504B695A79597958795E2
:102C200020914E0530914F0540915005509151052E
:102C300082279327A427B52780934E0590934F05AD
:102C4000A0935005B09351050E94E913169507957E
:102C5000F794E7948091520590915305A091540503
:102C6000B0915505E826F9260A271B27E092520560
:102C7000F092530500935405109355051092C20429
:102C80001092C3041092C4041092C5041092C6049A
:102C90001092C7041092C8041092C9040E94E9134C
:102CA0001F910F91FF90EF900895982F81508230DF
:102CB00078F0A8950E94E9132091C6043091C704CA
:102CC0008091C2049091C304282739273F7743C0DD
:102CD0009130F9F48091C6049091C704A091C80482
:102CE000B091C9042091C2043091C3044091C4043E
:102CF0005091C50482279327A427B527EFE0B69506
:102D0000A79597958795EA95D1F79C012370307028
:102D100022C09230F9F48091C6049091C704A0912A
:102D2000C804B091C9042091C2043091C3044091F9
:102D3000C4045091C50482279327A427B52771E1C5
:102D4000B695A795979587957A95D1F79C012170AF
:102D5000307001C00895C90108959091B204809126
:102D60001705981739F081E08093C0048091B20470
:102D7000809317058091B204813059F0813030F092
:102D8000833051F0843059F481E003C0109256052D
:102D9000089580935605089581E08093560508951F
:102DA000CF93DF93C82FD0E0E42FF0E0E053F84F4B
:102DB000833010F42C963197262F30E02F5F3F4F51
:102DC0002E0F3F1FCE01880F991F280F391FCF01EB
:102DD0009695879596958795280F391FCF0160E9BD
:102DE00071E00E94E52C260F371FCF0164E670E0EA
:102DF0000E94E52C261B370BAE014F5F5F4FCA01C7
:102E0000880F991F840F951F880F991F6AE070E043
:102E10000E94E52CC901860F971F67E070E00E94B1
:102E2000E52CDF91CF91089590E08496AA2797FD35
:102E3000A095BA2FBC01CD010E94DB2A2BED3FE00B
:102E400049E45DE30E94E22B0E94452C20E030E043
:102E500040EA51E40E94E22B0E94162B20E030E071
:102E600048ED51E40E94452A0E94AD2ADC01CB01C5
:102E700008950F931F93482F062F603280F4E82F98
:102E8000F0E063E0EE0FFF1F6A95E1F7EA57FF4FAE
:102E900085919591A591B49120E230E015C0862FDF
:102EA0008052863110F010E01AC0E42FF0E053E0B9
:102EB000EE0FFF1F5A95E1F7E657FF4F8591959169
:102EC000A591B49120E430E0201B310904C0B695EF
:102ED000A795979587952A95D2F7182F1170842F6B
:102EE0000E941417282F112321F480E090E020176E
:102EF00011F481E090E01F910F9108952F923F927D
:102F00004F925F926F927F928F929F92AF92BF92F9
:102F1000CF92DF92EF92FF920F931F93DF93CF93A5
:102F200000D000D0CDB7DEB7182F80E060E040E8D9
:102F300026E3012F0E94D71DF6E8CF2EF0E0DF2E0A
:102F4000EE24FF24F6012590359045905490F6012B
:102F500034966590759085909490C7019695879565
:102F60008A831C821B828B81898370E2A72EB12CFD
:102F7000EB81FC81AE1ABF0AD201C1010A2C04C048
:102F8000B695A795979587950A94D2F7817090701A
:102F9000892B51F000E0112309F401E08A81698155
:102FA00041E021E00E94D71DD401C30104C0B695C1
:102FB000A79597958795AA94D2F781709070892BE1
:102FC00079F08B819C8147975CF46981615E00E0B8
:102FD000112309F401E08A8141E021E00E94D71D1C
:102FE000EB81FC813196FC83EB83B09709F0BBCF7A
:102FF00082E090E0E80EF91EE8E0F0E0CE0EDF1E81
:10300000F0E0EF16F1E0FF0609F09CCFFF2411235A
:1030100011F4FF24F39480E060E040E821E00F2DFC
:103020000E94D71D10E0812F0E941417682F812F56
:1030300041E021E00F2D0E94D71D1F5F103899F746
:103040000F900F900F900F90CF91DF911F910F91E4
:10305000FF90EF90DF90CF90BF90AF909F908F90B8
:103060007F906F905F904F903F902F9008950F93B7
:103070001F93182F80E060E040E820E4012F0E94B9
:10308000D71D812F0E947E1780E066E340E82AE08A
:103090000E94D71D00E0112309F401E080E066E3FF
:1030A00040E821E00E94D71D81E067E00E943121C5
:1030B00080ED93E0612F0E94C61D81E08093C004E3
:1030C0001F910F910895BF92CF92DF92EF92FF92DE
:1030D0000F931F93CF93DF93D82E809156058823AB
:1030E00009F446C080915A05882309F041C08EE05A
:1030F00066E044E62CE20D2D0E94D71D8EE066E0CE
:1031000044E62CE20E94C71E80E168E040E628E227
:103110000E94C71E81E080935A058091B2048130DD
:1031200039F50FE215E0F80101900020E9F7319739
:10313000E01BF10B9F01220F331F2E0F3F1F220FA9
:10314000331F80E690E0821B930B969587958E5EE9
:1031500062E00E943121C8016D2D0E94C61D84E2EB
:1031600064E00E9431218AE395E06D2D0E94C61D26
:1031700080915605882309F46EC080915A058823F2
:1031800009F469C08091B204833009F064C0809171
:103190002A0580FF07C083E362E00E94312184EDAD
:1031A00093E006C083E362E00E9431218AED93E060
:1031B0006D2D0E94C61D81E364E00E9431210091C3
:1031C000240580911905882349F4809124058D30C8
:1031D00028F0009124050C5011E001C010E00A30E5
:1031E00030F480911905882311F480E205C0802F06
:1031F0006AE00E94D92C805D6D2D0E948E1D802F6B
:103200006AE00E94D92C892F805D6D2D0E948E1D51
:103210008AE36D2D0E948E1D80911B056AE00E943D
:10322000D92C805D6D2D0E948E1D80911B056AE05A
:103230000E94D92C892F805D6D2D0E948E1D80915A
:103240001905882341F4112311F080E501C081E4C0
:103250006D2D0E948E1D80915605882371F48091FA
:103260005A05882351F08D2D0E947E1710925A0521
:1032700081E08093C0048093C1048091C1048823BD
:1032800009F47EC080915A05882339F080915C054D
:103290008D3018F0823708F473C01092C104809109
:1032A00039050E941417FF243CEFC32EC80E28C016
:1032B0008091390581508F0D612F0E9439179091AF
:1032C0003905882359F0892F81508F0D00E0DD20CA
:1032D00009F401E0612F41E021E007C09150892FFE
:1032E0008F0D612F41E021E00D2D0E94D71DE39449
:1032F0001F5F88E0E816E1F6F394E5E0FE1619F0AA
:103300001C2DEE24D5CF80915C050E94141727EF69
:10331000E22E23E0F22ECC249CEFB92EB80E2CC066
:10332000F701808190E00C2E02C0959587950A9454
:10333000E2F790915C0580FF0BC0892F81508C0DC6
:1033400000E0DD2009F401E0612F41E021E007C049
:103350009150892F8C0D612F41E021E00D2D0E94AD
:10336000D71D21971F5FCC23D9F6C3940894E11C85
:10337000F11CF5E0CF1621F01B2DC8E0D0E0D0CF36
:103380008091C004882309F4A7C01092C00483E18F
:1033900067E34DE629E00D2D0E94D71D809122059F
:1033A000882359F100EFE02E03E0F02E1BE2C12E3E
:1033B00020C0F701808190E00C2E02C09595879582
:1033C0000A94E2F780FF0AC000E0DD2009F401E082
:1033D0008C2D612F41E021E00E94D71D21971F5FB6
:1033E0001F3339F70894E11CF11CC394F2E3CF16A4
:1033F00021F0C7E0D0E018E3DCCF809114058823EA
:1034000059F1BCEFEB2EB3E0FB2EA4E3CA2E20C093
:10341000F701808190E00C2E02C0959587950A9463
:10342000E2F780FF0AC000E0DD2009F401E08C2D06
:10343000612F41E021E00E94D71D21971F5F1F33BC
:1034400039F70894E11CF11CC394FFE3CF1621F077
:10345000C8E0D0E017E3DCCF8BE567E00E943121C4
:1034600080912D058A3010F480E204C06AE00E9449
:10347000D92C805D6D2D0E948E1D80912D056AE0F6
:103480000E94D92C892F805D6D2D0E948E1D8AE3AC
:103490006D2D0E948E1D809120056AE00E94D92C1E
:1034A000805D6D2D0E948E1D809120056AE00E9436
:1034B000D92C892F805D6D2D0E948E1D809119055C
:1034C000882351F480915B05882311F080E501C0C9
:1034D00081E46D2D0E948E1D87E667E00E943121F8
:1034E00080915705882311F08AE301C080E26D2D99
:1034F0000E948E1DDF91CF911F910F91FF90EF9051
:10350000DF90CF90BF900895809119058823D9F45A
:10351000809116058D3048F0809116058C5080936F
:103520002D0581E080935B0512C080911605809384
:103530002D0580911605882319F48CE080932D05C4
:1035400010925B0504C08091160580932D05809133
:10355000290560911F0540911A050E94D01680939D
:103560002C0580932E05E82FF0E0EE0FFF1FE154AD
:10357000FB4F25913591459154918FE295E0B9012A
:103580000E94492D10925A051092560580912205ED
:10359000809359058091B204809317058091190595
:1035A0008093580583E08093390580935C05809172
:1035B0002A058093450585E08093C1040895809194
:1035C000AF04882351F48091B004882331F49091A2
:1035D000190580915805981769F191E09093C004FE
:1035E0001092AF041092B004809119058823D1F491
:1035F000809116058D3040F0809116058C50809397
:103600002D0590935B0512C08091160580932D05C2
:1036100080911605882319F48CE080932D05109273
:103620005B0504C08091160580932D0580911905D6
:10363000809358058091290560911F0540911A05D6
:103640000E94D016982F80932E0580912C059817F4
:1036500099F0E92FF0E0EE0FFF1FE154FB4F2591A9
:103660003591459154918FE295E0B9010E94492D21
:1036700080912E0580932C0580912A059091450517
:10368000891701F180912A05891720F480912A0574
:10369000855C02C080912A05891B853198F0809154
:1036A0005C05809339058F5F80935C058D3718F03A
:1036B00083E080935C0580912A058093450581E035
:1036C0008093C1049091220580915905891739F0A2
:1036D00081E08093C00480912205809359058091F8
:1036E0005605882309F44EC080915A05882309F0B5
:1036F00049C080912305882321F0809123058230E1
:10370000B1F42091290530911F0540911A058DB71C
:103710009EB70A970FB6F8949EBF0FBE8DBFEDB748
:10372000FEB731968AE395E0ADB7BEB713C02091DE
:103730001F053091290540911A05ADB7BEB71A97FC
:103740000FB6F894BEBF0FBEADBFEDB7FEB7319652
:103750008AE395E012969C938E93119780EE93E006
:103760009383828324831582368317824087118650
:103770000E94502D8DB79EB70A960FB6F8949EBF43
:103780000FBE8DBF80912A0580FF04C081E0809329
:10379000570508951092570508959093C50080939A
:1037A000C40088E18093C1008EE08093C200519AEA
:1037B0005098089506C090E000009F5F9E31E1F7A9
:1037C00081508823C1F7089548EC50E009C020E1FA
:1037D00037E2FA013197F1F721503040D1F78150AB
:1037E0008823A9F70895982F8091C00085FFFCCF0A
:1037F0009093C60080E090E008958091C00087FF1C
:10380000FCCF8091C60008958091C0008078089513
:10381000AC0120E007C08091C00085FFFCCF309351
:10382000C6002F5FFA01E20FF11D3491332399F79F
:10383000662371F08091C00085FFFCCF8AE0809301
:10384000C6008091C00085FFFCCF8DE08093C6004C
:103850000895FC0107C08091C00085FFFCCF319620
:103860009093C60090819923B1F70895282F982F3F
:1038700092959F709A3030F48091C00085FFFCCF04
:10388000905D05C08091C00085FFFCCF995A909350
:10389000C600822F90E08F7090700A973CF4809160
:1038A000C00085FFFCCF2F70205D06C08091C00056
:1038B00085FFFCCF2F70295A2093C60008951F93CF
:1038C000182F892F0E94361C812F0E94361C1F91B1
:1038D0000895EF92FF920F931F937B018C01C80113
:1038E000AA27BB270E945F1CC7010E945F1C1F9173
:1038F0000F91FF90EF9008950F931F93CF93DF9355
:103900008C01E0E1F7E240E0C0E0D0E0C801BF0197
:103910000E94E52C262F662329F4442319F4E13074
:10392000F10549F48091C00085FFFCCF205D209314
:10393000C600205341E0CF016AE070E00E94E52C10
:103940002196C530D10571F0822F90E09C012E9F09
:10395000C0012F9F900D3E9F900D1124081B190B45
:10396000FB01D4CFDF91CF911F910F9108951F9349
:10397000CF93DF93482F87FF08C08091C00085FF59
:10398000FCCF8DE28093C6004195E4E6F0E010E0C4
:10399000C0E0D0E0842F992787FD9095BF010E9459
:1039A000E52C262F16162CF0112319F4E130F10521
:1039B00049F48091C00085FFFCCF205D2093C600B4
:1039C000205311E0CF016AE070E00E94E52C2196BF
:1039D000C330D10531F02E9F802D1124481BFB01EF
:1039E000D9CFDF91CF911F9108954F925F926F923F
:1039F0007F928F929F92AF92BF92CF92DF92EF927F
:103A0000FF920F931F93CF93DF934B015C01E12C47
:103A10009AECF92E9AE9092F9BE3192F4424C0E070
:103A2000D0E0C501B401A80197010E940C2DD22E4F
:103A3000222341F4442031F481E0E816F104010529
:103A4000110561F48091C00085FFFCCF80E3D80EA2
:103A5000D092C60080EDD80E44244394C801B7012B
:103A60002AE030E040E050E00E940C2DC22E732E80
:103A7000642E552E2196CA30D105A9F06D2D70E027
:103A800080E090E0A80197010E94BA2C861A970A5C
:103A9000A80AB90A2C2D372D462D552DC901DA015A
:103AA0007C018D01BECFDF91CF911F910F91FF90CF
:103AB000EF90DF90CF90BF90AF909F908F907F90CE
:103AC0006F905F904F90089508950F931F93CF9339
:103AD000DF93482F30E020E007C0855C9A4FFC015F
:103AE00084918F5F280F3F5F822F90E03417A8F3F7
:103AF000FC01E55CFA4F0491EC01C45CDA4F10E084
:103B000006C0FE0184910E94D8201F5F21961017E5
:103B1000C0F3DF91CF911F910F910895DF92EF9243
:103B2000FF920F931F93CF93DF93D62E95E0899F3B
:103B3000C0011124EC01C255DB4F8E0123EBE22EB4
:103B400024E0F22EE80EF91EDD2021F0FE01849122
:103B5000809502C0F80184910E94D82021960F5FC1
:103B60001F4FCE15DF0581F7DD2011F08FEF01C06B
:103B700080E00E94D82080E00E942421DF91CF9134
:103B80001F910F91FF90EF90DF9008951F93CF93B7
:103B9000DF93EC01162F04C0612F0E948E1D219629
:103BA00088818823C9F7DF91CF911F9108952F92C3
:103BB0003F924F925F926F927F928F929F92AF92BD
:103BC000BF92CF92DF92EF92FF920F931F93CF930A
:103BD000DF93282E162F342EF22E402EC62FD0E043
:103BE000C770D070209709F45BC0562E5694569437
:103BF0005694EE2467E0C62EC1228C2C992487FCB3
:103C000090945E01A20EB11C51E0652E712C35C05E
:103C1000DE2CD20C8D2D652D0E9431210E948B202F
:103C20000E948B20082F40E050E015C081E048162C
:103C300041F4C30102C0880F991F2A95E2F7082BAF
:103C400008C0C30102C0880F991F2A95E2F780952A
:103C500008234F5F5F4F9A01280D391D2A153B0538
:103C600024F48C2D840F883009F78D2D652D0E944A
:103C70003121802F0E94D820E394E31448F22F2DA5
:103C800030E088E090E08C1B9D0B8217930714F0C6
:103C9000FF2404C0812F87708850F80E187F185FAA
:103CA000E12EE694E694E694C12FD0E0CF0DD11D2D
:103CB00043E0D595C7954A95E1F712C0822D6E2D48
:103CC0000E94312110E009C081E0481611F48FEF05
:103CD00001C080E00E94D8201F5F1315A8F3E39471
:103CE0008E2D90E08C179D074CF32F2D2770C9F176
:103CF00000E0C22FD0E031E0A32EB12C30C0F02E76
:103D0000F20C8F2D6E2D0E9431210E948B200E947B
:103D10008B20182F20E030E017C081E0481649F4CE
:103D2000C501022E02C0880F991F0A94E2F7182BD2
:103D300009C0C501022E02C0880F991F0A94E2F73C
:103D4000809518232F5F3F4F2C173D0734F38F2D9D
:103D50006E2D0E943121812F0E94D8200F5F031504
:103D600070F280E00E942421DF91CF911F910F918A
:103D7000FF90EF90DF90CF90BF90AF909F908F908B
:103D80007F906F905F904F903F902F900895DF92BB
:103D9000EF92FF920F931F93F82E162FD42EE22E40
:103DA00041E001E00E94D71D8F2D81508D0D612FC4
:103DB00041E02E2D0E94D71D8F2D612F4D2D21E02A
:103DC0000E94D71D11501E0D8F2D612F4D2D21E00A
:103DD0000E94D71D1F910F91FF90EF90DF900895E3
:103DE000EF92FF920F931F93F82E162F062F069532
:103DF00006950695602F0E9431210E948B200E941B
:103E00008B20E82E8F2D602F0E943121177081E0CA
:103E100090E002C0880F991F1A95E2F780958E21D5
:103E20000E94D82080E00E9424211F910F91FF90D2
:103E3000EF900895EF92FF920F931F93F82E162F95
:103E4000062F069506950695602F0E9431210E9447
:103E50008B200E948B20E82E8F2D602F0E94312115
:103E6000177081E090E002C0880F991F1A95E2F761
:103E70008E290E94D82080E00E9424211F910F915A
:103E8000FF90EF9008953F924F925F926F927F92D2
:103E90008F929F92AF92BF92CF92DF92EF92FF925A
:103EA0000F931F93CF93DF93D82EC62E322E462E1C
:103EB000481AE42EFF24C701880F991FCC27DD275D
:103EC000C81BD90B23965D2C662E762EAA24BB2404
:103ED0008824992481E0381641F50E2D0C0D8D2D86
:103EE000602F0E941A1F9C2D9E19192F8D2D692F4E
:103EF0000E941A1F852D602F0E941A1F852D612F89
:103F00000E941A1F0419802F662D0E941A1F802FED
:103F1000672D0E941A1F1419812F662D0E941A1FE7
:103F2000812F672D0E941A1F27C00E2D0C0D8D2D7D
:103F3000602F0E94F01E8C2D8E19182F8D2D612F51
:103F40000E94F01E852D602F0E94F01E852D612F8E
:103F50000E94F01E0419802F662D0E94F01E802FF3
:103F6000672D0E94F01E1419812F662D0E94F01EED
:103F7000812F672D0E94F01ED7FF04C02696C80D22
:103F8000D91D0DC02A96C5018E199F09880F991F4A
:103F9000880F991FC80FD91F0894E108F1080894E9
:103FA000A11CB11C84E090E0880E991ED3945A9411
:103FB00063947A94EA14FB040CF08CCFDF91CF91D8
:103FC0001F910F91FF90EF90DF90CF90BF90AF9037
:103FD0009F908F907F906F905F904F903F9008954B
:103FE0002F982D982C9840985A98279A259A249A79
:103FF000389A529A8BB18F708BB985B1807F85B911
:104000008AB1806F8AB984B18F6084B9089540986D
:104010005A98882319F0813021F402C0409A0895FB
:104020005A9A0895F8940E9407208BB1806F8BB93B
:1040300085B18F6085B92F988AB18F708AB984B1A4
:10404000807F84B92D9A2C9A000000000AC02C9819
:1040500000000000000000002C9A0000000000009A
:10406000000089B193B187FDF2CF2C982D988AB1C9
:10407000806F8AB984B18F6084B9789408951F9352
:10408000162FF8940E9412202F982D982C9A8AB1FE
:10409000806F8AB984B18F6084B98BB18F708BB90E
:1040A0009BB1812F807F892B8BB985B1807F85B9AA
:1040B00085B11F70812B85B9000000000000000051
:1040C00000000000000000002C9878941F910895D3
:1040D000F8940E9412202F988AB18F708AB984B107
:1040E000807F84B92D9A2C9A000000000000000007
:1040F000000000000000000029B183B12C982D9829
:104100009AB1906F9AB994B19F6094B978948F7076
:10411000207F822B0895F89480915D058295869585
:10412000869583700E9412202F9A8AB18F708AB967
:1041300084B1807F84B92D9A2C9A00000000000081
:104140000000000000000000000099B183B12C982D
:104150002D9878948F70907F892B0895089580937F
:104160005D0580E060E40E943F2010925F0581E0E1
:1041700060E40E943F201092610580915D05682FE8
:104180006F73606482958695869583700E943F2048
:1041900008951F93182F80935E05186B80E0612FA0
:1041A0000E943F2081E0612F0E943F201F910895CF
:1041B0000F931F93182F00915D05029506950695A4
:1041C0000370F894802F0E9412202F9A2D982C9A19
:1041D0008AB1806F8AB984B18F6084B98BB18F70D6
:1041E0008BB99BB1812F807F892B8BB985B1807F63
:1041F00085B985B11F70812B85B9000000000000D2
:10420000000000000000000000002C987894E02FCF
:10421000F0E0EE0FFF1FE15AFA4F80818F5F80833D
:1042200080915D058F5F80935D0587FF0AC0809157
:104230005E058F5F80935E050E94C92080E00E942A
:10424000AF201F910F9108951F93182F106C80E0DD
:10425000612F0E943F2081E0612F0E943F201F912B
:1042600008951F93182F862F0E94C920812F0E9426
:10427000AF201F9108950F931F9300E080E0602FFF
:104280000E94312110E080E00E94D8201F5F10388A
:10429000D1F70F5F083091F71F910F91089580E0DB
:1042A0000E94242180E060E00E94312110925F058D
:1042B00010926005109261051092620508950E94A7
:1042C000F01F80E06FE30E943F2081E06FE30E94D7
:1042D0003F200E943B210E944F210895982F86E0A5
:1042E000689F802D1124692F0E943121089508951F
:1042F000459A449A109211051092100510921305D8
:104300001092120580E28093B800ECEBF0E080811F
:10431000846080831092CA04808181608083808160
:10432000806480837894089580E28093B800089533
:1043300090E0611191E08E7F982B9093BA000895E0
:104340009093110580931005089590931305809321
:1043500012050895ECEBF0E080818F70806A808315
:104360000895ECEBF0E080818F70806D808308957C
:104370008091BC0087FFFCCF08958093BB00ECEBDD
:10438000F0E080818F70806880830895882329F011
:104390008091BC008F70806C04C08091BC008F70D5
:1043A00080688093BC0008958091BB00089580913F
:1043B000B9000895982F8091CA048823E1F782E01C
:1043C0008093CA049E7F9093CB04ACECB4E0FA01D6
:1043D00002C081918D938E2F841B8617D0F310928B
:1043E000EC046093ED048091BC008F70806A809330
:1043F000BC000895982F8091CA048823E1F783E0D8
:104400008093CA0491609093CB0410920E05609340
:104410000F058091BC008F70806A8093BC008091F2
:10442000CA048823E1F7AEEEB4E0FA0102C08D9130
:1044300081938E2F841B8617D0F30895982FFA014D
:104440008091BC008E7F8093BC008091BC008F70F7
:10445000806A8093BC008091BC0087FFFCCF9E7F68
:104460009093BB008091BC008F7080688093BC00EB
:104470008091BC0087FFFCCF8091B900883189F022
:1044800091E012C080818093BB008091BC008F704E
:1044900080688093BC008091BC0087FFFCCF319680
:1044A0006150662379F790E08091BC008F70806D39
:1044B0008093BC008091BC0084FFFCCF8091BC0045
:1044C00081608093BC00892F08951F93CF93DF9361
:1044D000982F162FEA018091BC008E7F8093BC003C
:1044E0008091BC008F70806A8093BC008091BC007A
:1044F00087FFFCCF91609093BB008091BC008F70D0
:1045000080688093BC008091BC0087FFFCCF8091C5
:10451000B900803469F091E018C08FEF0E94C62185
:104520008091BC0087FFFCCF8091BB008993115024
:10453000123098F780E00E94C6218091BC0087FF6E
:10454000FCCF8091BB00888390E08091BC008F708D
:10455000806D8093BC008091BC0081608093BC0022
:10456000892FDF91CF911F9108958091CA040895FA
:104570001F920F920FB60F9211242F933F934F93D8
:104580005F936F937F938F939F93AF93BF93EF93BB
:10459000FF938091B900887F883609F4CBC08936B3
:1045A00088F5803309F495C08133B0F4803109F483
:1045B0005AC0813138F4882309F43EC1883009F0AB
:1045C00048C151C0803209F484C0883209F453C014
:1045D000883109F03EC14FC0883409F47AC089346B
:1045E00038F4883309F478C0803409F032C192C0BD
:1045F000883509F45DC0803609F49CC0803509F027
:1046000028C174C0803A09F4BEC0813AB0F4803841
:1046100009F49BC0813838F4803709F48BC088379F
:1046200009F017C187C0803909F48FC0883909F4AF
:10463000A1C0883809F00DC19DC0883B09F4D1C0E4
:10464000893B38F4883A09F4B6C0803B09F001C1CF
:10465000B2C0883C09F4E0C0883F09F4E7C0803C60
:1046600009F0F7C0D9C08BE798E060E00E94081C11
:104670008091CB0414C08CE598E060E00E94081C97
:104680009091EC048091ED04981708F0DAC0E92FBE
:10469000F0E0E453FB4F80819F5F9093EC048093A4
:1046A000BB008091BC008F7080688093BC00D1C03B
:1046B00087E498E060E00E94081C80910E059091CC
:1046C000BB00E82FF0E0E251FB4F90838F5F8093B7
:1046D0000E0581E298E0B2C08DE098E060E00E94B3
:1046E000081C8091BC008F708068AFC089EF97E094
:1046F00060E00E94081C8091BB0090910E05E92F9C
:10470000F0E0E251FB4F80839F5F90930E0590E0B5
:104710000E945F1C86EE97E060E00E94081C2091DA
:104720000E0530E080910F0590E0019728173907BA
:1047300034F51EC083ED97E060E00E94081C85E020
:104740008093CA0410920E0562C08FEB97E060E080
:104750000E94081C80910E059091BB00E82FF0E0AC
:10476000E251FB4F90838F5F80930E05803238F4C7
:104770008FEF06C08AEA97E060E00E94081C80E0A4
:104780000E94C62166C087E997E060E00E94081C8D
:104790008091BC008F70806C8093BC00E09110050C
:1047A000F0911105309709F452C080910E056EEE1C
:1047B00074E009954CC084E897E060E00E94081C12
:1047C00084E08093CA04E0911205F09113053097BC
:1047D00031F080E26CEC74E009958093ED04109266
:1047E000EC0480E797E060E00E94081C9091EC04E4
:1047F000E92FF0E0E453FB4F80818093BB009F5F83
:104800009093EC048091ED04981708F04ACF8091C2
:10481000BC008F70806C49CF8EE497E060E00E940E
:10482000081C8091BC008F70806C0FC08FE397E0F4
:1048300060E00E94081C0DC08EE297E060E00E94DC
:10484000081C8091BC008F70806D8093BC0010921A
:10485000CA04FF91EF91BF91AF919F918F917F918A
:104860006F915F914F913F912F910F900FBE0F90DD
:104870001F901895482F20918F04309190048091BB
:10488000910490919204281B390B37FF0CC02091A2
:104890008F0430919004809191049091920420565D
:1048A0003A4F281B390B8CE3489FA0011124460F77
:1048B000511D8091910490919204BA01681B790B6B
:1048C000CB0177FF0AC08091910490919204BA01C4
:1048D000681B790BCB0180569A4F8217930718F407
:1048E0008091940402C0809193048093B400089551
:1048F0000F931F9390E00197E62FF0E0EE0FFF1F5C
:10490000ED56FB4F20813181820F931F8C0120E0F7
:1049100030E0E42FF0E0CF0183709070892B99F4A0
:10492000633088F0842F64E60E94D92C992339F4EF
:10493000CF0160E971E00E94F92C892B21F40F5F0F
:104940001F4F2F4F3F4FC901B80120E831E541E02B
:1049500050E00E94BA2C1F910F910895DF92EF92C0
:10496000FF920F931F93D82E162FE42EF22E822F34
:1049700061E0402F0E94D016181718F0612F6F5F6A
:1049800002C0612F685F681B87E0E89EC0011124A8
:104990008750860F6F2D402F0E9478244D2D50E0B8
:1049A00020E13EE0F9014E9F90014F9F300D5E9F48
:1049B000300D1124442737FD4095542F260F371F03
:1049C000481F591FB901CA011F910F91FF90EF9025
:1049D000DF9008958EE090E00E94512F823010F415
:1049E0008093140508951F93182F8EE090E00E9485
:1049F000512F811729F08EE090E0612F0E945F2FE8
:104A00001F9108954F925F926F927F928F929F9223
:104A1000AF92BF92CF92EF920F931F93DF93CF93FA
:104A200000D000D0CDB7DEB75C0180911605882399
:104A300031F480912005882311F41092150500911E
:104A40001A05D5018C9111966C91119712964C9183
:104A5000129713962C910E94AE2469837A838B83DC
:104A60009C8300911A05F501848165814681278127
:104A70000E94AE242B013C0180911F056091290505
:104A800040911A050E9478244B015C016091160543
:104A90002091200580912A05880E911CA11CB11C33
:104AA00070E080E19EE0AC01649FC001659F900DC5
:104AB000749F900D1124AA2797FDA095BA2F880EF8
:104AC000991EAA1EBB1E8CE3289F90011124442727
:104AD00037FD4095542F820E931EA41EB51E89816A
:104AE0009A81AB81BC8188169906AA06BB0628F07C
:104AF00084149504A604B70468F1809114058823F2
:104B0000D9F0809115058823B9F4109214050E94FC
:104B1000F32481E0809315054091160580912A05C4
:104B20006091200500911F05E0902905C0901A05AD
:104B3000415020E00E94D10589819A81AB81BC81DE
:104B400088169906AA06BB0628F184149504A604C3
:104B5000B70400F5809114058823E1F480911505D0
:104B60008823C1F411E01093140581E00E94F3241E
:104B7000109315054091160580912A056091200536
:104B800000911F05E0902905C0901A054F5F20E0B5
:104B90000E94D1050F900F900F900F90CF91DF9151
:104BA0001F910F91EF90CF90BF90AF909F908F90FB
:104BB0007F906F905F904F900895EF92FF920F93C8
:104BC0001F93CF93DF9388E090E00E94592FEC0170
:104BD0008AE090E00E94592F8C018CE090E00E94C6
:104BE000512FF82E8DE090E00E94512FE82E85E0A5
:104BF000C13AD80728F4D0939004C0938F0408C01A
:104C000060918F047091900488E090E00E946D2F75
:104C100085E0013A180728F4109392040093910458
:104C200008C060919104709192048AE090E00E9423
:104C30006D2F80E18F1518F0F092930406C06091FB
:104C400093048CE090E00E945F2F80E18E1518F0B5
:104C5000E092940406C0609194048DE090E00E947C
:104C60005F2FDF91CF911F910F91FF90EF900895EB
:104C7000EF92FF920F931F93CF93DF938091BB042A
:104C80008F5F8093BB040E943B218CE160E00E9417
:104C9000312187E094E060E00E94C61D80E067E07B
:104CA0000E94312184E194E060E00E94C61D80E012
:104CB00066E00E9431218AE294E060E00E94C61D15
:104CC00088E061E00E9431218CE394E060E00E9482
:104CD000C61D8CE561E00E94312180919104909184
:104CE00092046CE370E00E94E52CF62E0091910492
:104CF00010919204862F60E00E94D60A8AE360E059
:104D00000E948E1DC8016CE370E00E94E52C60E0FB
:104D10000E94BA0580911905882349F42CE02F15CB
:104D200010F480E501C081E460E00E948E1D88E0FF
:104D300062E00E94312188E494E060E00E94C61D98
:104D400084E762E00E9431218091940460E00E9437
:104D5000BA0588E064E00E94312189E594E060E0D2
:104D60000E94C61D8CE564E00E94312180918F0471
:104D7000909190046CE370E00E94E52CF62E009177
:104D80008F0410919004862F60E00E94D60A8AE377
:104D900060E00E948E1DC8016CE370E00E94E52C6B
:104DA00060E00E94BA0580911905882349F48CE0DF
:104DB0008F1510F480E501C081E460E00E948E1D33
:104DC00088E065E00E94312188E494E060E00E9480
:104DD000C61D84E765E00E9431218091930460E064
:104DE0000E94BA0580E06BE047E00E948B081AE061
:104DF0003AE0E32EC8ECD0E08091BD0480FF44C0CF
:104E00001092BD04183051F1193028F4812F8150CF
:104E1000863028F439C0193099F01A3019F0FF247F
:104E2000F39433C080E060E047E020E300E00E94BC
:104E3000D71D80E063E147E00E948B0819E024C0A1
:104E400080E060E047E020E300E00E94D71D80E0C2
:104E500063E247E00E948B0818E016C080E060E043
:104E600047E020E300E00E94D71D80E06BE247E0CE
:104E70000E948B0880E067E00E94312186E694E082
:104E800060E00E94C61D17E0FF248091BD048823C6
:104E900021F48091BE04882319F0E092BA0405C081
:104EA0008091BA04882309F4E3C28091BD0481FF94
:104EB0008EC11092BD04153009F43CC1163080F447
:104EC000123009F4C8C0133020F4113009F07FC14A
:104ED00075C0133009F4E0C0143009F078C12AC05D
:104EE000183009F497C0193038F4163009F443C16A
:104EF000173009F06CC14AC0193021F01A3009F09E
:104F000066C1F7C0809194048093B40084E762E0A6
:104F10000E9431218091940461E00E94BA0580E0F2
:104F200066E00E9431218DE794E060E00E94C61D9A
:104F300014E04DC184E762E00E9431218091B40009
:104F400060E00E94BA058091B400809394041091AF
:104F500094048DE090E00E94512F181731F0609179
:104F600094048DE090E00E945F2F8091160560917F
:104F700020050E943A2480E066E00E9431218AE206
:104F800094E060E00E94C61D19E021C18091930465
:104F90008093B40084E765E00E94312180919304FE
:104FA00061E00E94BA0580E066E00E9431218DE751
:104FB00094E060E00E94C61D11E009C184E765E04D
:104FC0000E9431218091B40060E00E94BA05809176
:104FD000B40080939304109193048CE090E00E94BD
:104FE000512F181731F0609193048CE090E00E94EB
:104FF0005F2F80911605609120050E943A2480E081
:1050000066E00E9431218AE294E060E00E94C61DC1
:1050100017E0DDC08CE564E00E94312180918F04AF
:10502000909190046CE370E00E94E52C862F61E083
:105030000E94D60A80911605609120050E943A24AC
:1050400080E066E00E9431218DE794E060E00E94FC
:10505000C61D12E0BCC08CE564E00E943121809145
:105060008F04909190046CE370E00E94E52C862FF1
:1050700060E00E94D60A8EE664E00E9431218091B1
:105080008F04909190046CE370E00E94E52C61E045
:105090000E94BA0513E09BC08EE664E00E943121B5
:1050A00080918F04909190046CE370E00E94E52C55
:1050B00060E00E94BA0580E066E00E9431218AE249
:1050C00094E060E00E94C61D00918F04109190044E
:1050D00088E090E00E94592F0817190741F060916D
:1050E0008F047091900488E090E00E946D2F18E08A
:1050F0006EC08CE561E00E94312180919104909115
:1051000092046CE370E00E94E52C862F61E00E941F
:10511000D60A80911605609120050E943A2480E00D
:1051200066E00E9431218DE794E060E00E94C61D98
:1051300015E04DC08CE561E00E9431218091910421
:10514000909192046CE370E00E94E52C862F60E061
:105150000E94D60A8EE661E00E943121809191047E
:10516000909192046CE370E00E94E52C61E00E9453
:10517000BA0516E02CC08EE661E00E9431218091D4
:105180009104909192046CE370E00E94E52C60E041
:105190000E94BA0580E066E00E9431218AE294E034
:1051A00060E00E94C61D00919104109192048AE073
:1051B00090E00E94592F0817190741F0609191045F
:1051C000709192048AE090E00E946D2F1AE0809125
:1051D000BD0482FD04C08091BE0482FF46C11092CE
:1051E000BD04143071F48091B4008F5F8093B400DB
:1051F0008091B400813110F01092B40084E762E035
:105200000FC01130A9F48091B4008F5F8093B40077
:105210008091B400813110F01092B40084E765E011
:105220000E9431218091B40061E00E94BA051DC145
:10523000123009F04EC080918F0490919004CC966A
:105240009093900480938F0480918F0490919004A8
:10525000805A954060F080918F04909190046CE3A7
:1052600070E00E94E52C9093900480938F048CE56D
:1052700064E00E94312180918F04909190046CE34E
:1052800070E00E94E52C862F61E00E94D60A809192
:105290001905882389F48AE764E00E94312180910E
:1052A0008F0490919004805D924010F080E501C0E1
:1052B00081E460E00E948E1D8091BE04882309F481
:1052C000D4C080ED97E0FE013197F1F70197D9F74F
:1052D000CCC0153009F04EC0809191049091920499
:1052E000CC96909392048093910480919104909134
:1052F0009204805A954060F08091910490919204BC
:105300006CE370E00E94E52C9093920480939104EA
:105310008CE561E00E94312180919104909192048A
:105320006CE370E00E94E52C862F61E00E94D60AB3
:1053300080911905882389F48AE761E00E94312170
:105340008091910490919204805D924010F080E5EC
:1053500001C081E460E00E948E1D8091BE0488231C
:1053600009F483C080ED97E0FE013197F1F70197D2
:10537000D9F77BC0133009F03CC080918F04909125
:1053800090046CE370E00E94E52C0196CD9760F0EC
:1053900080918F04909190046CE370E00E94E52C62
:1053A0007093900460938F0480918F049091900487
:1053B00001969093900480938F048EE664E00E949F
:1053C000312180918F04909190046CE370E00E94F1
:1053D000E52C61E00E94BA058091BE04882309F49F
:1053E00044C080ED97E0FE013197F1F70197D9F7BE
:1053F0003CC01630D1F580919104909192046CE3F9
:1054000070E00E94E52C0196CD9760F080919104A8
:10541000909192046CE370E00E94E52C70939204EA
:1054200060939104809191049091920401969093DD
:105430009204809391048EE661E00E943121809174
:105440009104909192046CE370E00E94E52C61E07D
:105450000E94BA058091BE04882339F080ED97E060
:10546000FE013197F1F70197D9F7FF2009F4C4CC79
:105470008091BB0481508093BB04DF91CF911F9139
:105480000F91FF90EF9008955058BB27AA270ED098
:1054900044C135D130F03AD120F031F49F3F11F4BE
:1054A0001EF42AC10EF4E095E7FBF7C0E92F46D1C0
:1054B00080F3BA17620773078407950718F071F431
:1054C0009EF575C10EF4E0950B2EBA2FA02D0B01A1
:1054D000B90190010C01CA01A0011124FF27591B39
:1054E00099F0593F50F4503E68F11A16F040A22F3F
:1054F000232F342F4427585FF3CF469537952795B0
:10550000A795F0405395C9F77EF41F16BA0B620BAE
:10551000730B840BBAF09150A1F0FF0FBB1F661FF5
:10552000771F881FC2F70EC0BA0F621F731F841F38
:1055300048F4879577956795B795F7959E3F08F05E
:10554000B3CF9395880F08F09927EE0F979587951D
:1055500008957FD008F481E00895F8D088F09F572F
:1055600090F0B92F9927B751A0F0D1F0660F771FAF
:10557000881F991F1AF0BA95C9F712C0B13081F08F
:1055800016D1B1E0089513C1672F782F8827B85F2F
:1055900039F0B93FCCF3869577956795B395D9F7F0
:1055A0003EF490958095709561957F4F8F4F9F4FFA
:1055B0000895E89409C097FB3EF490958095709506
:1055C00061957F4F8F4F9F4F9923A9F0F92F96E94F
:1055D000BB279395F695879577956795B795F111C4
:1055E000F8CFFAF4BB0F11F460FF1BC06F5F7F4F61
:1055F0008F4F9F4F16C0882311F096E911C0772373
:1056000021F09EE8872F762F05C0662371F096E87B
:10561000862F70E060E02AF09A95660F771F881F4A
:10562000DAF7880F9695879597F90895A9D080F0B5
:105630009F3740F491110EF0BBC060E070E080E84D
:105640009FEB089526F41B16611D711D811D2BC053
:1056500045C0990F0008550FAA0BE0E8FEEF16169B
:105660001706E807F907C0F012161306E407F50756
:1056700098F0621B730B840B950B39F40A2661F0CA
:10568000232B242B252B21F408950A2609F4A1406D
:10569000A6958FEF811D811D089597F99F6780E87A
:1056A00070E060E00895882371F4772321F098502A
:1056B000872B762F07C0662311F499270DC09051D0
:1056C000862B70E060E02AF09A95660F771F881F9E
:1056D000DAF7880F9695879597F908959F3F31F0EF
:1056E000915020F4879577956795B795880F911D10
:1056F0009695879597F908959FEF80EC089500247B
:105700000A941616170618060906089500240A9426
:1057100012161306140605060895092E0394000CAC
:1057200011F4882352F0BB0F40F4BF2B11F460FF3B
:1057300004C06F5F7F4F8F4F9F4F089557FD905864
:10574000440F551F59F05F3F71F04795880F97FB45
:10575000991F61F09F3F79F08795089512161306FF
:105760001406551FF2CF4695F1DF08C0161617062E
:105770001806991FF1CF8695710561050894089563
:10578000E5DFA0F0BEE7B91788F4BB279F3860F4C7
:105790001616B11D672F782F8827985FF7CF86954B
:1057A00077956795B11D93959639C8F30895E89458
:1057B000BB2766277727CB0197F908954ADF08F4BE
:1057C0008FEF08950BD0A9CF9ADF28F09FDF18F054
:1057D000952309F062CF90CF1124EACFAFDFA0F379
:1057E000959FD1F3950F50E0551F629FF001729F76
:1057F000BB27F00DB11D639FAA27F00DB11DAA1F95
:10580000649F6627B00DA11D661F829F2227B00DE1
:10581000A11D621F739FB00DA11D621F839FA00D6C
:10582000611D221F749F3327A00D611D231F849FBC
:10583000600D211D822F762F6A2F11249F57504013
:105840008AF0E1F088234AF0EE0FFF1FBB1F661FAE
:10585000771F881F91505040A9F79E3F510570F067
:105860001CCFA6CF5F3FECF3983EDCF3869577958F
:105870006795B795F795E7959F5FC1F7FE2B880F62
:10588000911D9695879597F908959F9305D00F9050
:1058900007FCEE5F28C030CF59DFE8F3E894E0E082
:1058A000BB279F57F0F02AED3FE049EC06C0EE0F12
:1058B000BB0F661F771F881F28F0B23A6207730775
:1058C000840728F0B25A620B730B840BE3959A9508
:1058D00072F7803830F49A95BB0F661F771F881FC8
:1058E000D2F79048FDCEEF93E0FF06C0A2EA2AED82
:1058F0003FE049EC5FEBDADD10DF0F90039401FC31
:105900009058E8E6F0E000C09F938F937F936F93E9
:10591000FF93EF939B01AC0155DFEF91FF9105D011
:105920002F913F914F915F914DCFDF93CF931F9375
:105930000F93FF92EF92DF927B018C01689405C078
:10594000DA2EEF014BDFFE01E894A5912591359108
:1059500045915591AEF3EF01A9DDFE019701A80134
:10596000DA9479F7DF90EF90FF900F911F91CF912C
:10597000DF910895629FD001739FF001829FE00D37
:10598000F11D649FE00DF11D929FF00D839FF00DBE
:10599000749FF00D659FF00D9927729FB00DE11D6A
:1059A000F91F639FB00DE11DF91FBD01CF01112447
:1059B0000895991B79E004C0991F961708F0961B6B
:1059C000881F7A95C9F780950895AA1BBB1B51E1E2
:1059D00007C0AA1FBB1FA617B70710F0A61BB70B5F
:1059E000881F991F5A95A9F780959095BC01CD0104
:1059F000089597FB092E07260AD077FD04D0E5DF2E
:105A000006D000201AF4709561957F4F0895F6F73F
:105A1000909581959F4F0895A1E21A2EAA1BBB1B5A
:105A2000FD010DC0AA1FBB1FEE1FFF1FA217B3076A
:105A3000E407F50720F0A21BB30BE40BF50B661F80
:105A4000771F881F991F1A9469F760957095809544
:105A500090959B01AC01BD01CF01089597FB092EE4
:105A600005260ED057FD04D0D7DF0AD0001C38F42D
:105A700050954095309521953F4F4F4F5F4F08957A
:105A8000F6F790958095709561957F4F8F4F9F4F5A
:105A90000895FB01DC0105900D920020E1F70895C7
:105AA000AEE0B0E0E6E5FDE20C9430300D891E89F1
:105AB00086E08C831A8309838FEF9FE79E838D8313
:105AC0009E01275E3F4FCE0101966F89788DA90117
:105AD0000E94742D2F813885020F131FF801108248
