:100000000C9446040C9463040C9463040C94031441
:100010000C9463040C9463040C9463040C946304C4
:100020000C9463040C9470070C9463040C94D8042F
:100030000C9463040C9465040C9477040C9463048E
:100040000C9463040C9463040C9463040C94630494
:100050000C9463040C945B130C9463040C9463047D
:100060000C94A9220C94630405A84CCDB2D44EB9CB
:100070003836A9020C50B9918688083CA6AAAA2A4B
:10008000BE000000803F00000000000000000000F3
:1000900040000000000000004000000000000000E0
:1000A000C00100000000000040030000000000004C
:1000B0008002000000000000800600000000000038
:1000C00080040000000000E0810800000000003C07
:1000D0008208000000000016FC0800000000000874
:1000E000080800000000000F000800000000800069
:1000F000000400000000C0000004000000004007F1
:10010000000400000000C00C000400000000C01843
:100110000008000000002011000800000000B011DD
:1001200000040000000078100004000000001B1014
:100130000004000000E01E1C00040000003010233A
:1001400000040000000C2021C0040000000420C1B5
:10015000400500000006300131050000FF031000DB
:10016000310A00C001001000430E00300000D8002A
:10017000C2040010000008008C0400F80300040012
:10018000DC10000802000400501E00080E000700EA
:10019000500D000008000100300F00007000010049
:1001A0000006000080800000002000008080000029
:1001B00000200000808700000077000000D80000C9
:1001C000805C000000700000804100000000000022
:1001D000004300000000000000420000000000009A
:1001E0000042000000000000004400000000000089
:1001F00000840000000060030084000000009006FE
:10020000009C000000000808005B000000000430B3
:1002100000730000000004A033420000000004A0AE
:1002200002400000000004A076000000000004A0CE
:1002300035000000000008400B00000000000440F2
:10024000B201000000000740E201000000800160F0
:10025000C302000000C60040050400008039009081
:10026000050400007000001002080000180000A043
:10027000010800000800001001080000010000D083
:10028000000C0000080000500604000010000050A0
:10029000060400007000007407020000C003C007DD
:1002A00003040000000220030004000000FCD10051
:1002B00000040000808133000604000040073698E7
:1002C00007040000C00D5C9C01040000000EC00C7F
:1002D000000C00000000800C0008000000008007F7
:1002E00000080000000000060010000000000004EC
:1002F00000100000000000040010000000000002D8
:100300000010000000000001002000000000C401F7
:100310000020000000007000002000000000180015
:10032000003000000000E000001000000000880025
:100330000010000000000003001000000000000298
:100340000010000000000003001000000000800109
:1003500000080000000046000008000000007900CE
:100360000008000000003D0000080000008025009B
:100370000018000000C090010018000000E07001AB
:10038000000800000020038201080000F8A006C257
:100390000108000008A10426E108000008814F9828
:1003A000A00C00000821E0C0A3040000082230C017
:1003B0009E04000010041820800D0000100400604E
:1003C000000D0000080C00E0E30500000E0801002D
:1003D000A004008002880000F004008002CE00002B
:1003E0008005000002E200000003000006AE0000ED
:1003F000000200000CAE0000000000009863000046
:1004000000000000F0300000000000C000100000FC
:10041000000000C00040000000000080012000003B
:10042000000000800110000000000000000000003B
:1004300000000000060000000000000002000000B4
:1004400000000000000000000000000000000000AC
:10045000000000000000000000000000000000009C
:10046000000000000000000000000000000100008B
:100470000000000000020000000000000008000072
:100480000000000000004D6F6E64617900547565D6
:1004900073646179005765646E65736461790054B3
:1004A000687572736461790046726964617900539A
:1004B000617475726461790053756E646179008648
:1004C000048D0495049F04A804AF04B8044A616E27
:1004D00075617279004665627275617279004D616D
:1004E00072636800417072696C004D6179004A75F1
:1004F0006E65004A756C79004175677573740053B9
:10050000657074656D626572004F63746F626572C9
:10051000004E6F76656D62657200446563656D625D
:10052000657200CD04D504DE04E404EA04EE04F3AD
:1005300004F804FF04090511051A050B3E41414169
:1005400041424242423C0006FFFFFFFFFFFF000026
:1005500000000000005F00000007000700147F1487
:100560007F14242A7F2A12231308646236495522F5
:10057000500005030000001C2241000041221C0025
:10058000082A1C2A0808083E080800503000000805
:1005900008080808006060000020100804023E51AE
:1005A00049453E00427F4000426151494621414554
:1005B0004B311814127F1027454545393C4A4949AB
:1005C0003001710905033649494936064949291E52
:1005D0000036360000005636000000081422411490
:1005E000141414144122140800020151090632495E
:1005F00079413E7E1111117E7F494949363E414184
:1006000041227F4141221C7F494949417F0909011B
:10061000013E414151327F0808087F00417F41007F
:100620002040413F017F081422417F404040407FED
:100630000204027F7F0408107F3E4141413E7F0952
:100640000909063E4151215E7F091929464649495B
:10065000493101017F01013F4040403F1F204020C0
:100660001F7F2018207F6314081463030478040399
:10067000615149454300007F414102040810204177
:10068000417F00000402010204404040404000015C
:1006900002040020545454787F4844443838444479
:1006A0004420384444487F3854545418087E090183
:1006B00002081454543C7F0804047800447D400030
:1006C0002040443D00007F10284400417F40007CD2
:1006D000041804787C0804047838444444387C14B2
:1006E000141408081414187C7C0804040848545492
:1006F0005420043F4440203C4040207C1C204020AB
:100700001C3C4030403C44281028440C5050503C85
:100710004464544C44000836410000007F0000004F
:100720004136080008082A1C08081C2A0808493213
:10073000433A204255535F4552524F520D0A0049E9
:1007400032433A204E4F5F494E464F0D0A00493220
:10075000433A2053542D3E444154415F4E41434B54
:10076000206F72204C4153545F444154410D0A00A4
:100770004932433A2053542D3E444154415F414352
:100780004B0D0A004932433A2053542D3E534C41FD
:100790005F41434B0D0A004932433A2053522D3EEC
:1007A00053525F53544F500D0A004932433A20537D
:1007B000522D3E444154415F4E41434B0D0A004986
:1007C00032433A2053522D3E444154415F41434B02
:1007D0000D0A004932433A2053522D3E534C415F9B
:1007E00041434B0D0A004932433A204D522D3E53AE
:1007F0004C415F41434B0D0A004932433A204D5270
:100800002D3E444154415F41434B0D0A0049324360
:100810003A204D542D3E4152425F4C4F53540D0AE5
:10082000004932433A204D54522D3E534C415F4EC5
:1008300041434B206F72204D542D3E444154415F43
:100840004E41434B0D0A004932433A204D522D3E52
:10085000444154415F4E41434B0D0A004932433AF3
:10086000204D542D3E534C415F41434B206F72202D
:10087000444154415F41434B0D0A004932433A2001
:100880004D2D3E53544152540D0A000011241FBEF9
:10089000CFEFD8E0DEBFCDBF14E0A0E0B1E0EEE4E2
:1008A000F4E502C005900D92A834B107D9F714E021
:1008B000A8E4B4E001C01D92AB3FB107E1F70E948C
:1008C000E2080C94252A0C9400001F920F920FB698
:1008D0000F9211248F939F9388B198E0892788B94C
:1008E0009F918F910F900FBE0F901F9018951F92A0
:1008F0000F920FB60F9211248F939F938091500403
:1009000090915104892B49F08091500490915104A9
:10091000019790935104809350048091BF0490916B
:10092000C004892B49F08091BF049091C0040197C5
:100930009093C0048093BF048091BD04882389F103
:1009400080914E0490914F04892B59F58091B40405
:100950009091B504892BE1F48CE291E09093B50479
:100960008093B40480918100882379F410928000F0
:1009700089E08093810083E080936F0088EE93E0AC
:10098000909389008093880003C01092810043985F
:100990008091B4049091B50401979093B50480932D
:1009A000B4049F918F910F900FBE0F901F901895D8
:1009B0001F920F920FB60F9211248F939F9388B1BD
:1009C00098E0892788B99F918F910F900FBE0F9063
:1009D0001F901895AF92BF92CF92DF92EF92FF9245
:1009E0000F931F93E62E1092800029E02093810040
:1009F00023E020936F009C0140E050E060E079E04C
:100A00008DE390E00E9415273093890020938800A1
:100A1000FF2400E010E0C801B7010E94C0245B0180
:100A20006C0120E030E04AEF54E40E94C9257B01CC
:100A30008C0120E030E040E85FE30E9490248823AE
:100A40001CF461E070E024C0C801B70120E03FEF72
:100A50004FE757E40E94C5251816B4F4C601B50146
:100A600020E030E040E251E40E94C9250E94942435
:100A700088EC90E005C0FC013197F1F761507040BF
:100A800061157105C1F707C0C801B7010E94942420
:100A9000CB010197F1F71092810043981F910F91BC
:100AA000FF90EF90DF90CF90BF90AF900895FC0142
:100AB00083709070892B39F4CF0164E670E00E9456
:100AC000CC26892B49F420E030E0CF0160E971E0C9
:100AD0000E94CC26892B11F421E030E0822F08956A
:100AE0000895482F6AE00E94C026282F30E084E055
:100AF000220F331F8A95E1F7842F0E94C026892F89
:100B0000822B089588E592E090934F0480934E04E1
:100B10001092810043981092BE0408951E9B16C047
:100B20008091BA04882329F11092BA041092C30468
:100B300010924F0410924E048091BD048823C9F096
:100B40001092BD0410928100439808958091BA04D8
:100B5000882379F481E08093BA0410924F041092B4
:100B60004E0483E080934C0486E080934B040E9403
:100B7000EC1608950F931F93182F062F6AE00E941A
:100B8000C026805D602F0E947F1D812F6AE00E9439
:100B9000C026892F805D602F0E947F1D1F910F91BD
:100BA0000895CF92DF92EF92FF920F931F93DF93FE
:100BB000CF93CDB7DEB728970FB6F894DEBF0FBE40
:100BC000CDBF162FF42ED22EFE01319698E0DF0114
:100BD0001D929A95E9F719820E9471058A83812FE7
:100BE0000E9471058B838F2D0E9471058C838D2D42
:100BF0000E9471058D83802F0E9471058E838E2D3A
:100C00000E9471058F838C2D0E9471058887F8944E
:100C100080ED68E0AE014F5F5F4F0E940F22789435
:100C20008823D9F008EC10E080EA9FE064E60E9497
:100C3000EA0488EE93E0F8013197F1F70197D9F7CC
:100C400080EA9FE064E60E94EA0480E197E2F8010E
:100C50003197F1F70197D9F7E7CF28960FB6F894B7
:100C6000DEBF0FBECDBFCF91DF911F910F91FF90DF
:100C7000EF90DF90CF9008950F931F93DF93CF9362
:100C8000CDB7DEB729970FB6F894DEBF0FBECDBF44
:100C90001982F89480ED61E0AE014F5F5F4F0E94D2
:100CA0000F228823E1F008EC10E0789480EA9FE0BE
:100CB00064E60E94EA0488EE93E0F8013197F1F7C8
:100CC0000197D9F780EA9FE064E60E94EA0480E198
:100CD00097E2F8013197F1F70197D9F7E6CF80ED68
:100CE00067E0AE014E5F5F4F0E94562278948823E2
:100CF000D9F008EC10E080EA9FE064E60E94EA0484
:100D000088EE93E0F8013197F1F70197D9F780EA7F
:100D10009FE064E60E94EA0480E197E2F8013197DF
:100D2000F1F70197D9F7E7CF7A81872F82958F70F6
:100D300090E0877090709C01A3E0220F331FAA956A
:100D4000E1F7880F991F280F391F872F8F70820FA7
:100D50008093C2044B81842F82958F7090E08770BE
:100D600090709C01E3E0220F331FEA95E1F7880FB2
:100D7000991F280F391F4F70420F4093B8048C8180
:100D8000482F42954F70682F6F7086FF22C0829562
:100D90008695877090E0817090709C01220F331FC0
:100DA000280F391F220F331F220F331F842F90E08B
:100DB00081709070AC0103E0440F551F0A95E1F774
:100DC000880F991F480F591F240F260F2093AE0438
:100DD00011C0842F90E0837090709C01B3E0220FCB
:100DE000331FBA95E1F7880F991F280F391F620F3B
:100DF0006093AE044E81842F82958F7090E0837053
:100E000090709C01F3E0220F331FFA95E1F7880FF1
:100E1000991F280F391F4F70420F4093B7044F811D
:100E2000842F82958F7090E0817090709C0163E0B8
:100E3000220F331F6A95E1F7880F991F280F391F7A
:100E40004F70420F4093C1042885822F82958F7086
:100E50003AE0839FC00111242F70280F2093B20421
:100E6000872F807829960FB6F894DEBF0FBECDBFCE
:100E7000CF91DF911F910F910895CF92EF920F9331
:100E80000E9469210E943C06882359F080E060E0BE
:100E90004CE020E001E0EE24E394B9E0CB2E0E9488
:100EA000D1050E943C0682E090E00E9438296CE364
:100EB0000E94C0269093B30481E090E00E943829FC
:100EC00068E10E94C0269093BC0487E08093B10043
:100ED00081E08093700078940F91EF90CF90089507
:100EE0001F920F920FB60F921124FF920F931F9330
:100EF0002F933F934F935F936F937F938F939F9322
:100F0000AF93BF93EF93FF93A895809152048035E0
:100F100079F410925204F090C2041091B804009138
:100F2000AE040E943C068091AE04801729F40AC0EA
:100F30008F5F80935204DBC081E080934A0400936A
:100F4000B90407C08091B804811729F081E080932B
:100F500049041093B0048091C2048F1509F441C074
:100F60008091BD04882359F080914E0490914F04E4
:100F7000009729F0019790934F0480934E0480913D
:100F80004B04882371F180914B04815080934B0472
:100F900080914B04882329F580914C048093AF0401
:100FA00010924C0480914A04882329F08091B9045E
:100FB0008093AE0404C080914904882321F080917D
:100FC000B0048093B8040E94EC1680914A048823F0
:100FD00021F480914904882321F00093AE041093FA
:100FE000B8048091BE04843061F08091BE048530E5
:100FF00041F08091BE04883021F08091BE0486309B
:1010000089F580915504882369F584E462E00E94A3
:1010100022218091AE0460E00E94A60A8AE360E08B
:101020000E947F1D8091B80460E00E94BA058AE3A7
:1010300060E00E947F1D8091C20460E00E94BA05BA
:101040008091B104882371F480E260E00E947F1DEA
:101050008091AE048C3010F080E501C081E460E046
:101060000E947F1D8091BA04882399F08091C20468
:10107000882379F49091B8048091B304981749F4C7
:101080009091AE048091BC04981719F481E080938C
:10109000C30480914904882369F480914A04882319
:1010A00049F48091C304882329F081E08093BD0432
:1010B0001092C30480915304863039F41092530483
:1010C00080915904882329F409C08F5F80935304C9
:1010D0000EC080915904815080935904809154042A
:1010E000882329F080915404815080935404FF9107
:1010F000EF91BF91AF919F918F917F916F915F9190
:101100004F913F912F911F910F91FF900F900FBE24
:101110000F901F901895EF92FF920F931F93F82E48
:10112000162FE42E21E001E00E94C81DFE0C0F2DB9
:1011300002501150802F612F0E940B1F1E5F802FC5
:10114000612F0E940B1F01501350802F612F0E94AE
:101150000B1F1C5F802F612F0E940B1F1F910F918F
:10116000FF90EF90089580E090E00E943829833C42
:1011700041F181E090E068E00E94402982E090E047
:1011800060E00E94402983E090E060E10E944029F5
:1011900084E090E061E00E94402985E090E060E01A
:1011A0000E94402986E090E060E00E94402987E0AC
:1011B00090E06AE00E94402980E090E063EC0E94A9
:1011C000402908957F928F929F92AF92BF92CF92C3
:1011D000DF92EF92FF920F931F93CF93DF930091D3
:1011E0004D0484B714BE88E10FB6F8948093600074
:1011F000109260000FBE8AE190E00E94BE1B3B9AF5
:101200000E943D070E94ED140E94B30885E090E023
:101210000E9438298093BB0486E090E00E94382920
:101220008093B1040E9430130E948E0582E084BD39
:1012300083E085BD8DE787BD80916E0082608093DD
:101240006E00539A80E28093B0008091B00083607A
:101250008093B0008091B10088608093B10080E1FC
:101260008093B30083E090E00E9438298093B4001B
:10127000259A80EA9FE064E60E94EA042FE088E174
:1012800090E00FB6F894A895809360000FBE20936D
:1012900060000E9450210E942C210E94601B802F20
:1012A0000E94761810E0CBE4D0E068E5A62E62E05C
:1012B000B62E52E0752E9924939443E0D42E35E057
:1012C000E32E26E0C22E94E0F92E88E0882ED093FB
:1012D000C004C093BF0480915704882379F08091A3
:1012E000BD04882359F010925704B0924F04A09285
:1012F0004E041092810043981092BE04113039F4CC
:1013000080914B048823F1F4E0924C0408C0123021
:1013100061F480914B048823A9F490924C04D092FC
:101320004B040E94EC1613E00DC0133059F4809169
:101330004B04882339F470924C0410934B040E94A0
:10134000EC1610E080915704867041F1109257041A
:101350008091BB04882321F08091BB04813019F473
:1013600090924C0412C08091BB04823021F0809195
:10137000BB04833021F4F0924C0412E00BC0809146
:10138000BB04843021F4E0924C0413E003C0F092DB
:101390004C0411E0C0924B040E94EC16809157045B
:1013A00080FF3FC01092570410924C0410924B04DF
:1013B0000E94EC168091BE04843089F0853028F4B8
:1013C000882341F0833009F511C08530A1F08830C1
:1013D000E1F416C0F092BE040E94DA0E18C0D0925A
:1013E000BE040E94390D1092000111C0E092BE04AB
:1013F0000E9471110CC08092BE040E94DA0F07C0D7
:10140000C092BE040E94A11002C01092BE0480913E
:10141000BE04882329F40E942C21802F0E94761874
:1014200010E00E94941A8091BE04882309F042C003
:1014300080914D04081779F48091BD04882359F0F8
:101440008091C20480FF07C080914D0400E0882392
:1014500041F501E026C0402F50E080914D0420E08E
:1014600030E0882311F421E030E04217530721F4E3
:101470008091BD04882399F08091BD048823A9F050
:1014800080914D0420E030E0882311F421E030E029
:101490004217530751F48091C20480FD06C00091A9
:1014A0004D04802F0E94761805C02D9A802F0E942F
:1014B000A2182D988091BF049091C004892BD1F778
:1014C00006CF0F931F93CF93DF93182F062F809192
:1014D000B104882371F584E761E00E9422211C3069
:1014E00010F080E501C081E460E00E947F1D8DE482
:1014F00060E00E947F1D80E561E00E942221812F33
:1015000090E047966CE070E00E94E026EC018930A4
:10151000910524F09C012F5F822F10C080E260E0D3
:101520000E947F1D9E012F5C822F602F0E947F1DD5
:1015300008C080E561E00E942221812F602F0E9477
:10154000BA05DF91CF911F910F9108950F931F93CB
:10155000CF93DF93082F162F8091B1048823D1F405
:10156000802F90E047966CE070E00E94E026EC014E
:101570008930910524F09C012F5F822F14C080E2F6
:1015800060E00E947F1D9E012F5C822F612F0E94D0
:101590007F1D0CC080E260E00E947F1D80E260E061
:1015A0000E947F1D802F612F0E94BA05DF91CF918D
:1015B0001F910F9108951F93182F88E064E00E94F7
:1015C000222181E091E060E00E94B71D8091BB0480
:1015D000882339F48091B104882319F48AE091E0DA
:1015E00078C08091BB04882339F48091B1048130A4
:1015F00019F487E191E06DC08091BB04813039F42A
:101600008091B104882319F484E291E062C0809152
:10161000BB04813039F48091B104813019F481E345
:1016200091E057C08091BB04823039F48091B104BD
:10163000882319F48EE391E04CC08091BB04823082
:1016400039F48091B104813019F48BE491E041C008
:101650008091BB04833039F48091B104882319F45C
:1016600088E591E036C08091BB04833039F48091E5
:10167000B104813019F485E691E02BC08091BB0460
:10168000843039F48091B104882319F482E791E021
:1016900020C08091BB04843039F48091B104813042
:1016A00019F48FE791E015C08091BB04853039F4BF
:1016B0008091B104882319F48CE891E00AC08091EC
:1016C000BB04853049F48091B104813029F489E963
:1016D00091E0612F0E94B71D1F910895282F663059
:1016E00081F1673078F4633019F1643030F461309F
:1016F000C9F0623009F03FC018C06430E1F06530D5
:10170000D1F51CC0693031F16A3028F46730E1F05E
:10171000683089F51CC06B3019F16B30F0F06C301B
:1017200051F524C086EA91E01DC08AEA91E01AC012
:101730008EEA91E017C082EB91E014C086EB91E055
:1017400011C08AEB91E00EC08EEB91E00BC082ECF1
:1017500091E008C086EC91E005C08AEC91E002C0FF
:101760008EEC91E0622F0E94B71D089582ED91E00A
:10177000622F0E94B71D08951F93182F862F642F84
:10178000422F0E940F178330B9F0843028F4813043
:1017900069F0823070F407C08530A1F0853078F0B0
:1017A0008630C1F412C086ED91E011C08BED91E05E
:1017B0000EC080EE91E00BC085EE91E008C08AEE8D
:1017C00091E005C08FEE91E002C084EF91E0612FBF
:1017D0000E94B71D1F910895EF92FF920F931F93E0
:1017E000182F062FE42EF22E88E063E00E942221BB
:1017F00089EF91E060E00E94B71D8091BB048823CF
:1018000031F48FEF91E060E00E94B71D18C0809125
:10181000BB04813031F48FEF91E060E00E94B71D8E
:101820002FC08091BB048230E9F480E260E00E9426
:101830007F1D80E0612F402F2E2D0E94BC0B60E0A9
:101840008BE0F81609F461E0812F0E94BA058FE25F
:1018500060E00E947F1D60E09CE0F91609F461E001
:10186000802F20C08091BB04833001F580E260E0CE
:101870000E947F1D80E0612F402F2E2D0E94BC0B07
:1018800060E08CE0F81609F461E0802F0E94BA0550
:101890008FE260E00E947F1D60E09BE0F91609F492
:1018A00061E0812F0E94BA058FE23EC08091BB04A7
:1018B0008430F9F485E092E060E00E94B71D80E09A
:1018C0009BE0F91609F481E0612F0E946E0B80E223
:1018D00060E00E947F1D60E08CE0F81609F461E092
:1018E000802F0E94BA058CE260E00E947F1D80E29A
:1018F0001BC080E0612F402F2E2D0E94BC0B80E08A
:101900009BE0F91609F481E0612F0E946E0B80E2E2
:1019100060E00E947F1D60E08CE0F81609F461E051
:10192000802F0E94BA058CE260E00E947F1D10E0CB
:101930009DE0F91609F411E084E1612F0E94BA05D7
:101940008E2D612F0E94BA051F910F91FF90EF908D
:101950000895809155048F5F809355040E942C2137
:1019600080E060E00E94222189E092E060E00E9435
:10197000B71D88E061E00E9422218CE192E060E0E6
:101980000E94B71D8091BC0460E00E94610A8AE356
:1019900060E00E947F1D8091B30460E00E94BA0560
:1019A00088E062E00E94222189E292E060E00E94E9
:1019B000B71D8091AE0460E00E94A60A8AE360E051
:1019C0000E947F1D8091B80460E00E94BA058AE3FE
:1019D00060E00E947F1D8091C20460E00E94BA0511
:1019E0008091B104882371F480E260E00E947F1D41
:1019F0008091AE048C3010F080E501C081E460E09D
:101A00000E947F1D8091C1046091B7044091B2048F
:101A100090E070E050E025E030E00E94EC0B80E0C8
:101A200090E00E94DB0A88E065E00E94222184E3C6
:101A300092E060E00E94B71D8091B40060E00E94D7
:101A4000BA0580E066E00E94222184E492E060E032
:101A50000E94B71D80E067E00E9422218AE592E0A3
:101A600060E00E94B71D8091550481508093550419
:101A70000895BF92CF92DF92EF92FF920F931F9340
:101A8000CF93DF931091AE04D090B804F090C204CD
:101A90000E94A90C809155048F5F8093550480E0CB
:101AA00063E147E00E948B08809155048150809348
:101AB00055048AE08093540403E08AE0B82EC8EC11
:101AC000D0E08091570480FD6BC18091570488233A
:101AD00021F480915804882319F0B092540407C06F
:101AE00080915404882319F41092BE0459C1809146
:101AF000570481FFDCC010925704809155048F5F1A
:101B000080935504033081F584E462E00E94222131
:101B1000812F61E00E94A60A84E762E00E942221F0
:101B20008091B104882361F480E260E00E947F1D0F
:101B30001C3010F080E501C081E461E00E947F1D4F
:101B400080E066E00E9422218BE692E060E00E9445
:101B5000B71D80E067E00E94222181E892E060E00A
:101B60000E94B71D05E69EC00536C1F584E462E01B
:101B70000E942221812F60E00E94A60A8AE360E091
:101B80000E947F1D8D2D61E00E94BA0580E066E015
:101B90000E94222187E992E060E00E94B71D80E068
:101BA00067E00E9422218DEA92E060E00E94B71D6A
:101BB00084E762E00E9422218091B104882361F4CD
:101BC00080E260E00E947F1D1C3010F080E501C0C3
:101BD00081E460E00E947F1D06E664C0063651F590
:101BE0008091B104882311F486E501C082E662E0A9
:101BF0000E9422218D2D60E00E94BA058AE360E0F8
:101C00000E947F1D8F2D61E00E94BA0580E066E092
:101C10000E94222183EC92E060E00E94B71D80E0E8
:101C200067E00E94222189ED92E060E00E94B71DEA
:101C300007E638C08091B104882311F488E601C01A
:101C400084E762E00E9422218F2D60E00E94BA05A5
:101C500080E066E00E94222184E492E060E00E943D
:101C6000B71D80E067E00E9422218AE592E060E0F3
:101C70000E94B71D1093AE04D092B804F092C20433
:101C80008091C2046091B8044091AE040091B70401
:101C9000E090C104C090B20420E00E94D1050E94EF
:101CA000ED1403E080915504815080935504809198
:101CB000570482FD04C08091580482FF02CF109225
:101CC0005704809155048F5F80935504053649F57C
:101CD000812F90E0019668E170E00E94E026182FC5
:101CE0008093AE0484E462E00E942221812F61E0AF
:101CF0000E94A60A84E762E00E9422218091B1043A
:101D00008823E9F580E260E00E947F1D8091AE04A7
:101D10008C3010F080E501C081E461E00E947F1DFD
:101D20002EC00636A1F48D2D90E001966CE370E094
:101D30000E94E026D82E8091B104882311F486E514
:101D400001C082E662E00E9422218D2D15C0073677
:101D5000B1F48F2D90E001966CE370E00E94E026D4
:101D6000F82E8091B104882311F488E601C084E73D
:101D700062E00E9422218F2D61E00E94BA058091CD
:101D800055048150809355048091580482FF99CE68
:101D900080ED97E0FE013197F1F70197D9F791CEE9
:101DA000DF91CF911F910F91FF90EF90DF90CF9037
:101DB000BF9008950F931F93CF93DF930E94A90CB8
:101DC000809155048F5F8093550480E06BE047E07D
:101DD0000E948B08809155048150809355048AE0BD
:101DE0008093540414E00AE0C8ECD0E080915704DA
:101DF00080FDDBC080915704882321F48091580432
:101E0000882319F00093540407C080915404882358
:101E100019F41092BE04C9C08091570481FF74C0A8
:101E200010925704809155048F5F809355041430AD
:101E3000C9F48091BC0461E00E94610A80E066E020
:101E40000E9422218BE692E060E00E94B71D80E0B4
:101E500067E00E94222181E892E060E00E94B71DC5
:101E600015E64DC0153631F580E561E00E9422216E
:101E70008091BC0460E00E94610A82E661E00E94F9
:101E800022218091B30461E00E94BA0580E066E0FF
:101E90000E94222187E992E060E00E94B71D80E065
:101EA00067E00E9422218DEA92E060E00E94B71D67
:101EB00016E625C080E561E00E9422218091BC04E5
:101EC00060E00E94610A82E661E00E942221809126
:101ED000B30460E00E94BA0580E066E00E9422211F
:101EE00084E492E060E00E94B71D80E067E00E9419
:101EF00022218AE592E060E00E94B71D14E0809103
:101F000055048150809355048091570482FD04C08C
:101F10008091580482FF6ACF109257048091550433
:101F20008F5F809355041536A1F48091BC0490E036
:101F3000019668E170E00E94E0268093BC048091E5
:101F4000BC0461E00E94610A6091BC0481E090E001
:101F500019C01636C9F48091B30490E001966CE381
:101F600070E00E94E0268093B30482E661E00E9464
:101F700022218091B30461E00E94BA056091B3040C
:101F800082E090E00E944029809155048150809326
:101F900055048091580482FF29CF80ED97E0FE011F
:101FA0003197F1F70197D9F721CFDF91CF911F91A9
:101FB0000F9108950F931F930E94A90C80915504CF
:101FC0008F5F8093550480E063E247E00E948B08B6
:101FD000809155048150809355048AE08093540485
:101FE00018E00AE08091570480FDA8C08091570452
:101FF000882321F480915804882319F00093540415
:1020000007C080915404882319F41092BE0496C02E
:102010008091570481FF3BC0109257048091550472
:102020008F5F809355041830B9F481E00E94DB0A79
:1020300080E066E00E9422218FEE92E060E00E9444
:10204000B71D80E067E00E94222185E093E060E018
:102050000E94B71D18E616C080E00E94DB0A80E0EF
:1020600066E00E94222184E492E060E00E94B71DB5
:1020700080E067E00E9422218BE193E060E00E9413
:10208000B71D18E0809155048150809355048091CC
:10209000570482FD04C08091580482FFA3CF1092A0
:1020A0005704183609F09ECF8091B104882359F067
:1020B0008091BB048F5F8093BB048091BB0486300A
:1020C00010F01092BB048091B10490E0882309F4D1
:1020D00091E09093B104809155048F5F80935504F3
:1020E0000E94A90C80E066E00E9422218FEE92E01F
:1020F00060E00E94B71D80E067E00E94222185E039
:1021000093E060E00E94B71D80E063E247E00E9438
:102110008B0881E00E94DB0A8091550481508093F6
:1021200055046091BB0485E090E00E9440296091D5
:10213000B10486E090E00E94402954CF1F910F9196
:1021400008950F931F930E94A90C809155048F5FEF
:102150008093550480E066E00E94222181E393E0B1
:1021600060E00E94B71D80E06BE247E00E948B08B0
:10217000809155048150809355048AE080935404E3
:1021800016E00AE08091570480FDA8C080915704B2
:10219000882321F480915804882319F00093540473
:1021A00007C080915404882319F41092BE0496C08D
:1021B0008091570481FF47C01092570480915504C5
:1021C0008F5F809355041630E9F482E665E00E9443
:1021D00022218091B40061E00E94BA0580E066E0AF
:1021E0000E94222187E493E060E00E94B71D80E016
:1021F00067E00E9422218CE593E060E00E94B71D19
:1022000019E61CC082E665E00E9422218091B4009C
:1022100060E00E94BA0580E066E00E94222181E72A
:1022200093E060E00E94B71D80E067E00E942221F9
:1022300084E893E060E00E94B71D16E080915504A9
:102240008150809355048091570482FD04C0809191
:10225000580482FF97CF10925704193609F092CF95
:102260008091B4008F5F8093B4008091B40081317D
:1022700010F01092B400809155048F5F8093550444
:102280000E94A90C80E066E00E9422218FEE92E07D
:1022900060E00E94B71D80E067E00E94222185E097
:1022A00093E060E00E94B71D80E06BE247E00E948F
:1022B0008B0882E665E00E9422218091B40061E0F3
:1022C0000E94BA0580915504815080935504609115
:1022D000B40083E090E00E94402954CF1F910F91F9
:1022E0000895BF92CF92DF92EF92FF920F931F93C8
:1022F000CF93DF93F090B7041091C104D090B20453
:102300000E94A90C809155048F5F8093550480E052
:102310006BE147E00E948B088091550481508093C7
:1023200055048AE08093540405E04AE0B42EC8ECDA
:10233000D0E08091570480FD89C1809157048823A3
:1023400021F480915804882319F0B092540407C0F6
:1023500080915404882319F41092BE0477C18091AF
:10236000570481FFE1C010925704809155048F5F9C
:10237000809355040530F1F48091BB04882309F45F
:1023800051C08091BB04823009F44CC08091BB04E1
:10239000843009F447C08091BB04853009F442C001
:1023A0008091BB048130C9F08091BB04833009F077
:1023B00086C013C00B3059F58091BB04882369F0A7
:1023C0008091BB04823049F08091BB04843029F0B5
:1023D0008091BB04853009F050C0812F6F2D4D2DA9
:1023E0002CE00E94EC0B80E066E00E94222184EC4D
:1023F00093E060E00E94B71D80E067E00E94222128
:102400008AED93E060E00E94B71D0CE088C00C30BC
:1024100009F055C08091BB04813021F08091BB044C
:102420008330D1F4812F6F2D4D2D2BE00E94EC0BCA
:1024300080E066E00E94222188E993E060E00E944B
:10244000B71D80E067E00E9422218EEA93E060E001
:102450000E94B71D0BE063C08091BB048823A9F0E4
:102460008091BB04823089F08091BB04843069F094
:102470008091BB04853019F508C08091BB04813080
:1024800021F08091BB048330D1F4812F6F2D4D2D2D
:102490002DE00E94EC0B80E066E00E94222180EF9C
:1024A00093E060E00E94B71D80E067E00E94222177
:1024B00086E094E060E00E94B71D0DE030C0812FFF
:1024C0006F2D4D2D25E00E94EC0B80E066E00E9410
:1024D000222184E492E060E00E94B71D80E067E082
:1024E0000E9422218AE592E060E00E94B71DD0920E
:1024F000B2041093C104F092B7048091C2046091B9
:10250000B8044091AE040091B704E090C104C090BB
:10251000B20420E00E94D1050E94ED1405E08091F4
:1025200055048150809355048091570482FD04C066
:102530008091580482FFFDCE10925704809155047B
:102540008F5F809355040B3089F51F5F1D3010F0AD
:1025500011E027C01230C1F48D2D90E00E94570584
:10256000882331F08DE18F1518F43DE1F32E19C069
:102570008D2D90E00E945705882399F48CE18F15EA
:1025800080F42CE1F22E0DC0143031F0163021F021
:10259000193011F01B3029F48EE18F1510F49EE1F3
:1025A000F92E812F6F2D4D2D2BE03DC00C3069F59C
:1025B000F3948FE18F1510F4FF24F394123099F403
:1025C0008D2D90E00E945705882319F08DE18F151D
:1025D000A8F08D2D90E00E945705882389F48CE1A6
:1025E0008F1560F00DC0143031F0163021F0193025
:1025F00011F01B3029F48FE1F81611F4FF24F39445
:10260000812F6F2D4D2D2CE00EC00D3071F48D2DCE
:1026100090E0019664E670E00E94E026D82E812FBB
:102620006F2D4D2D2DE00E94EC0B809155048150B3
:10263000809355048091580482FF7BCE80ED97E013
:10264000FE013197F1F70197D9F773CEDF91CF9162
:102650001F910F91FF90EF90DF90CF90BF90089562
:1026600026982E9A81E080936800EBE6F0E0808166
:102670008064808382E080937C0010927B00EAE794
:10268000F0E08EE88083808180648083089580916B
:102690007A00877F80937A0080917A0080648093AB
:1026A0007A0080917A0084FFFCCF209178003091ED
:1026B0007900C90108951F920F920FB60F9211244D
:1026C0002F933F934F935F936F937F938F939F933A
:1026D000AF93BF93EF93FF9378948091780090919C
:1026E000790022E0803E920728F010925804109260
:1026F000560473C022E08336920798F18091560405
:1027000082FD6BC080E29EE40197F1F70E944713BF
:10271000825692408E37910508F05FC082E0809328
:10272000590412C00E944713825692408E37910579
:1027300058F0809156048B7F809356048091570403
:1027400084608093570449C080915904882351F7CD
:10275000809156048460809356048091580484606C
:102760003AC08F509140E8F08091560481FD10C02E
:1027700080E29EE40197F1F70E9447138E5091404A
:102780008555914050F5809157048260809357049D
:102790008091560482608093560480915804826030
:1027A0001AC08091560480FD0EC080E29EE401971D
:1027B000F1F70E9447138F50914078F480915704AD
:1027C0008160809357048091560481608093560401
:1027D0008091580481608093580480917A008864C5
:1027E00080937A00FF91EF91BF91AF919F918F916C
:1027F0007F916F915F914F913F912F910F900FBEFD
:102800000F901F9018951F920F920FB60F921124E0
:102810002F933F934F935F936F937F938F939F93E8
:10282000AF93BF93EF93FF9378940E948E05FF912F
:10283000EF91BF91AF919F918F917F916F915F9138
:102840004F913F912F910F900FBE0F901F901895B1
:102850002F923F924F925F926F927F928F929F92B0
:10286000AF92BF92CF92DF92EF92FF920F931F939E
:1028700020905C0430905D0440905E0450905F04B2
:102880006090600470906104809062049090630492
:10289000AA24BB246501F501E370F070EE0FFF1F61
:1028A000EE0FFF1FE252FB4FE080F18002811381A7
:1028B000EA0CFB1C0C1D1D1DD401C30175E0B6956F
:1028C000A795979587957A95D1F7A401930164E030
:1028D000220F331F441F551F6A95D1F78227932774
:1028E000A427B527860D971DA81DB91DE826F92632
:1028F0000A271B272E0C3F1C401E511E89EB99E70F
:10290000A7E3BEE9A80EB91ECA1EDB1EA2019101F3
:10291000F5E05695479537952795FA95D1F7D20169
:10292000C101E4E0880F991FAA1FBB1FEA95D1F7E8
:10293000282739274A275B27220D331D441D551DA3
:10294000D601C5017BE0B695A795979587957A95B1
:10295000D1F783709070880F991F880F991F82524A
:102960009B4FFC0180819181A281B3818A0D9B1DC7
:10297000AC1DBD1D282739274A275B27620E731E11
:10298000841E951EF0E2AF16F7E3BF06FFEECF06FA
:10299000F6ECDF0609F07FCF20925C0430925D04F4
:1029A00040925E0450925F046092600470926104F1
:1029B00080926204909263041F910F91FF90EF90B8
:1029C000DF90CF90BF90AF909F908F907F906F904F
:1029D0005F904F903F902F900895EF92FF920F934A
:1029E0001F938EE691E7A9EEBDE28093DE049093FB
:1029F000DF04A093E004B093E10481ED9DEDAFE32B
:102A0000B9E98093E2049093E304A093E404B093C3
:102A1000E50487E59BEFA7E7BAE28093E60490938D
:102A2000E704A093E804B093E90480EB96EEA2E7F4
:102A3000B1EB8093EA049093EB04A093EC04B09381
:102A4000ED0410925C0410925D0410925E041092EA
:102A50005F0410926004109261041092620410925C
:102A600063040E942814E090BC04FF2400E010E0FE
:102A7000102F0F2DFE2CEE248091AE0490E0A0E0EC
:102A8000B0E0E82AF92A0A2B1B2B102F0F2DFE2C61
:102A9000EE248091B80490E0A0E0B0E0E82AF92AA2
:102AA0000A2B1B2B102F0F2DFE2CEE248091C2041D
:102AB00090E0A0E0B0E0E82AF92A0A2B1B2B8091D5
:102AC000600490916104A0916204B0916304880F46
:102AD000991FAA1FBB1F2091DE043091DF04409193
:102AE000E0045091E10482279327A427B52780931F
:102AF000DE049093DF04A093E004B093E1040E940D
:102B00002814D801C701880F991FAA1FBB1F209145
:102B1000E2043091E3044091E4045091E5048227FB
:102B20009327A427B5278093E2049093E304A0930E
:102B3000E404B093E5040E94281416950795F794D1
:102B4000E7948091E6049091E704A091E804B091A5
:102B5000E904E826F9260A271B27E092E604F0920A
:102B6000E7040093E8041093E9040E94281480917C
:102B7000600490916104A0916204B0916304B695E1
:102B8000A795979587952091EA043091EB044091A1
:102B9000EC045091ED0482279327A427B527809356
:102BA000EA049093EB04A093EC04B093ED040E942C
:102BB0002814E090B304FF2400E010E0102F0F2D44
:102BC000FE2CEE248091C10490E0A0E0B0E0E82A61
:102BD000F92A0A2B1B2B102F0F2DFE2CEE2480918F
:102BE000B70490E0A0E0B0E0E82AF92A0A2B1B2BFA
:102BF000102F0F2DFE2CEE248091B20490E0A0E067
:102C0000B0E0E82AF92A0A2B1B2BD801C701880F4C
:102C1000991FAA1FBB1F2091DE043091DF04409151
:102C2000E0045091E10482279327A427B5278093DD
:102C3000DE049093DF04A093E004B093E1040E94CB
:102C4000281480915C0490915D04A0915E04B09181
:102C50005F04880F991FAA1FBB1F2091E2043091C7
:102C6000E3044091E4045091E50482279327A427CC
:102C7000B5278093E2049093E304A093E404B09317
:102C8000E5040E94281480915C0490915D04A09159
:102C90005E04B0915F04B695A795979587952091AE
:102CA000E6043091E7044091E8045091E90482275A
:102CB0009327A427B5278093E6049093E704A09375
:102CC000E804B093E9040E94281416950795F79438
:102CD000E7948091EA049091EB04A091EC04B09108
:102CE000ED04E826F9260A271B27E092EA04F09271
:102CF000EB040093EC041093ED0410925C0410922A
:102D00005D0410925E0410925F04109260041092B1
:102D1000610410926204109263040E9428141F91AF
:102D20000F91FF90EF900895982F8150823078F0A6
:102D3000A8950E942814209160043091610480912C
:102D40005C0490915D04282739273F7743C0913078
:102D5000F9F48091600490916104A0916204B091B3
:102D6000630420915C0430915D0440915E045091B5
:102D70005F0482279327A427B527EFE0B695A79590
:102D800097958795EA95D1F79C012370307022C002
:102D90009230F9F48091600490916104A0916204F2
:102DA000B091630420915C0430915D0440915E0415
:102DB00050915F0482279327A427B52771E1B69528
:102DC000A795979587957A95D1F79C0121703070DA
:102DD00001C00895C901089590914C048091AF04F9
:102DE000981739F081E080935A0480914C048093C5
:102DF000AF0480914C04813059F0813030F0833041
:102E000051F0843059F481E003C01092EE0408952B
:102E10008093EE04089581E08093EE040895CF93AB
:102E2000DF93C82FD0E0E42FF0E0E053F84F833079
:102E300010F42C963197262F30E02F5F3F4F2E0F46
:102E40003F1FCE01880F991F280F391FCF0196957C
:102E5000879596958795280F391FCF0160E971E016
:102E60000E94CC26260F371FCF0164E670E00E9437
:102E7000CC26261B370BAE014F5F5F4FCA01880F70
:102E8000991F840F951F880F991F6AE070E00E94B8
:102E9000CC26C901860F971F67E070E00E94CC2600
:102EA000DF91CF91089590E08496AA2797FDA09591
:102EB000BA2FBC01CD010E94C2242BED3FE049E4B2
:102EC0005DE30E94C9250E942C2620E030E040EA04
:102ED00051E40E94C9250E94FD2420E030E048ED25
:102EE00051E40E942C240E949424DC01CB0108951B
:102EF0000F931F93482F062F603280F4E82FF0E0E5
:102F000063E0EE0FFF1F6A95E1F7EA57FF4F8591E7
:102F10009591A591B49120E230E015C0862F8052A2
:102F2000863110F010E01AC0E42FF0E053E0EE0F0D
:102F3000FF1F5A95E1F7E657FF4F85919591A591AF
:102F4000B49120E430E0201B310904C0B695A79568
:102F5000979587952A95D2F7182F1170842F0E9484
:102F60005317282F112321F480E090E0201711F44B
:102F700081E090E01F910F9108952F923F924F9220
:102F80005F926F927F928F929F92AF92BF92CF92F9
:102F9000DF92EF92FF920F931F93DF93CF9300D0B6
:102FA00000D0CDB7DEB7182F80E060E040E826E320
:102FB000012F0E94C81DF6E8CF2EF0E0DF2EEE2490
:102FC000FF24F6012590359045905490F6013496F3
:102FD0006590759085909490C701969587958A83A2
:102FE0001C821B828B81898370E2A72EB12CEB811E
:102FF000FC81AE1ABF0AD201C1010A2C04C0B695E9
:10300000A795979587950A94D2F781709070892B30
:1030100051F000E0112309F401E08A81698141E067
:1030200021E00E94C81DD401C30104C0B695A79534
:1030300097958795AA94D2F781709070892B79F033
:103040008B819C8147975CF46981615E00E011236C
:1030500009F401E08A8141E021E00E94C81DEB8172
:10306000FC813196FC83EB83B09709F0BBCF82E003
:1030700090E0E80EF91EE8E0F0E0CE0EDF1EF0E092
:10308000EF16F1E0FF0609F09CCFFF24112311F4A5
:10309000FF24F39480E060E040E821E00F2D0E94DF
:1030A000C81D10E0812F0E945317682F812F41E027
:1030B00021E00F2D0E94C81D1F5F103899F70F9057
:1030C0000F900F900F90CF91DF911F910F91FF9074
:1030D000EF90DF90CF90BF90AF909F908F907F90B8
:1030E0006F905F904F903F902F9008950F931F9394
:1030F000182F80E060E040E820E4012F0E94C81D06
:10310000812F0E94BD1780E066E340E82AE00E941C
:10311000C81D00E0112309F401E080E066E340E807
:1031200021E00E94C81D81E067E00E9422218CE11D
:1031300094E0612F0E94B71D81E080935A041F9193
:103140000F910895BF92CF92DF92EF92FF920F936B
:103150001F93CF93DF93C82E8091EE04882309F448
:1031600046C08091F204882309F041C08EE066E0F9
:1031700044E62CE20C2D0E94C81D8EE066E044E679
:103180002CE20E94B81E80E168E040E628E20E943E
:10319000B81E81E08093F20480914C04813039F5AF
:1031A00007EC14E0F80101900020E9F73197E01BEB
:1031B000F10B9F01220F331F2E0F3F1F220F331FD2
:1031C00080E690E0821B930B969587958E5E62E079
:1031D0000E942221C8016C2D0E94B71D84E264E088
:1031E0000E94222182ED94E06C2D0E94B71D8091F7
:1031F000EE04882309F46EC08091F204882309F458
:1032000069C080914C04833009F064C08091C2048D
:1032100080FF07C083E362E00E94222180E294E005
:1032200006C083E362E00E94222186E294E06C2DD6
:103230000E94B71D81E364E00E9422210091BC043A
:103240008091B104882349F48091BC048D3028F02A
:103250000091BC040C5011E001C010E00A3030F4C1
:103260008091B104882311F480E205C0802F6AE0C8
:103270000E94C026805D6C2D0E947F1D802F6AE019
:103280000E94C026892F805D6C2D0E947F1D8AE3DD
:103290006C2D0E947F1D8091B3046AE00E94C026BD
:1032A000805D6C2D0E947F1D8091B3046AE00E94B6
:1032B000C026892F805D6C2D0E947F1D8091B104F6
:1032C000882341F4112311F080E501C081E46C2DC5
:1032D0000E947F1D8091EE04882371F48091F20496
:1032E000882351F08C2D0E94BD171092F20481E0CA
:1032F00080935A0480935B0480915B04882309F4D3
:103300007EC08091F204882339F08091F4048D30DE
:1033100018F0823708F473C010925B048091D104D6
:103320000E945317FF249CEFD92ED80E28C08091FD
:10333000D10481508F0D612F0E9478179091D10494
:10334000882359F0892F81508F0D00E0CC2009F49B
:1033500001E0612F41E021E007C09150892F8F0DDE
:10336000612F41E021E00C2D0E94C81DE3941F5FF6
:1033700088E0E816E1F6F394E5E0FE1619F01D2D5D
:10338000EE24D5CF8091F4040E94531703E4E02E7D
:1033900004E0F02EDD241CEFB12EB80E2CC0F70196
:1033A000808190E00C2E02C0959587950A94E2F7F3
:1033B0009091F40480FF0BC0892F81508D0D00E0A7
:1033C000CC2009F401E0612F41E021E007C09150D9
:1033D000892F8D0D612F41E021E00C2D0E94C81D29
:1033E00021971F5FCC23D9F6D3940894E11CF11CDC
:1033F000F5E0DF1621F01B2DC8E0D0E0D0CF8091A2
:103400005A04882309F478C010925A0483E167E3D0
:103410004DE629E00C2D0E94C81D8091BA04882336
:1034200059F1BCE3EB2EB4E0FB2EABE2DA2E20C068
:10343000F701808190E00C2E02C0959587950A9443
:10344000E2F780FF0AC000E0CC2009F401E08D2DF6
:10345000612F41E021E00E94C81D21971F5F1F33AB
:1034600039F70894E11CF11CD394F2E3DF1621F044
:10347000C7E0D0E018E3DCCF8BE567E00E942221B3
:103480008091C5048A3010F480E204C06AE00E9492
:10349000C026805D6C2D0E947F1D8091C5046AE06E
:1034A0000E94C026892F805D6C2D0E947F1D8AE3BB
:1034B0006C2D0E947F1D8091B8046AE00E94C02696
:1034C000805D6C2D0E947F1D8091B8046AE00E948F
:1034D000C026892F805D6C2D0E947F1D8091B104D4
:1034E000882351F48091F304882311F080E501C012
:1034F00081E46C2D0E947F1D87E667E00E942221F7
:103500008091EF04882311F08AE301C080E26C2DE2
:103510000E947F1DDF91CF911F910F91FF90EF903F
:10352000DF90CF90BF90089580914904882351F493
:1035300080914A04882331F49091B1048091F00481
:10354000981769F191E090935A04109249041092EF
:103550004A048091B1048823D1F48091AE048D3067
:1035600040F08091AE048C508093C5049093F30496
:1035700012C08091AE048093C5048091AE0488236C
:1035800019F48CE08093C5041092F30404C0809178
:10359000AE048093C5048091B1048093F0048091BF
:1035A000C2049091DD04891701F18091C20489174A
:1035B00020F48091C204855C02C08091C204891B02
:1035C0008A3298F08091F4048093D1048F5F8093C5
:1035D000F4048D3718F083E08093F4048091C204E2
:1035E0008093DD0481E080935B049091BA04809124
:1035F000F104891739F081E080935A048091BA046C
:103600008093F1048091EE04882309F44EC08091E8
:10361000F204882309F049C08091BB04882321F07B
:103620008091BB048230B1F42091C1043091B70481
:103630004091B2048DB79EB70A970FB6F8949EBF1B
:103640000FBE8DBFEDB7FEB7319682ED94E0ADB7FA
:10365000BEB713C02091B7043091C1044091B204A9
:10366000ADB7BEB71A970FB6F894BEBF0FBEADBFC9
:10367000EDB7FEB7319682ED94E012969C938E934F
:1036800011978CE294E0938382832483158236839E
:103690001782408711860E9437278DB79EB70A96FA
:1036A0000FB6F8949EBF0FBE8DBF8091C20480FFFD
:1036B00004C081E08093EF0408951092EF04089510
:1036C0008091B1048823D9F48091AE048D3048F004
:1036D0008091AE048C508093C50481E08093F30404
:1036E00012C08091AE048093C5048091AE048823FB
:1036F00019F48CE08093C5041092F30404C0809107
:10370000AE048093C5048091C1046091B7044091D8
:10371000B2040E940F178093C4048093C60421E072
:1037200030E0281B3109220F331FEE27FF27E21B51
:10373000F30BE154FB4F6591749187EC94E00E9488
:1037400030271092F2041092EE048091BA04809314
:10375000F10480914C048093AF048091B104809374
:10376000F00483E08093D1048093F4048091C20438
:103770008093DD0485E080935B0408959093C500F9
:103780008093C40088E18093C1008EE08093C200E2
:10379000519A5098089506C090E000009F5F9E31B6
:1037A000E1F781508823C1F7089548EC50E009C043
:1037B00020E137E2FA013197F1F721503040D1F79B
:1037C00081508823A9F70895982F8091C00085FF24
:1037D000FCCF9093C60080E090E008958091C000F7
:1037E00087FFFCCF8091C60008958091C00080784B
:1037F0000895AC0120E007C08091C00085FFFCCF98
:103800003093C6002F5FFA01E20FF11D349133238C
:1038100099F7662371F08091C00085FFFCCF8AE0A4
:103820008093C6008091C00085FFFCCF8DE080931F
:10383000C6000895FC0107C08091C00085FFFCCF41
:1038400031969093C60090819923B1F70895282F5F
:10385000982F92959F709A3030F48091C00085FF28
:10386000FCCF905D05C08091C00085FFFCCF995AC8
:103870009093C600822F90E08F7090700A973CF46E
:103880008091C00085FFFCCF2F70205D06C0809125
:10389000C00085FFFCCF2F70295A2093C6000895E1
:1038A0001F93182F892F0E94271C812F0E94271CED
:1038B0001F910895EF92FF920F931F937B018C014C
:1038C000C801AA27BB270E94501CC7010E94501C98
:1038D0001F910F91FF90EF9008950F931F93CF9337
:1038E000DF938C01E0E1F7E240E0C0E0D0E0C80106
:1038F000BF010E94CC26262F662329F4442319F405
:10390000E130F10549F48091C00085FFFCCF205DD6
:103910002093C600205341E0CF016AE070E00E948E
:10392000CC262196C530D10571F0822F90E09C0104
:103930002E9FC0012F9F900D3E9F900D1124081BBC
:10394000190BFB01D4CFDF91CF911F910F910895F7
:103950001F93CF93DF93482F87FF08C08091C0004B
:1039600085FFFCCF8DE28093C6004195E4E6F0E050
:1039700010E0C0E0D0E0842F992787FD9095BF012B
:103980000E94CC26262F16162CF0112319F4E130B4
:10399000F10549F48091C00085FFFCCF205D2093A4
:1039A000C600205311E0CF016AE070E00E94CC26EF
:1039B0002196C330D10531F02E9F802D1124481B54
:1039C000FB01D9CFDF91CF911F9108954F925F9264
:1039D0006F927F928F929F92AF92BF92CF92DF921F
:1039E000EF92FF920F931F93CF93DF934B015C01F4
:1039F000E12C9AECF92E9AE9092F9BE3192F442424
:103A0000C0E0D0E0C501B401A80197010E94F326EF
:103A1000D22E222341F4442031F481E0E816F1044F
:103A20000105110561F48091C00085FFFCCF80E3A2
:103A3000D80ED092C60080EDD80E44244394C8011D
:103A4000B7012AE030E040E050E00E94F326C22EA9
:103A5000732E642E552E2196CA30D105A9F06D2DF6
:103A600070E080E090E0A80197010E94A126861AEC
:103A7000970AA80AB90A2C2D372D462D552DC901B4
:103A8000DA017C018D01BECFDF91CF911F910F91A3
:103A9000FF90EF90DF90CF90BF90AF909F908F906E
:103AA0007F906F905F904F90089508950F931F93AC
:103AB000CF93DF93482F30E020E007C0855C9A4F1A
:103AC000FC0184918F5F280F3F5F822F90E03417B5
:103AD000A8F3FC01E55CFA4F0491EC01C45CDA4FF9
:103AE00010E006C0FE0184910E94C9201F5F21964C
:103AF0001017C0F3DF91CF911F910F910895DF92BE
:103B0000EF92FF920F931F93CF93DF93D62E95E002
:103B1000899FC0011124EC01C255DB4F8E0123EBBC
:103B2000E22E24E0F22EE80EF91EDD2021F0FE0147
:103B30008491809502C0F80184910E94C920219649
:103B40000F5F1F4FCE15DF0581F7DD2011F08FEFDE
:103B500001C080E00E94C92080E00E941521DF9111
:103B6000CF911F910F91FF90EF90DF9008951F93D9
:103B7000CF93DF93EC01162F04C0612F0E947F1DAD
:103B8000219688818823C9F7DF91CF911F910895ED
:103B90002F923F924F925F926F927F928F929F925D
:103BA000AF92BF92CF92DF92EF92FF920F931F934B
:103BB000CF93DF93282E162F342EF22E402EC62FB1
:103BC000D0E0C770D070209709F45BC0562E569491
:103BD00056945694EE2467E0C62EC1228C2C99246C
:103BE00087FC90945E01A20EB11C51E0652E712CF1
:103BF00035C0DE2CD20C8D2D652D0E9422210E9415
:103C00007C200E947C20082F40E050E015C081E01D
:103C1000481641F4C30102C0880F991F2A95E2F7A4
:103C2000082B08C0C30102C0880F991F2A95E2F72C
:103C3000809508234F5F5F4F9A01280D391D2A1583
:103C40003B0524F48C2D840F883009F78D2D652DCC
:103C50000E942221802F0E94C920E394E31448F29D
:103C60002F2D30E088E090E08C1B9D0B821793078E
:103C700014F0FF2404C0812F87708850F80E187F3D
:103C8000185FE12EE694E694E694C12FD0E0CF0DC4
:103C9000D11D43E0D595C7954A95E1F712C0822D15
:103CA0006E2D0E94222110E009C081E0481611F417
:103CB0008FEF01C080E00E94C9201F5F1315A8F399
:103CC000E3948E2D90E08C179D074CF32F2D2770D9
:103CD000C9F100E0C22FD0E031E0A32EB12C30C0FA
:103CE000F02EF20C8F2D6E2D0E9422210E947C203E
:103CF0000E947C20182F20E030E017C081E0481699
:103D000049F4C501022E02C0880F991F0A94E2F7F8
:103D1000182B09C0C501022E02C0880F991F0A94F2
:103D2000E2F7809518232F5F3F4F2C173D0734F3A0
:103D30008F2D6E2D0E942221812F0E94C9200F5F9E
:103D4000031570F280E00E941521DF91CF911F9141
:103D50000F91FF90EF90DF90CF90BF90AF909F902A
:103D60008F907F906F905F904F903F902F9008952D
:103D7000DF92EF92FF920F931F93F82E162FD42EFF
:103D8000E22E41E001E00E94C81D8F2D81508D0D73
:103D9000612F41E02E2D0E94C81D8F2D612F4D2DCA
:103DA00021E00E94C81D11501E0D8F2D612F4D2D39
:103DB00021E00E94C81D1F910F91FF90EF90DF90AE
:103DC0000895EF92FF920F931F93F82E162F062F50
:103DD000069506950695602F0E9422210E947C2060
:103DE0000E947C20E82E8F2D602F0E9422211770C8
:103DF00081E090E002C0880F991F1A95E2F7809544
:103E00008E210E94C92080E00E9415211F910F91F0
:103E1000FF90EF900895EF92FF920F931F93F82E6B
:103E2000162F062F069506950695602F0E942221D3
:103E30000E947C200E947C20E82E8F2D602F0E9403
:103E40002221177081E090E002C0880F991F1A9517
:103E5000E2F78E290E94C92080E00E9415211F915F
:103E60000F91FF90EF9008953F924F925F926F9263
:103E70007F928F929F92AF92BF92CF92DF92EF92FA
:103E8000FF920F931F93CF93DF93D82EC62E322E1F
:103E9000462E481AE42EFF24C701880F991FCC270D
:103EA000DD27C81BD90B23965D2C662E762EAA24FF
:103EB000BB248824992481E0381641F50E2D0C0D81
:103EC0008D2D602F0E940B1F9C2D9E19192F8D2D5B
:103ED000692F0E940B1F852D602F0E940B1F852DBF
:103EE000612F0E940B1F0419802F662D0E940B1F4B
:103EF000802F672D0E940B1F1419812F662D0E94A1
:103F00000B1F812F672D0E940B1F27C00E2D0C0D3C
:103F10008D2D602F0E94E11E8C2D8E19182F8D2D56
:103F2000612F0E94E11E852D602F0E94E11E852DCC
:103F3000612F0E94E11E0419802F662D0E94E11E50
:103F4000802F672D0E94E11E1419812F662D0E947B
:103F5000E11E812F672D0E94E11ED7FF04C0269627
:103F6000C80DD91D0DC02A96C5018E199F09880F4D
:103F7000991F880F991FC80FD91F0894E108F108ED
:103F80000894A11CB11C84E090E0880E991ED39483
:103F90005A9463947A94EA14FB040CF08CCFDF916A
:103FA000CF911F910F91FF90EF90DF90CF90BF9036
:103FB000AF909F908F907F906F905F904F903F90C9
:103FC00008952F982D982C9840985A98279A259ABA
:103FD000249A389A529A8BB18F708BB985B1807FB1
:103FE00085B98AB1806F8AB984B18F6084B9089528
:103FF00040985A98882319F0813021F402C0409AE1
:1040000008955A9A0895F8940E94F81F8BB1806F12
:104010008BB985B18F6085B92F988AB18F708AB9B5
:1040200084B1807F84B92D9A2C9A000000000AC0C8
:104030002C9800000000000000002C9A00000000F6
:104040000000000089B193B187FDF2CF2C982D9824
:104050008AB1806F8AB984B18F6084B978940895E9
:104060001F93162FF8940E9403202F982D982C9AB6
:104070008AB1806F8AB984B18F6084B98BB18F7037
:104080008BB99BB1812F807F892B8BB985B1807FC4
:1040900085B985B11F70812B85B900000000000033
:1040A000000000000000000000002C9878941F9190
:1040B0000895F8940E9403202F988AB18F708AB9CE
:1040C00084B1807F84B92D9A2C9A000000000000F2
:1040D0000000000000000000000029B183B12C980E
:1040E0002D989AB1906F9AB994B19F6094B97894D1
:1040F0008F70207F822B0895F8948091F50482952B
:104100008695869583700E9403202F9A8AB18F70BE
:104110008AB984B1807F84B92D9A2C9A000000005E
:1041200000000000000000000000000099B183B111
:104130002C982D9878948F70907F892B08950895EE
:104140008093F50480E060E40E9430201092F70430
:1041500081E060E40E9430201092F9048091F5041F
:10416000682F6F73606482958695869583700E9430
:10417000302008951F93182F8093F604186B80E069
:10418000612F0E94302081E0612F0E9430201F911A
:1041900008950F931F93182F0091F504029506952B
:1041A00006950370F894802F0E9403202F9A2D9873
:1041B0002C9A8AB1806F8AB984B18F6084B98BB12F
:1041C0008F708BB99BB1812F807F892B8BB985B183
:1041D000807F85B985B11F70812B85B900000000F3
:1041E0000000000000000000000000002C987894FF
:1041F000E02FF0E0EE0FFF1FE950FB4F80818F5F53
:1042000080838091F5048F5F8093F50487FF0AC057
:104210008091F6048F5F8093F6040E94BA2080E0BC
:104220000E94A0201F910F9108951F93182F106CCA
:1042300080E0612F0E94302081E0612F0E943020B9
:104240001F9108951F93182F862F0E94BA20812F47
:104250000E94A0201F9108950F931F9300E080E01B
:10426000602F0E94222110E080E00E94C9201F5F81
:104270001038D1F70F5F083091F71F910F91089513
:1042800080E00E94152180E060E00E9422211092CF
:10429000F7041092F8041092F9041092FA040895A9
:1042A0000E94E11F80E06FE30E94302081E06FE315
:1042B0000E9430200E942C210E9440210895982FB6
:1042C00086E0689F802D1124692F0E942221089585
:1042D0000895459A449A1092AB041092AA04109241
:1042E000AD041092AC0480E28093B800ECEBF0E0F7
:1042F00080818460808310926404808181608083E7
:104300008081806480837894089580E28093B800EF
:10431000089590E0611191E08E7F982B9093BA0000
:1043200008959093AB048093AA0408959093AD04EC
:104330008093AC040895ECEBF0E080818F70806A8C
:1043400080830895ECEBF0E080818F70806D808336
:1043500008958091BC0087FFFCCF08958093BB0037
:10436000ECEBF0E080818F70806880830895882373
:1043700029F08091BC008F70806C04C08091BC00DB
:104380008F7080688093BC0008958091BB00089571
:104390008091B9000895982F809164048823E1F7F3
:1043A00082E0809364049E7F90936504A6E6B4E067
:1043B000FA0102C081918D938E2F841B8617D0F352
:1043C00010928604609387048091BC008F70806A8D
:1043D0008093BC000895982F809164048823E1F7AE
:1043E00083E0809364049160909365041092A80424
:1043F0006093A9048091BC008F70806A8093BC0098
:10440000809164048823E1F7A8E8B4E0FA0102C0CF
:104410008D9181938E2F841B8617D0F30895982F4A
:10442000FA018091BC008E7F8093BC008091BC001B
:104430008F70806A8093BC008091BC0087FFFCCFA6
:104440009E7F9093BB008091BC008F7080688093AA
:10445000BC008091BC0087FFFCCF8091B9008831FF
:1044600089F091E012C080818093BB008091BC00F4
:104470008F7080688093BC008091BC0087FFFCCF68
:1044800031966150662379F790E08091BC008F707F
:10449000806D8093BC008091BC0084FFFCCF809134
:1044A000BC0081608093BC00892F08951F93CF9337
:1044B000DF93982F162FEA018091BC008E7F8093A6
:1044C000BC008091BC008F70806A8093BC0080919A
:1044D000BC0087FFFCCF91609093BB008091BC0033
:1044E0008F7080688093BC008091BC0087FFFCCFF8
:1044F0008091B900803469F091E018C08FEF0E947C
:10450000B7218091BC0087FFFCCF8091BB008993CD
:104510001150123098F780E00E94B7218091BC00C2
:1045200087FFFCCF8091BB00888390E08091BC0026
:104530008F70806D8093BC008091BC0081608093FF
:10454000BC00892FDF91CF911F9108958091640461
:1045500008951F920F920FB60F9211242F933F933D
:104560004F935F936F937F938F939F93AF93BF937B
:10457000EF93FF938091B900887F883609F4CBC010
:10458000893688F5803309F495C08133B0F48031E1
:1045900009F45AC0813138F4882309F43EC18830C7
:1045A00009F048C151C0803209F484C0883209F44E
:1045B00053C0883109F03EC14FC0883409F47AC035
:1045C000893438F4883309F478C0803409F032C172
:1045D00092C0883509F45DC0803609F49CC08035EE
:1045E00009F028C174C0803A09F4BEC0813AB0F421
:1045F000803809F49BC0813838F4803709F48BC0C7
:10460000883709F017C187C0803909F48FC088390D
:1046100009F4A1C0883809F00DC19DC0883B09F498
:10462000D1C0893B38F4883A09F4B6C0803B09F020
:1046300001C1B2C0883C09F4E0C0883F09F4E7C07A
:10464000803C09F0F7C0D9C08BE798E060E00E9499
:10465000F91B8091650414C08CE598E060E00E942D
:10466000F91B9091860480918704981708F0DAC0AE
:10467000E92FF0E0EA59FB4F80819F5F9093860419
:104680008093BB008091BC008F7080688093BC00D9
:10469000D1C087E498E060E00E94F91B8091A804F3
:1046A0009091BB00E82FF0E0E857FB4F90838F5FBD
:1046B0008093A80481E298E0B2C08DE098E060E0C9
:1046C0000E94F91B8091BC008F708068AFC089EF99
:1046D00097E060E00E94F91B8091BB009091A804D4
:1046E000E92FF0E0E857FB4F80839F5F9093A80489
:1046F00090E00E94501C86EE97E060E00E94F91B5B
:104700002091A80430E08091A90490E00197281737
:10471000390734F51EC083ED97E060E00E94F91B75
:1047200085E0809364041092A80462C08FEB97E048
:1047300060E00E94F91B8091A8049091BB00E82FD3
:10474000F0E0E857FB4F90838F5F8093A80480329E
:1047500038F48FEF06C08AEA97E060E00E94F91B08
:1047600080E00E94B72166C087E997E060E00E9480
:10477000F91B8091BC008F70806C8093BC00E0912D
:10478000AA04F091AB04309709F452C08091A804B8
:1047900068E874E009954CC084E897E060E00E9406
:1047A000F91B84E080936404E091AC04F091AD04C3
:1047B000309731F080E266E674E0099580938704D3
:1047C0001092860480E797E060E00E94F91B9091C8
:1047D0008604E92FF0E0EA59FB4F80818093BB000B
:1047E0009F5F9093860480918704981708F04ACFC2
:1047F0008091BC008F70806C49CF8EE497E060E0C0
:104800000E94F91B8091BC008F70806C0FC08FE3F9
:1048100097E060E00E94F91B0DC08EE297E060E037
:104820000E94F91B8091BC008F70806D8093BC004A
:1048300010926404FF91EF91BF91AF919F918F917E
:104840007F916F915F914F913F912F910F900FBE8C
:104850000F901F9018955058BB27AA270ED044C11F
:1048600035D130F03AD120F031F49F3F11F41EF4ED
:104870002AC10EF4E095E7FBF7C0E92F46D180F39B
:10488000BA17620773078407950718F071F49EF54D
:1048900075C10EF4E0950B2EBA2FA02D0B01B901B6
:1048A00090010C01CA01A0011124FF27591B99F0A6
:1048B000593F50F4503E68F11A16F040A22F232FB2
:1048C000342F4427585FF3CF469537952795A79502
:1048D000F0405395C9F77EF41F16BA0B620B730BA9
:1048E000840BBAF09150A1F0FF0FBB1F661F771F1A
:1048F000881FC2F70EC0BA0F621F731F841F48F4CF
:10490000879577956795B795F7959E3F08F0B3CF54
:104910009395880F08F09927EE0F9795879508953E
:104920007FD008F481E00895F8D088F09F5790F088
:10493000B92F9927B751A0F0D1F0660F771F881FC4
:10494000991F1AF0BA95C9F712C0B13081F016D18B
:10495000B1E0089513C1672F782F8827B85F39F029
:10496000B93FCCF3869577956795B395D9F73EF423
:1049700090958095709561957F4F8F4F9F4F0895CB
:10498000E89409C097FB3EF49095809570956195E9
:104990007F4F8F4F9F4F9923A9F0F92F96E9BB279F
:1049A0009395F695879577956795B795F111F8CF1B
:1049B000FAF4BB0F11F460FF1BC06F5F7F4F8F4F86
:1049C0009F4F16C0882311F096E911C0772321F07C
:1049D0009EE8872F762F05C0662371F096E8862F14
:1049E00070E060E02AF09A95660F771F881FDAF76B
:1049F000880F9695879597F90895A9D080F09F37ED
:104A000040F491110EF0BBC060E070E080E89FEBD5
:104A1000089526F41B16611D711D811D2BC045C014
:104A2000990F0008550FAA0BE0E8FEEF16161706BF
:104A3000E807F907C0F012161306E407F50798F027
:104A4000621B730B840B950B39F40A2661F0232B40
:104A5000242B252B21F408950A2609F4A140A695BC
:104A60008FEF811D811D089597F99F6780E870E0A1
:104A700060E00895882371F4772321F09850872B04
:104A8000762F07C0662311F499270DC09051862B0D
:104A900070E060E02AF09A95660F771F881FDAF7BA
:104AA000880F9695879597F908959F3F31F091501B
:104AB00020F4879577956795B795880F911D969502
:104AC000879597F908959FEF80EC089500240A9444
:104AD0001616170618060906089500240A941216D9
:104AE0001306140605060895092E0394000C11F40C
:104AF000882352F0BB0F40F4BF2B11F460FF04C0B9
:104B00006F5F7F4F8F4F9F4F089557FD9058440F11
:104B1000551F59F05F3F71F04795880F97FB991F1C
:104B200061F09F3F79F087950895121613061406D9
:104B3000551FF2CF4695F1DF08C016161706180666
:104B4000991FF1CF86957105610508940895E5DFF9
:104B5000A0F0BEE7B91788F4BB279F3860F416169B
:104B6000B11D672F782F8827985FF7CF86957795A7
:104B70006795B11D93959639C8F30895E894BB27BE
:104B800066277727CB0197F908954ADF08F48FEF5E
:104B900008950BD0A9CF9ADF28F09FDF18F0952356
:104BA00009F062CF90CF1124EACFAFDFA0F3959F39
:104BB000D1F3950F50E0551F629FF001729FBB2704
:104BC000F00DB11D639FAA27F00DB11DAA1F649FB0
:104BD0006627B00DA11D661F829F2227B00DA11D63
:104BE000621F739FB00DA11D621F839FA00D611DE9
:104BF000221F749F3327A00D611D231F849F600D0A
:104C0000211D822F762F6A2F11249F5750408AF042
:104C1000E1F088234AF0EE0FFF1FBB1F661F771FCE
:104C2000881F91505040A9F79E3F510570F01CCF4E
:104C3000A6CF5F3FECF3983EDCF3869577956795BA
:104C4000B795F795E7959F5FC1F7FE2B880F911DEC
:104C50009695879597F908959F9305D00F9007FC37
:104C6000EE5F28C030CF59DFE8F3E894E0E0BB27DF
:104C70009F57F0F02AED3FE049EC06C0EE0FBB0F66
:104C8000661F771F881F28F0B23A620773078407F0
:104C900028F0B25A620B730B840BE3959A9572F766
:104CA000803830F49A95BB0F661F771F881FD2F7A4
:104CB0009048FDCEEF93E0FF06C0A2EA2AED3FE068
:104CC00049EC5FEBDADD10DF0F90039401FC9058A4
:104CD000E8E6F0E000C09F938F937F936F93FF937C
:104CE000EF939B01AC0155DFEF91FF9105D02F9120
:104CF0003F914F915F914DCFDF93CF931F930F93D0
:104D0000FF92EF92DF927B018C01689405C0DA2E4E
:104D1000EF014BDFFE01E894A59125913591459176
:104D20005591AEF3EF01A9DDFE019701A801DA94D8
:104D300079F7DF90EF90FF900F911F91CF91DF9166
:104D40000895629FD001739FF001829FE00DF11DD5
:104D5000649FE00DF11D929FF00D839FF00D749FF5
:104D6000F00D659FF00D9927729FB00DE11DF91FA1
:104D7000639FB00DE11DF91FBD01CF0111240895FE
:104D8000991B79E004C0991F961708F0961B881F9D
:104D90007A95C9F780950895AA1BBB1B51E107C0FE
:104DA000AA1FBB1FA617B70710F0A61BB70B881FBB
:104DB000991F5A95A9F780959095BC01CD0108954A
:104DC00097FB092E07260AD077FD04D0E5DF06D031
:104DD00000201AF4709561957F4F0895F6F790952D
:104DE00081959F4F0895A1E21A2EAA1BBB1BFD01BE
:104DF0000DC0AA1FBB1FEE1FFF1FA217B307E407BA
:104E0000F50720F0A21BB30BE40BF50B661F771F11
:104E1000881F991F1A9469F76095709580959095F1
:104E20009B01AC01BD01CF01089597FB092E05261A
:104E30000ED057FD04D0D7DF0AD0001C38F45095AF
:104E40004095309521953F4F4F4F5F4F0895F6F7AE
:104E500090958095709561957F4F8F4F9F4F0895E6
:104E6000FB01DC0105900D920020E1F70895AEE012
:104E7000B0E0EDE3F7E20C94FC290D891E8986E091
:104E80008C831A8309838FEF9FE79E838D839E0116
:104E9000275E3F4FCE0101966F89788DA9010E9450
:104EA0005B272F813885020F131FF80110822E9681
:104EB000E4E00C94182AABE0B0E0E1E6F7E20C94F1
:104EC000EE293C012B015A01FC01178216828381D5
:104ED00081FD03C06FEF7FEFC6C19AE0892E1E01EE
:104EE0000894211C311CF3012381F20123FD8591DB
:104EF00023FF81912F01882309F4B2C1853239F44F
:104F000023FD859123FF81912F01853229F490E0C3
:104F1000B3010E946429E7CF982FFF24EE2499243F
:104F2000FFE1FF15D0F09B3269F09C3228F49032FB
:104F300059F0933291F40EC09D3249F0903369F4E8
:104F400041E024C052E0F52A84E0F82A28C098E025
:104F5000F92A25C0E0E1FE2A22C0F7FC29C0892FEA
:104F600080538A3070F4F6FE05C0989C902C112472
:104F7000980E15C0E89CE02C1124E80EF0E2FF2A00
:104F80000EC09E3229F4F6FC6BC140E4F42A07C03F
:104F90009C3619F450E8F52A02C0983649F4F2011B
:104FA00023FD959123FF91912F01992309F0B8CF0B
:104FB000892F8554833018F08052833038F444E0D0
:104FC00050E0A40EB51E5FE359830FC0933631F055
:104FD000933779F0933509F056C020C0F5018081F0
:104FE000898342E050E0A40EB51E610101E010E0AB
:104FF00012C0F501C080D180F6FC03C06FEF7FEFD7
:1050000002C0692D70E042E050E0A40EB51EC6015A
:105010000E9459298C015FE7F52214C0F501C08078
:10502000D180F6FC03C06FEF7FEF02C0692D70E006
:1050300042E050E0A40EB51EC6010E944E298C012C
:1050400050E8F52AF3FE07C01AC080E290E0B301F1
:105050000E946429EA948E2D90E008171907A8F39E
:105060000EC0F601F7FC8591F7FE81916F0190E08B
:10507000B3010E946429E110EA9401501040011527
:10508000110579F7EAC0943611F0993669F5F7FE03
:1050900008C0F501208131814281538184E090E094
:1050A0000AC0F501808191819C01442737FD40951C
:1050B000542F82E090E0A80EB91E9FE6F92257FF18
:1050C00009C050954095309521953F4F4F4F5F4F08
:1050D000E0E8FE2ACA01B901A1012AE030E00E94FD
:1050E0009029D82ED21840C0953729F41F2D1F7E45
:1050F0002AE030E01DC01F2D197F9F3661F09037E8
:1051000020F4983509F0ACC00FC0903739F09837CB
:1051100009F0A6C004C028E030E00AC0106114FD08
:10512000146020E130E004C014FD166020E132E09C
:1051300017FF08C0F501608171818281938144E08D
:1051400050E008C0F50180819181BC0180E090E0D1
:1051500042E050E0A40EB51EA1010E949029D82E75
:10516000D2188FE7F82EF122F6FE0BC05EEFF52283
:10517000D91438F4F4FE07C0F2FC05C08FEEF82213
:1051800002C01D2D01C0192DF4FE0DC0FE01ED0D54
:10519000F11D8081803319F499EEF92208C01F5F58
:1051A000F2FE05C003C08F2D867809F01F5F0F2D1A
:1051B000F3FC14C0F0FE0FC01E1510F09D2C0BC0A8
:1051C0009D2C9E0C911A1E2D06C080E290E0B3012A
:1051D0000E9464291F5F1E15C0F304C01E1510F441
:1051E000E11A01C0EE2404FF0FC080E390E0B30198
:1051F0000E94642902FF1DC001FD03C088E790E002
:105200000EC088E590E00BC0802F867891F001FFFA
:1052100002C08BE201C080E2F7FC8DE290E0B301B6
:105220000E94642906C080E390E0B3010E946429D3
:105230009A94D914C0F3DA94F101ED0DF11D808137
:1052400090E0B3010E946429DD20A9F706C080E246
:1052500090E0B3010E946429EA94EE20C1F743CEA6
:10526000F30166817781CB012B96E2E10C940A2A47
:10527000F999FECF92BD81BDF89A992780B508951E
:10528000262FF999FECF1FBA92BD81BD20BD0FB662
:10529000F894FA9AF99A0FBE01960895FC010590C8
:1052A000615070400110D8F7809590958E0F9F1F28
:1052B0000895FC016150704001900110D8F780956D
:1052C00090958E0F9F1F08950F931F93CF93DF9399
:1052D0008C01EB018B8181FF1BC082FF0DC02E81F1
:1052E0003F818C819D812817390764F4E881F98119
:1052F0000193F983E88306C0E885F985802F099535
:10530000892B31F48E819F8101969F838E8302C009
:105310000FEF1FEFC801DF91CF911F910F910895FB
:10532000FA01AA27283051F1203181F1E8946F93D6
:105330006E7F6E5F7F4F8F4F9F4FAF4FB1E03ED07C
:10534000B4E03CD0670F781F891F9A1FA11D680F1A
:10535000791F8A1F911DA11D6A0F711D811D911D4D
:10536000A11D20D009F468943F912AE0269F1124C2
:105370003019305D3193DEF6CF010895462F477026
:10538000405D4193B3E00FD0C9F7F6CF462F4F7081
:10539000405D4A3318F0495D31FD4052419302D0DF
:1053A000A9F7EACFB4E0A695979587957795679585
:1053B000BA95C9F700976105710508959B01AC0185
:1053C0000A2E06945795479537952795BA95C9F7AC
:1053D000620F731F841F951FA01D08952F923F9287
:1053E0004F925F926F927F928F929F92AF92BF92F5
:1053F000CF92DF92EF92FF920F931F93CF93DF93A1
:10540000CDB7DEB7CA1BDB0B0FB6F894DEBF0FBEFD
:10541000CDBF09942A88398848885F846E847D844A
:105420008C849B84AA84B984C884DF80EE80FD804C
:105430000C811B81AA81B981CE0FD11D0FB6F894C2
:0E544000DEBF0FBECDBFED010895F894FFCF83
:10544E0001526567696F6E3A20002020202020559A
:10545E0053203132687200202020202055532032F4
:10546E003468720020202020204555203132687289
:10547E00002020202020455520323468720020550F
:10548E0053203132687220444F570020555320323A
:10549E0034687220444F57002045552031326872CF
:1054AE0020444F5700204555203234687220444F17
:1054BE00570020202031326872204C4F4E4700207A
:1054CE00202032346872204C4F4E47003132682013
:1054DE004C4F4E4720444F5700323468204C4F4EAD
:1054EE004720444F57004A616E00466562004D6189
:1054FE007200417072004D6179004A756E004A75F6
:10550E006C0041756700536570004F6374004E6FF9
:10551E0076004465630053756E20004D6F6E20005B
:10552E005475652000576564200054687520004648
:10553E00726920005361742000446174653A002042
:10554E00202020200020202000436F6E66696775A2
:10555E00726174696F6E204D656E750053657420AF
:10556E00416C61726D3A2020005365742054696D50
:10557E00653A2000536574204261636B6C696768FD
:10558E00743A20005072657373204D454E55207449
:10559E006F20616476616E6365005072657373206F
:1055AE0053455420746F2073657400507265737385
:1055BE00202B20746F206368616E67652068722EE1
:1055CE000050726573732053455420746F207365B9
:1055DE007420686F7572005072657373202B20747F
:1055EE006F206368616E6765206D696E005072652D
:1055FE0073732053455420746F20736574206D6946
:10560E006E73005072657373202B20746F20636865
:10561E00616E676520736563005072657373205306
:10562E00455420746F207365742073656373005046
:10563E0072657373202B20746F206368616E6765CB
:10564E00202020200050726573732053455420741F
:10565E006F20736176652020202000507265737371
:10566E002053455420746F20736574202020202011
:10567E00005072657373204D454E5520746F206532
:10568E00786974202020005072657373202B20746B
:10569E006F206368616E676520202000507265730D
:1056AE00732053455420746F20736176652020203B
:1056BE00005072657373204D454E5520746F2065F2
:1056CE007869740050726573732053455420746F5B
:1056DE0020736574202020005072657373202B2078
:1056EE00746F206368616E6765206D6F6E00507217
:1056FE006573732053455420746F20736574206D49
:10570E006F6E2E005072657373202B20746F2063A2
:10571E0068616E67652064617900507265737320ED
:10572E0053455420746F2073657420646174650052
:10573E005072657373202B20746F206368616E67DF
:10574E00652079722E005072657373205345542074
:10575E00746F20736574207965617200495353002C
:10576E00202020202000416C61726D0025303264B3
:10577E002F253032642F323025326400003A44D463
:08578E00443A00006C106C00AD
:00000001FF
